:020000040800F2
:10000000805500209D010008CB170008A5150008A9
:10001000C9170008A9020008DD1F00080000000041
:10002000000000000000000000000000251E000885
:100030005D03000800000000CD170008271E00081F
:10004000B7010008B7010008B7010008B7010008B0
:10005000B7010008B7010008B70100085F030008F6
:10006000B7010008B7010008B7010008B701000890
:10007000B7010008B7010008B7010008B701000880
:10008000B7010008B7010008B7010008B701000870
:10009000B7010008B7010008B7010008B701000860
:1000A000B7010008B7010008B7010008B701000850
:1000B000B7010008B7010008B7010008B701000840
:1000C000B7010008B7010008B7010008B701000830
:1000D000B7010008B7010008B7010008B701000820
:1000E000B7010008B7010008B7010008B701000810
:1000F000B7010008B7010008B7010008B701000800
:10010000B7010008B7010008B7010008B7010008EF
:10011000B7010008B7010008B7010008B7010008DF
:10012000B7010008B7010008B7010008AD020008D8
:10013000B7010008B7010008B7010008B7010008BF
:10014000B7010008B7010008B7010008B7010008AF
:10015000B7010008B7010008B7010008B70100089F
:10016000B7010008B7010008B7010008B70100088F
:10017000B7010008B7010008B7010008000000003F
:10018000B7010008B7010008DFF80CD000F07AF8DA
:10019000004800476D200008805500200648804731
:1001A00006480047FEE7FEE7FEE7FEE7FEE7FEE75C
:1001B000FEE7FEE7FEE7FEE7C11E00088901000832
:1001C0002DE9F05F0546002092469B46884606468C
:1001D000814640241BE0284641464746224600F01F
:1001E00041F853465A46C01A914110D31146184659
:1001F000224600F028F82D1A67EB01084F462246E8
:100200000120002100F01FF817EB00094E41201ECD
:10021000A4F10104DFDC484631462A464346BDE8E6
:10022000F09FD2B201E000F8012B491EFBD27047CB
:100230000022F6E710B513460A4604461946FFF7B2
:10024000F0FF204610BD202A04DB203A00FA02F11C
:10025000002070479140C2F1200320FA03F31943B4
:1002600090407047202A04DB203A21FA02F0002156
:10027000704721FA02F3D040C2F1200291400843B6
:1002800019467047064C074D06E0E06840F0010350
:1002900094E8070098471034AC42F6D3FFF778FF94
:1002A00060D1040880D10408FEE70000014800F096
:1002B00067B80000D400002001681823CAB2103AC1
:1002C000B2FBF3F2054B6FF30901032A9B5CC36594
:1002D00000D9091D816508467047000040D1040817
:1002E00010B5014600208B698A6A4FF0C07453B183
:1002F000B3F5005F15D072B1012A0CD0022A0AD0E2
:10030000032A09D104E01AB1012A06D0022A03D136
:10031000C96AC90100D5012010BDC96AA142FAD03D
:1003200010BD002AF7D0012AF2D0022AF3D0032A06
:10033000F3D010BD30B50468256825F4802525600C
:10034000046863608368402B036803D09960006889
:10035000C26030BD9A600068C16030BD704700F077
:1003600003B872B6FEE7000003480121017040683F
:100370000249808A0860704704000020143C014054
:100380002DE9F84304464FF00009CDF8009063488A
:100390004FF41651A56D0068B0FBF1F72E6894F884
:1003A0005C10082000FA01F131420FD021680A6880
:1003B00052070BD50A6822F004020A6094F85C1018
:1003C0008840A860606D40F00100606594F85C10A2
:1003D0004FF0010808FA01F0304208D0216849695D
:1003E000090604D5A860606D40F00200606594F8CD
:1003F0005C1004208840304208D0216809688907D1
:1004000004D5A860606D40F00400606594F85C104D
:1004100010208840304218D021680968090714D597
:10042000A86020680168490304D50068000308D566
:10043000A16C07E00168C90503D4016821F0080137
:100440000160216C09B12046884794F85C10202097
:100450008840304231D021680968C9062DD5A8608E
:1004600094F8350005282068016806D0490347D56F
:10047000006800031DD4616C1CE021F016010160CE
:100480002068416921F080014161206C08B9A06CAD
:1004900020B12068016821F00801016094F85C1027
:1004A0003F208840A86084F8358084F83490216D1E
:1004B0001FE0E16B09B120468847606D00282BD012
:1004C000606DC00714D0052084F8350020680168ED
:1004D00021F0010101600098401C0090B84203D84F
:1004E00020680068C007F6D184F8358084F834901D
:1004F000E16C002910D001B02046BDE8F043084768
:100500000168C905D5D4016821F01001016084F8A3
:10051000358084F83490CCE7BDE8F8831C000020D7
:100520002DE9F041044600F0ADF906465CB1022029
:1005300084F83500002584F834502068016821F0E3
:10054000010101600DE00120BDE8F08100F09AF9A1
:10055000801B052805D920206065032084F835001C
:10056000F2E720680068C007F0D1226811682048CF
:100570000140D4E901031843D4E903363343184357
:1005800063691843A3691843E3691843236A18434E
:100590000843616A042903D1D4E90B1319430843C2
:1005A000106020684069666A20F0070130460E43FB
:1005B000012704280CD1A06A0643E06A40B1204616
:1005C000FFF78EFE20B14020606584F83570BAE7F1
:1005D000206846612046FFF76FFE94F85C203F21BB
:1005E00091408160656584F835700020ACE70000BB
:1005F0003F8010F02DE9F0410446866D90F83400FC
:10060000002501280DD0012084F8340094F83570BD
:100610000020012F07D084F8340002252846BDE8C9
:10062000F0810220FBE7022784F8357060652046E0
:10063000FFF780FE94F85C103F208840B06020688F
:10064000016841F016010160206C20B1206801684A
:1006500041F0080101602068016841F0010101607A
:10066000DCE7000070B5044600F00CF90546601C9C
:1006700002D004480078044400F004F9401BA04272
:10068000FAD370BD100000202DE9F84FDFF8BCA1AF
:100690000022012503264FF00F090AF1040BAAF1ED
:1006A000040E00BF0B6805FA02F42340A34270D188
:1006B0000F7907F00307012F01D0022F16D18768A9
:1006C0004FEA420806FA08FC27EA0C07D1F80CC0EA
:1006D0000CFA08FC4CEA070CC0F808C04768A743AE
:1006E0000C79C4F3001494403C4344600C79E44317
:1006F000A4070AD0C4684FEA420C06FA0CF7BC43C0
:100700008F6807FA0CF72743C7600C7904F00304DD
:10071000022C12D1D40800EB840CDCF820405707DF
:10072000FF0E09FA07F824EA0804D1F8108008FA45
:1007300007F848EA0408CCF8208004684FEA420C25
:1007400006FA0CF7BC430F7907F0030707FA0CF71A
:10075000274307604C6814F4403F70D03C4C276836
:1007600047F480472760246822F0030704F480449C
:100770000094384C07EB040CDCF8084897074FEA64
:10078000177809FA08F7BC43334FB84202D1002763
:1007900024E054E0314FB84201D101271EE0304F30
:1007A000B84201D1022719E02E4FB84201D10327E8
:1007B00014E02D4FB84201D104270FE02B4FB8426F
:1007C00001D105270AE02A4FB84201D1062705E0EA
:1007D000284FB84201D1072700E0082707FA08F799
:1007E0002743CCF80878DAF800405746D1F804C01F
:1007F0009C435FEACC2C00D51C433C60DBF80040F6
:100800005F46D1F804C09C435FEA8C2C00D51C43A2
:100810003C60DEF800407746D1F804C09C435FEAB4
:100820008C3C00D51C433C60084F083F3C68D1F825
:1008300004C09C435FEACC3C00D51C433C60521C86
:10084000102AFFF42FAFBDE8F88F0000083C0140EC
:1008500044380240003001400000024000040240E1
:1008600000080240000C0240001002400014024048
:1008700000180240001C02400AB18161704709045F
:10088000FBE700000148806870470000100000206E
:1008900070B5040025D094F83D00002520B984F8F7
:1008A0003C50204600F0B8F8242084F83D00206831
:1008B000016821F0010101602068016841F40041F4
:1008C00001602068016821F40041016000F00CFA29
:1008D0004D4A6168914201D84C4900E04C49884238
:1008E00001D2012070BD4B492368B0FBF1F15E6875
:1008F00026F03F060E435E606368934206D94FF4CC
:10090000967359434FF47A73B1FBF3F12368491C92
:100910001E6A26F03F06314319626168914210D881
:100920004900401EB0FBF1F2521CC2F30B02042A34
:1009300001D2042022E0B0FBF1F0401CC0F30B0018
:100940001CE0A268F2B301EBC10303EB0116431EE6
:10095000B3FBF6F35B1C43F480431B0549D092B311
:1009600001EBC10202EB0111401EB0FBF1F0401C93
:10097000C0F30B0040F4804040F400402168CA6995
:100980004CF6FF739A431043C861D4E90710014342
:100990002068026822F0C00211430160D4E903011B
:1009A00001432068826848F2FF339A431143816013
:1009B000D4E9050108432168CA6822F0FF02104308
:1009C000C86001E00EE016E02068016841F0010116
:1009D00001602564202084F83D00256384F83E50A2
:1009E000002070BD01EB4106431EB3FBF6F35B1C18
:1009F000B3E70120C2E701EB4101401EB0FBF1F07B
:100A0000401CC0F30B00B7E7A086010080841E00E5
:100A100000093D0040420F0010B586B00446142185
:100A20006846FFF705FC13492068884220D1124828
:100A30000021026842F002020260006800F0020039
:100A40000590C02000901220CDE901010320039001
:100A50000420049069460948FFF716FE0648103046
:100A6000016841F400110160006800F40010059075
:100A700006B010BD0054004030380240000402406F
:100A8000024881680278114481607047100000209C
:100A90000B4810B5016841F400710160016841F430
:100AA00080610160016841F480710160032000F001
:100AB0006FF80F2000F006F800F024F8002010BDB9
:100AC000003C024070B50D4D04464FF47A71287811
:100AD000B1FBF0F00A490968B1FBF0F000F0E6FC68
:100AE00048B9102C07D200222146501E00F030F8E1
:100AF00000206C6070BD012070BD0000100000205F
:100B00001C0000200A4808B5016841F480410160DA
:100B1000006800F4804000900548001F016841F023
:100B200080510160006800F08050009008BD000016
:100B300044380240002809DB00F01F0201219140E7
:100B40004009800000F1E020C0F80011704700006B
:100B5000F0B40E4B1B680C46C3F30223C3F1070528
:100B6000042D00D90425191D072901D2002300E016
:100B7000DB1E012606FA05F1491E214099409E40E0
:100B8000761E16403143F0BC01F029BA0CED00E0AE
:100B9000064900F0070208684FF6FF03184040EAD4
:100BA0000220034A10430860704700000CED00E08B
:100BB0000000FA052DE9F0470E46050065D0DFF884
:100BC0001481D8F80000F7B200F00700B04207D255
:100BD00088F80070D8F8000000F00700B04254D147
:100BE00028683D4C810712D5400703D5206840F4A2
:100BF000E05020602878000703D5206840F460406A
:100C000020602068A96820F0F00008432060287860
:100C1000C0072DD0304968680839012812D0022851
:100C200013D0032811D00968890700292DDA21681B
:100C300021F0030101432160FFF724FE814641F2C8
:100C4000883A0EE009688903EFE709688901ECE753
:100C5000FFF718FEA0EB0901514502D90320BDE8BA
:100C6000F0872068696800F00C00B0EB810FEFD1CD
:100C7000D8F80010404601F00701B14207D90770CB
:100C8000006800F00700B04201D00120E7E72878B3
:100C9000400705D52068E96820F4E050084320604B
:100CA0002878000706D52068296920F4604040EACA
:100CB000C100206000F038F82168084AC1F3031130
:100CC000515CC8400649086006480068FFF7FAFE14
:100CD0000020C4E7003C02400838024048D1040824
:100CE0001C00002014000020044805490068096821
:100CF000044AC1F38221515CC84070471C000020A7
:100D00000838024058D104080448054900680968B9
:100D1000044AC1F34231515CC84070471C000020B6
:100D20000838024058D10408154810B5006810F082
:100D30000C02144813D01449042A0FD0082A0ED1EB
:100D40000F4C241F2268236802F03F025B0207D584
:100D50002068C0F38810A0FB010106E0084610BD22
:100D60002168C1F38811A1FB00010023FFF728FAD5
:100D70002168C1F30141491C4900B0FBF1F010BDED
:100D8000083802400024F40040787D012DE9F84F36
:100D900004006ED02078DFF84C93C007A9F1040559
:100DA0004AD009F104000168C1F38101012908D08A
:100DB0000068C0F3810002280AD1D9F8000040027F
:100DC00006D52868800337D560680028E1D033E075
:100DD0006068B0F5803F10D0B0F5A02F286810D023
:100DE00020F480302860286820F480202860606823
:100DF000A8B1FFF747FD06460DE0286840F48030B3
:100E0000F4E740F480202860F7E700BFFFF73AFDE1
:100E1000801B642873D828688003F7D50CE0FFF79F
:100E200031FD064605E000BFFFF72CFD801B64285E
:100E3000F0D828688003F7D42078DFF8AC828007E8
:100E40004FF0000A3ED5A748001D016811F00C0FB5
:100E500008D00068C0F3810002280BD1D9F8000047
:100E6000400207D42868800716D5E068012800D121
:100E700012E033E1E068B8B10120C8F80000FFF7E4
:100E800001FD064605E000BFFFF7FCFC801B0228C1
:100E9000C0D828688007F7D52868216920F0F800B5
:100EA00040EAC10028600DE0C8F800A0FFF7EAFCA6
:100EB000064604E0FFF7E6FC801B02281FD82868DE
:100EC0008007F7D42078000722D5864F87486169CC
:100ED000703771B101210160FFF7D4FC064604E0D0
:100EE000FFF7D0FC801B022809D838688007F7D5A7
:100EF0000EE0C0F800A0FFF7C5FC064605E082E062
:100F0000FFF7C0FC801B02287DD838688007F7D423
:100F10002078400768D5DFF8CCB100270BF13C0BF7
:100F2000DBF80000C0000BD4DBF8001041F080516A
:100F3000CBF80010DBF80000012700F08050009093
:100F40006B4E3068C00510D4306840F4807030605B
:100F5000FFF798FC009005E0FFF794FC0099401A19
:100F6000022850D83068C005F6D55E4EA0686C36B1
:100F700001280FD00528306810D020F00100306023
:100F8000306820F004003060A068B8B1FFF77AFC48
:100F900000900FE0306840F00100F4E740F00400FA
:100FA0003060F7E7FFF76EFC0099411A41F2883094
:100FB000814266D830688007F4D50EE0FFF762FC06
:100FC000009007E0FFF75EFC0099411A41F288307B
:100FD000814256D830688007F4D42FB1DBF8001076
:100FE00021F08051CBF80010A069C8B33D49091D1C
:100FF0000968C1F3810102294AD00228504607D06E
:10100000C8F8600000E03CE0FFF73CFC04463BE031
:101010004746C8F86000FFF735FC064605E000BF0C
:10102000FFF730FC801B02282BD828688001F7D4FA
:10103000D4E907010843A16A2E4A490802EB01419D
:10104000626A41EA8211084394F82C1040EA016177
:10105000C9F8001001203866FFF714FC044606E0CA
:101060003EE000BFFFF70EFC001B022809D82868ED
:101070008001F7D534E000BFFFF704FC001B022815
:1010800002D90320BDE8F88F28688001F4D427E056
:101090000128F7D0D9F80000E26900F480019142FC
:1010A0001CD1226A00F03F01914217D147F6C0716E
:1010B000626A0140B1EB821F10D1A26A4FF0FF3388
:1010C00000F4403103EB5202B1EB024F06D194F829
:1010D0002C1000F07060B0EB016F01D00120D1E75F
:1010E0000020CFE70438024000004742800E47420C
:1010F000007000400000FFFF00680349884201D1F2
:10110000FFF72FB9704700000030014070B50400B0
:1011100009D0606A002540B125616561A56294F837
:10112000510040B10CE0012070BD6068B0F5827FD5
:10113000F4D0E561F2E784F85050204600F044F81E
:10114000022084F851002068016821F0400101600C
:10115000A088218900F4827001F404410843A18928
:1011600001F400610843217C01F002010843217D64
:1011700001F001010843218B01F400710843217F34
:1011800001F03801084394F8201001F08001084371
:10119000218D01F40051084321680860A0690421F1
:1011A00001EA104094F8241001F01001084321686E
:1011B00048602068C16921F40061C1616565012052
:1011C00084F85100002070BDF0B587B006461421A8
:1011D0006846FFF72DF82249306888423DD1214802
:1011E0000025016841F480510160006800F48050DE
:1011F00005901C481438016841F001010160006845
:1012000001A900F001000590E020009002200327D2
:1012100081E8A1000520049069461348FFF734FADD
:10122000134C12482060780660604020C4E9020533
:101230000001C4E90405A5610420E561C4E9085082
:10124000F805C4E90A70801020632046FFF768F9AA
:1012500008B1FFF786F8B464A66307B0F0BD0000DC
:10126000003001404438024000000240586402400F
:10127000D40000202DE9F84F984616468A460446C9
:10128000FFF700FB814694F8510001281ED1BAF106
:10129000000F73D0002E71D094F85000012815D0A3
:1012A000012784F85070032084F8510000256565FB
:1012B000C4F830A0A686E686A563A587E5876564A1
:1012C0002564A068B0F5004F03D00CE00220BDE813
:1012D000F88F2068016821F04001016020680168F2
:1012E00041F48041016020680168490603D4016827
:1012F00041F040010160E068B0F5006F606803D024
:1013000048B3012E27D047E008B1012E1FD1206B32
:1013100021680088C86006E020688168890709D5CF
:10132000216B0988C160206B801C2063E08E401E09
:10133000E0860CE0FFF7A6FAA0EB0901414503D3D4
:10134000B8F1FF3F03D035E0B8F1000F32D0E08EA6
:101350000028E1D123E0206B21680078087306E0C3
:101360002068816889070AD5216B09780173206B91
:10137000401C2063E08E401EE0860DE02BE0FFF76E
:1013800081FAA0EB0901414503D3B8F1FF3F03D037
:1013900010E0B8F1000F0DD0E08E0028E0D14A46F1
:1013A0004146204600F05CFA08B120206065A06844
:1013B00030B109E084F8517084F85050032086E77A
:1013C0002068C1688068009084F8517004F8505F0C
:1013D00060680028F3D0012079E7000070B504466A
:1013E00090F8510001281CD1C9B1C2B194F8500045
:1013F000012816D0012084F85000032084F8510001
:10140000002565652163A286E286A563656425647F
:10141000A587E587A068B0F5004F04D00DE0012056
:1014200070BD022070BD2068016821F0400101609C
:101430002068016841F480410160A16C174808648C
:10144000A16C1748C863A16C1648C864A06C0565F8
:10145000E38E2268216B0C32A06CFFF7CBF830B121
:10146000606D40F01000606584F85050D7E7206848
:101470000168490603D4016841F04001016084F825
:1014800050502068416841F0200141602068416867
:1014900041F002014160002070BD0000F11700081A
:1014A000FB170008CF1700087047704710B5401EA3
:1014B000B0F1807F01D3012010BD4FF0E0246061C6
:1014C0000F21601700F08BFD0020A0610720206134
:1014D000002010BD70B5040004D094F84100002530
:1014E00010B106E0012070BD84F84050204600F0A5
:1014F00023F8242084F841002068C16821F40051B9
:10150000C160204600F0E4FC2068016921F49041AC
:1015100001612068416921F02A0141612068C168A8
:1015200041F40051C1606564202084F8410084F8D2
:1015300042006563002070BD10B586B004461421DA
:101540006846FEF775FE14492068884221D1134889
:101550000021026842F010020260006800F01000F2
:1015600005900E481438026842F0010202600068DB
:1015700000F0010005904FF4C06000900220CDE91A
:101580000101032003900720049069460448FFF7F7
:101590007BF806B010BD0000001001404438024046
:1015A00000000240FEE7000038B51C4900200A6830
:1015B00042F480020A6009681A4C01F4800100912B
:1015C000174921604FF0C06161604021C4E90210F9
:1015D0000901C4E90410C901A061C4E907016062FE
:1015E0002046FEF79DFF08B1FEF7BBFE20680168AC
:1015F00041F0100101602068016841F004010160C0
:101600000948002211468464A0633B20FFF7A0FA3A
:10161000BDE838403B20FFF78DBA0000303802406B
:1016200058640240D40000207C0000202DE9F041E5
:1016300086B014216846FEF7FBFD294800240168A6
:1016400041F004010160016801F0040105910168A5
:1016500041F080010160016801F08001059101689D
:1016600041F001010160016801F00101059101688B
:1016700041F002010160016801F002010591016879
:1016800041F0400101600068164F00F040000590F5
:10169000002240213846FFF7EFF8DFF84C8042F295
:1016A0002046002231464046FFF7E6F8012251036A
:1016B0004046FFF7E1F8402000900125CDE90154B4
:1016C000694638460394FEF7DFFF0096CDE90154E2
:1016D000694640460394FEF7D7FF06B0BDE8F081A7
:1016E0003038024000080240001802400D4810B592
:1016F0000B4901600C49416000214FF48042816038
:10170000C0E9031241618161C1610162FFF7C0F864
:10171000002803D0BDE81040FEF723BE10BD000036
:101720000054004028000020400D030010B5174C65
:1017300015484FF48271C4E90001016841F4004189
:101740000160016841F4804101600021E1604FF4D3
:1017500080222161C4E905121022C4E907216162D7
:10176000A1620A21E162022141608168C90700D0BB
:10177000C0680648FFF7CAFC08B1FEF7F2FD03484F
:101780005830A06410BD0000003001407C000020F3
:101790000C4810B50A4901604FF4E1314160002165
:1017A00081600C22C160C0E904128161C161FFF750
:1017B00091FE002803D0BDE81040FEF7D2BD10BD59
:1017C0000010014034010020FEE7FEE7704710B52D
:1017D000806B01684A6822F003024A60416D41F063
:1017E00010014165012180F85110FFF785FC10BD03
:1017F00010B5806BFFF759FE10BD38B50546846BF8
:10180000FFF740F8024628680068C00523D4206826
:10181000416821F0200141602068416821F0020107
:1018200041606421204600F01BF818B1606D40F063
:1018300020006065A068002118B92068C26880682F
:101840000090E186012084F85100606D18B12046B7
:10185000FFF752FC38BD2046FFF726FE38BD0000DA
:10186000F8B515460E460B460092044601220221A9
:1018700000F02CF8A0B9134813490068B0FBF1F050
:101880004FF47A71484300906068B0F5827F0DD1C3
:101890003346002280212046009500F017F870B1F1
:1018A000606D40F0200060650320F8BD009830B105
:1018B000401E009020688068C0430006F6D50020D6
:1018C000F8BD00001C00002000366E012DE9F84331
:1018D0001E46914688460446089DFEF7D3FF401BEE
:1018E000351AFEF7CFFF074626480068C0F3CB3015
:1018F00068430AE0701C09D0FEF7C4FFC01BA84271
:101900000FD275B10098B8B3401E0090206881686E
:1019100038EA010033D000214945EBD10020BDE871
:10192000F8832068416821F0E00141606068B0F50B
:10193000827F0BD1A068B0F5004F02D0B0F5806F68
:1019400004D12068016821F040010160A06AB0F56F
:10195000005F09D12068016821F40051016020680E
:10196000016841F400510160012084F85100002019
:1019700084F850000320D2E7FFE70025C6E70121E5
:10198000CAE700001C0000202DE9FE4F0E46074666
:10199000002A7DD0508841BA9088002940BA77D07B
:1019A00000287ED04FF4A074A7427AD24FF48C73F3
:1019B0009E4276D2083202927A18A24201D9C7F525
:1019C000A0718CB23118994201D9C6F58C7085B2DC
:1019D000002C66D0002D64D004FB05F0400001907F
:1019E00005F10F0160014FEA111A00F06BFB5FEA8D
:1019F000000956D07019401E83B23819401E82B2B9
:101A00003146384600F030F900224FF400512648A4
:101A1000FEF732FF4FF0000B584632E00146AAF1C4
:101A20000100804503D1484205EB001000E0102082
:101A300081B204FB01F04700002009E0019A0BEBA2
:101A40000001914206D2029A525C09F80020401C23
:101A5000B842F3D300260FE0B81BB0F5803F02D3A5
:101A60004FF6FF7000E080B2009009EB060000998D
:101A700000F070F900980644BE42EDD3BB4408F173
:101A8000010080465045C9D3484600F0C7FA00E03F
:101A900007E003B00122BDE8F04F51030248FEF712
:101AA000EBBEBDE8FE8F0000001802402DE9F05F9C
:101AB0000646002140F2171340F23F12084600F09C
:101AC000D3F8DFF864B04FF4005A0022514658466C
:101AD000FEF7D2FE4FF42058404600F0F3FA0024FF
:101AE000370A0546F6B24FF4A05900204FEA090123
:101AF00005F8107005EB4002401C80B25670884219
:101B0000F6D34146284600F025F9641CA4B2112CF6
:101B1000EBD3284600F082FA51465846BDE8F05F04
:101B20000122FEF7A9BE0000001802401FB51920CF
:101B3000FEF798FD414C002220212046FEF79CFE36
:101B40001920FEF78FFD012220212046FEF794FE8A
:101B50003220FEF787FD3A2000F0DCF8052000F087
:101B600041F9B22000F0D6F835A1D1E90001CDE964
:101B700000010521684600F0EDF8012000F0B2F800
:101B8000B72000F0C7F8352000F02CF9BB2000F09A
:101B9000C1F8192000F026F9C02000F0BBF82C2075
:101BA00000F020F9C22000F0B5F8012000F01AF989
:101BB000C32000F0AFF8122000F014F9C42000F0A8
:101BC000A9F8202000F00EF9C62000F0A3F80F209D
:101BD00000F008F9D02000F09DF8A42000F002F9F0
:101BE000A12000F0FFF8E02000F094F816A00FC844
:101BF0008DE80F000E21684600F0ACF8E12000F0FF
:101C000089F815A10FC98DE80F000E21684600F074
:101C1000A1F8202000F07EF8112000F07BF81320BE
:101C200000F078F8292000F075F83220FEF71AFD50
:101C300004B01F20BDE81040FFF738BF0018024075
:101C40000C0C003333000000D0040D11132B3F5453
:101C50004C180D0B1F230000D0040C11132C3F4413
:101C6000512F1F1F202300002DE9F843DFF870904B
:101C700015460E4607464FF400581C4600224146C2
:101C80004846FEF7F9FD2A2000F044F8380A8DF89E
:101C900000008DF80170280A8DF802008DF80350BD
:101CA0000421684600F056F82B2000F033F8300A83
:101CB0008DF800008DF80160200A8DF802008DF883
:101CC00003400421684600F045F82C2000F022F87B
:101CD00041464846BDE8F8430122FEF7CDBD00006D
:101CE0000018024010B50446362000F013F854B135
:101CF000012C0AD0022C0AD0032C0AD16020BDE8A6
:101D0000104000F06FB8C020F9E7A020F7E70020EE
:101D1000F5E710BD31B50D4D4FF4005400222146BA
:101D20002846FEF7A9FD0022E1102846FEF7A4FD93
:101D30004FF0FF33012269460548FFF79BFA012265
:101D400021462846FEF798FD38BD000000180240E5
:101D50007C0000202DE9F05F1F4F0C460646002254
:101D60004FF400513846FEF787FD012291023846B4
:101D7000FEF782FD4FF480394FF6FF7BDFF85C8081
:101D8000DFF85CA01EE04C4501D3584600E0204639
:101D900085B2B8F80000A0420BD82A463146104858
:101DA000FFF71CFBDAF8480090F835100129FBD149
:101DB00006E04FF0FF332A4631460948FFF75AFA4A
:101DC0002E44641B002CDED13846BDE8F05F0122B2
:101DD0005103FEF751BD0000001802400000002032
:101DE0007C00002031B50D4D4FF4005400222146F7
:101DF0002846FEF741FD012291022846FEF73CFDF0
:101E00004FF0FF33012269460548FFF733FA0122FC
:101E100021462846FEF730FD38BD0000001802407C
:101E20007C0000207047FEF72BBE000030B593B059
:101E300030216846FEF7FCF914210CA8FEF7F8F9EA
:101E40001D480025016841F080510160006800F0E4
:101E5000805011901948016841F480410160006888
:101E6000022400F48040119001200390102004907F
:101E7000009406940820CDE90750A020CDE909047C
:101E800004200B906846FEF781FF08B172B6FEE7AA
:101E90000CA90F2081E831004FF4A0500F904FF4AF
:101EA0008050109005210CA8FEF784FE002801D078
:101EB00072B6FEE713B030BD4038024000700040FB
:101EC0000248016841F470010160704788ED00E04C
:101ED00070B5044600680169E26821F4405111437D
:101EE00001612169A068E2690843616911430843FF
:101EF0002168CA6849F20C639A430243CA602068A9
:101F00004169A26921F4407111434161314920685E
:101F1000884202D03049884202D1FEF7F5FE01E046
:101F2000FEF7E2FEE2690023192164253226B2F5AC
:101F3000004F626828D0A0FB0101930F9200FEF7CA
:101F40003FF90146B0FBF5F06FF01802504301EB8A
:101F5000800006EB0010B0FBF5F000F0F002B1FBE2
:101F6000F5F002EB0012B1FBF5F06FF018035843E7
:101F700001EB800006EB0010B0FBF5F000F00F0065
:101F800021681044886070BDA0FB010192185B417C
:101F9000FEF716F90146B0FBF5F00201B1FBF5F0D2
:101FA0006FF01803584301EB800006EBC000B0FB54
:101FB000F5F000F0F80002EB4002B1FBF5F05843F9
:101FC00001EB800006EBC000B0FBF5F000F007006D
:101FD000D6E700000010014000140140FEE70907A9
:101FE000090E002804DB00F1E02080F8001470479F
:101FF00000F00F0000F1E02080F8141D704702E0AF
:1020000008C8121F08C1002AFAD170477047002083
:1020100001E001C1121F002AFBD1704710B5002852
:1020200021D0114B0022001F196803E0814203D820
:102030000A4649680029F9D152B11368841A9C42B2
:1020400004D1006818441060104602E0506000E0BF
:10205000186039B102680B1A934203D10B681A4415
:1020600002604968416010BD20000020FEF710FDAD
:10207000FFF7DCFEFFF7DAFAFFF758FBFFF794FAF9
:10208000FFF734FBFFF784FBFFF750FD4FF6FF70BF
:10209000FFF70CFD0021094A0846FFF775FC40F6E2
:1020A000B8342046FEF7DEFA0021054A0846FFF75D
:1020B0006BFC2046FEF7D6FAFEE700003021000850
:1020C00038790208F0B50B30154D20F007010024D7
:1020D000144A0FE003688B420BD38B4205D95E1A7A
:1020E00043184768C3E9006700E04368136002C013
:1020F00004E0021D10680028ECD12046002802D11F
:10210000286808B10020F0BD064A07481060074A59
:10211000121A22F00702C0E9002401202860D7E744
:102120002400002020000020840100208051002095
:102130001010014000F0011BB5967BEF528A52AAA5
:102140005AAA5AAA5AAA5AAA5AAA5AAA5AAA5AAA6F
:102150005AAA5AAA5AAA5AAA5AAA5AAA5AAA5AAA5F
:102160005AAA5AAA5AAA5AAA5AAA5AAA5AAA5AAA4F
:102170005AAA5AAA5AAA5AAA5AAA5AAA5AAA5AAA3F
:1023B000528A52698C51DEDBA5147BEF738F841136
:1023C000843284328432843284328432843284325D
:1023D000843284328432843284328432843284324D
:1023E000843284328432843284328432843284323D
:1023F000843284328432843284328432843284322D
:1026200084328432843284328432843284328C52D2
:1026300084115ACB7BEFCE79949284109494B5791F
:10264000B5BAB599B599B599B599B599B599B599F9
:10265000B599B599B599B599B599B599B599B5990A
:10266000B599B599B599B599B599B599B599B599FA
:10267000B599B599B599B599B599B599B599B599EA
:10268000B599B599B599B599B599B599B599B599DA
:1028A000B599B599B599B599B599B599B599BDDA6F
:1028B000AD786B4E7BCECE5994928C319CF6BDBBDD
:1028C000BDDCBDDBBDDBBDDBBDDBBDDBBDDBBDDB47
:1028D000BDDBBDDBBDDBBDDBBDDBBDDBBDDBBDDB38
:1028E000BDDBBDDBBDDBBDDBBDDBBDDBBDDBBDDB28
:1028F000BDDBBDDBBDDBBDDBBDDBBDDBBDDBBDDB18
:10290000BDDBBDDBBDDBBDDBBDDBBDDBBDDBBDDB07
:102B2000BDDBBDDBBDDBBDDBBDDBBDDBBDDBC5FCBC
:102B3000B59A738F7BEFCE5994928C519CF6B5BBAE
:102B4000BDDCBDBBBDBBBDBBBDBBBDBBBDBBBDBBA4
:102B5000BDBBBDBBBDBBBDBBBDBBBDBBBDBBBDBBB5
:102B6000BDBBBDBBBDBBBDBBBDBBBDBBBDBBBDBBA5
:102B7000BDBBBDBBBDBBBDBBBDBBBDBBBDBBBDBB95
:102B8000BDBBBDBBBDBBBDBBBDBBBDBBBDBBBDBB85
:102DA000BDBBBDBBBDBBBDBBBDBBBDBBBDBBBDFC22
:102DB000B59A738F83EFCE5994928C519CD6B5BB44
:102DC000BDDCB5BBB5BBB5BBB5BBB5BBB5BBB5BB5A
:102DD000B5BBB5BBB5BBB5BBB5BBB5BBB5BBB5BB73
:102DE000B5BBB5BBB5BBB5BBB5BBB5BBB5BBB5BB63
:102DF000B5BBB5BBB5BBB5BBB5BBB5BBB5BBB5BB53
:102E0000B5BBB5BBB5BBB5BBB5BBB5BBB5BBB5BB42
:10302000B5BBB5BBB5BBB5BBB5BBB5BBB5BBBDFCD7
:10303000B59A738F83EFCE5994928C519CD6B5BBC1
:10304000BDDCB5BBB5BBB5BBB5BBB5BBB5BBB5BBD7
:10305000B5BBB5BBB5BBB5BBB5BBB5BBB5BBB5BBF0
:10306000B5BBB5BBB5BBB5BBB5BBB5BBB5BBB5BBE0
:10307000B5BBB5BBB5BBB5BBB5BBB5BBB5BBB5BBD0
:10308000B5BBB5BBB5BBB5BBB5BBB5BBB5BBB5BBC0
:1032A000B5BBB5BBB5BBB5BBB5BBB5BBB5BBBDFC55
:1032B000B59A738F83EFCE5994928C519CD6B5BB3F
:1032C000BDDCB5BBB5BBB5BBB5BBB5BBB5BBB5BB55
:1032D000B5BBB5BBB5BBB5BBB5BBB5BBB5BBB5BB6E
:1032E000B5BBB5BBB5BBB5BBB5BBB5BBB5BBB5BB5E
:1032F000B5BBB5BBB5BBB5BBB5BBB5BBB5BBB5BB4E
:10330000B5BBB5BBB5BBB5BBB5BBB5BBB5BBB5BB3D
:10352000B5BBB5BBB5BBB5BBB5BBB5BBB5BBBDFCD2
:10353000B59A738F83EFCE5994928C519CD6B5BBBC
:10354000BDDCB5BBB5BBB5BBB5BBB5BBB5BBB5BBD2
:10355000B5BBB5BBB5BBB5BBB5BBB5BBB5BBB5BBEB
:10356000B5BBB5BBB5BBB5BBB5BBB5BBB5BBB5BBDB
:10357000B5BBB5BBB5BBB5BBB5BBB5BBB5BBB5BBCB
:10358000B5BBB5BBB5BBB5BBB5BBB5BBB5BBB5BBBB
:1037A000B5BBB5BBB5BBB5BBB5BBB5BBB5BBBDFC50
:1037B000B59A738F83EFCE5994928C519CD6B5BB3A
:1037C000BDDCB5BBB5BBB5BBB5BBB5BBB5BBB5BB50
:1037D000B5BBB5BBB5BBB5BBB5BBB5BBB5BBB5BB69
:1037E000B5BBB5BBB5BBB5BBB5BBB5BBB5BBB5BB59
:1037F000B5BBB5BBB5BBB5BBB5BBB5BBB5BBB5BB49
:10380000B5BBB5BBB5BBB5BBB5BBB5BBB5BBB5BB38
:103A2000B5BBB5BBB5BBB5BBB5BBB5BBB5BBBDFCCD
:103A3000B59A738F83EFCE5994928C519CD6B5BBB7
:103A4000BDDCB5BBB5BBB5BBB5BBB5BBB5BBB5BBCD
:103A5000B5BBB5BBB5BBB5BBB5BBB5BBB5BBB5BBE6
:103A6000B5BBB5BBB5BBB5BBB5BBB5BBB5BBB5BBD6
:103A7000B5BBB5BBB5BBB5BBB5BBB5BBB5BBB5BBC6
:103A8000B5BBB5BBB5BBB5BBB5BBB5BBB5BBB5BBB6
:103CA000B5BBB5BBB5BBB5BBB5BBB5BBB5BBBDFC4B
:103CB000B59A738F83EFCE5994928C519CD6B5BB35
:103CC000BDDCB5BBB5BBB5BBB5BBB5BBB5BBB5BB4B
:103CD000B5BBB5BBB5BBB5BBB5BBB5BBB5BBB5BB64
:103CE000B5BBB5BBB5BBB5BBB5BBB5BBB5BBB5BB54
:103CF000B5BBB5BBB5BBB5BBB5BBB5BBB5BBB5BB44
:103D0000B5BBB5BBB5BBB5BBB5BBB5BBB5BBB5BB33
:103F2000B5BBB5BBB5BBB5BBB5BBB5BBB5BBBDFCC8
:103F3000B59A738F83EFCE5994928C519CD6B5BBB2
:103F4000BDDCB5BBB5BBB5BBB5BBB5BBB5BBB5BBC8
:103F5000B5BBB5BBB5BBB5BBB5BBB5BBB5BBB5BBE1
:103F6000B5BBB5BBB5BBB5BBB5BBB5BBB5BBB5BBD1
:103F7000B5BBB5BBB5BBB5BBB5BBB5BBB5BBB5BBC1
:103F8000B5BBB5BBB5BBB5BBB5BBB5BBB5BBB5BBB1
:1041A000B5BBB5BBB5BBB5BBB5BBB5BBB5BBBDFC46
:1041B000B59A738F83EFCE5994928C519CD6B5BB30
:1041C000BDDCB5BBB5BBB5BBB5BBB5BBB5BBB5BB46
:1041D000B5BBB5BBB5BBB5BBB5BBB5BBB5BBB5BB5F
:1041E000B5BBB5BBB5BBB5BBB5BBB5BBB5BBB5BB4F
:1041F000B5BBB5BBB5BBB5BBB5BBB5BBB5BBB5BB3F
:10420000B5BBB5BBB5BBB5BBB5BBB5BBB5BBB5BB2E
:10442000B5BBB5BBB5BBB5BBB5BBB5BBB5BBBDFCC3
:10443000B59A738F83EFCE5994928C519CD6B5BBAD
:10444000BDDCB5BBB5BBB5BBB5BBB5BBB5BBB5BBC3
:10445000B5BBB5BBB5BBB5BBB5BBB5BBB5BBB5BBDC
:10446000B5BBB5BBB5BBB5BBB5BBB5BBB5BBB5BBCC
:10447000B5BBB5BBB5BBB5BBB5BBB5BBB5BBB5BBBC
:10448000B5BBB5BBB5BBB5BBB5BBB5BBB5BBB5BBAC
:1046A000B5BBB5BBB5BBB5BBB5BBB5BBB5BBBDFC41
:1046B000B59A738F83EFCE5994928C519CD6B5BB2B
:1046C000BDDCB5BBB5BBB5BBB5BBB5BBB5BBB5BB41
:1046D000B5BBB5BBB5BBB5BBB5BBB5BBB5BBB5BB5A
:1046E000B5BBB5BBB5BBB5BBB5BBB5BBB5BBB5BB4A
:1046F000B5BBB5BBB5BBB5BBB5BBB5BBB5BBB5BB3A
:10470000B5BBB5BBB5BBB5BBB5BBB5BBB5BBB5BB29
:10492000B5BBB5BBB5BBB5BBB5BBB5BBB5BBBDFCBE
:10493000B59A738F83EFCE5994928C519CD6B5BBA8
:10494000BDDCB5BBB5BBB5BBB5BBB5BBB5BBB5BBBE
:10495000B5BBB5BBB5BBB5BBB5BBB5BBB5BBB5BBD7
:10496000B5BBB5BBB5BBB5BBB5BBB5BBB5BBB5BBC7
:10497000B5BBB5BBB5BBB5BBB5BBB5BBB5BBB5BBB7
:10498000B5BBB5BBB5BBB5BBB5BBB5BBB5BBB5BBA7
:104BA000B5BBB5BBB5BBB5BBB5BBB5BBB5BBBDFC3C
:104BB000B59A738F83EFCE5994928C519CD6B5BB26
:104BC000BDDCB5BBB5BBB5BBB5BBB5BBB5BBB5BB3C
:104BD000B5BBB5BBB5BBB5BBB5BBB5BBB5BBB5BB55
:104BE000B5BBB5BBB5BBB5BBB5BBB5BBB5BBB5BB45
:104BF000B5BBB5BBB5BBB5BBB5BBB5BBB5BBB5BB35
:104C0000B5BBB5BBB5BBB5BBB5BBB5BBB5BBB5BB24
:104E2000B5BBB5BBB5BBB5BBB5BBB5BBB5BBBDFCB9
:104E3000B59A738F83EFCE5994928C519CD6B5BBA3
:104E4000BDDCB5BBB5BBB5BBB5BBB5BBB5BBB5BBB9
:104E5000B5BBB5BBB5BBB5BBB5BBB5BBB5BBB5BBD2
:104E6000B5BBB5BBB5BBB5BBB5BBB5BBB5BBB5BBC2
:104E7000B5BBB5BBB5BBB5BBB5BBB5BBB5BBB5BBB2
:104E8000B5BBB5BBB5BBB5BBB5BBB5BBB5BBB5BBA2
:1050A000B5BBB5BBB5BBB5BBB5BBB5BBB5BBBDFC37
:1050B000B59A738F83EFCE5994928C519CD6B5BB21
:1050C000BDDCB5BBB5BBB5BBB5BBB5BBB5BBB5BB37
:1050D000B5BBB5BBB5BBB5BBB5BBB5BBB5BBB5BB50
:1050E000B5BBB5BBB5BBB5BBB5BBB5BBB5BBB5BB40
:1050F000B5BBB5BBB5BBB5BBB5BBB5BBB5BBB5BB30
:10510000B5BBB5BBB5BBB5BBB5BBB5BBB5BBB5BB1F
:10532000B5BBB5BBB5BBB5BBB5BBB5BBB5BBBDFCB4
:10533000B59A738F83EFCE5994928C519CD6B5BB9E
:10534000BDDCB5BBB5BBB5BBB5BBB5BBB5BBB5BBB4
:10535000B5BBB5BBB5BBB5BBB5BBB5BBB5BBB5BBCD
:10536000B5BBB5BBB5BBB5BBB5BBB5BBB5BBB5BBBD
:10537000B5BBB5BBB5BBB5BBB5BBB5BBB5BBB5BBAD
:10538000B5BBB5BBB5BBB5BBB5BBB5BBB5BBB5BB9D
:1055A000B5BBB5BBB5BBB5BBB5BBB5BBB5BBBDFC32
:1055B000B59A738F83EFCE5994928C519CD6B5BB1C
:1055C000BDDCB5BBB5BBB5BBB5BBB5BBB5BBB5BB32
:1055D000B5BBB5BBB5BBB5BBB5BBB5BBB5BBB5BB4B
:1055E000B5BBB5BBB5BBB5BBB5BBB5BBB5BBB5BB3B
:1055F000B5BBB5BBB5BBB5BBB5BBB5BBB5BBB5BB2B
:10560000B5BBB5BBB5BBB5BBB5BBB5BBB5BBB5BB1A
:10582000B5BBB5BBB5BBB5BBB5BBB5BBB5BBBDFCAF
:10583000B59A738F83EFCE5994928C519CD6B5BB99
:10584000BDDCB5BBB5BBB5BBB5BBB5BBB5BBB5BBAF
:10585000B5BBB5BBB5BBB5BBB5BBB5BBB5BBB5BBC8
:10586000B5BBB5BBB5BBB5BBB5BBB5BBB5BBB5BBB8
:10587000B5BBB5BBB5BBB5BBB5BBB5BBB5BBB5BBA8
:10588000B5BBB5BBB5BBB5BBB5BBB5BBB5BBB5BB98
:105AA000B5BBB5BBB5BBB5BBB5BBB5BBB5BBBDFC2D
:105AB000B59A738F83EFCE5994928C519CD6B5BB17
:105AC000BDDCB5BBB5BBB5BBB5BBB5BBB5BBB5BB2D
:105AD000B5BBB5BBB5BBB5BBB5BBB5BBB5BBB5BB46
:105AE000B5BBB5BBB5BBB5BBB5BBB5BBB5BBB5BB36
:105AF000B5BBB5BBB5BBB5BBB5BBB5BBB5BBB5BB26
:105B0000B5BBB5BBB5BBB5BBB5BBB5BBB5BBB5BB15
:105D2000B5BBB5BBB5BBB5BBB5BBB5BBB5BBBDFCAA
:105D3000B59A738F83EFCE5994928C519CD6B5BB94
:105D4000BDDCB5BBB5BBB5BBB5BBB5BBB5BBB5BBAA
:105D5000B5BBB5BBB5BBB5BBB5BBB5BBB5BBB5BBC3
:105D6000B5BBB5BBB5BBB5BBB5BBB5BBB5BBB5BBB3
:105D7000B5BBB5BBB5BBB5BBB5BBB5BBB5BBB5BBA3
:105D8000B5BBB5BBB5BBB5BBB5BBB5BBB5BBB5BB93
:105FA000B5BBB5BBB5BBB5BBB5BBB5BBB5BBBDFC28
:105FB000B59A738F83EFCE5994928C519CD6B5BB12
:105FC000BDDCB5BBB5BBB5BBB5BBB5BBB5BBB5BB28
:105FD000B5BBB5BBB5BBB5BBB5BBB5BBB5BBB5BB41
:105FE000B5BBB5BBB5BBB5BBB5BBB5BBB5BBB5BB31
:105FF000B5BBB5BBB5BBB5BBB5BBB5BBB5BBB5BB21
:10600000B5BBB5BBB5BBB5BBB5BBB5BBB5BBB5BB10
:10622000B5BBB5BBB5BBB5BBB5BBB5BBB5BBBDFCA5
:10623000B59A738F83EFCE5994928C519CD6B5BB8F
:10624000BDDCB5BBB5BBB5BBB5BBB5BBB5BBB5BBA5
:10625000B5BBB5BBB5BBB5BBB5BBB5BBB5BBB5BBBE
:10626000B5BBB5BBB5BBB5BBB5BBB5BBB5BBB5BBAE
:10627000B5BBB5BBB5BBB5BBB5BBB5BBB5BBB5BB9E
:10628000B5BBB5BBB5BBB5BBB5BBB5BBB5BBB5BB8E
:1064A000B5BBB5BBB5BBB5BBB5BBB5BBB5BBBDFC23
:1064B000B59A738F83EFCE5994928C519CD6B5BB0D
:1064C000BDDCB5BBB5BBB5BBB5BBB5BBB5BBB5BB23
:1064D000B5BBB5BBB5BBB5BBB5BBB5BBB5BBB5BB3C
:1064E000B5BBB5BBB5BBB5BBB5BBB5BBB5BBB5BB2C
:1064F000B5BBB5BBB5BBB5BBB5BBB5BBB5BBB5BB1C
:10650000B5BBB5BBB5BBB5BBB5BBB5BBB5BBB5BB0B
:10672000B5BBB5BBB5BBB5BBB5BBB5BBB5BBBDFCA0
:10673000B59A738F83EFCE5994928C519CD6B5BB8A
:10674000BDDCB5BBB5BBB5BBB5BBB5BBB5BBB5BBA0
:10675000B5BBB5BBB5BBB5BBB5BBB5BBB5BBB5BBB9
:10676000B5BBB5BBB5BBB5BBB5BBB5BBB5BBB5BBA9
:10677000B5BBB5BBB5BBB5BBB5BBB5BBB5BBB5BB99
:10678000B5BBB5BBB5BBB5BBB5BBB5BBB5BBB5BB89
:1069A000B5BBB5BBB5BBB5BBB5BBB5BBB5BBBDFC1E
:1069B000B59A738F83EFCE5994928C519CD6B5BB08
:1069C000BDDCB5BBB5BBB5BBB5BBB5BBB5BBB5BB1E
:1069D000B5BBB5BBB5BBB5BBB5BBB5BBB5BBB5BB37
:1069E000B5BBB5BBB5BBB5BBB5BBB5BBB5BBB5BB27
:1069F000B5BBB5BBB5BBB5BBB5BBB5BBB5BBB5BB17
:106A0000B5BBB5BBB5BBB5BBB5BBB5BBB5BBB5BB06
:106C2000B5BBB5BBB5BBB5BBB5BBB5BBB5BBBDFC9B
:106C3000B59A738F83EFCE5994928C519CD6B5BB85
:106C4000BDDCB5BBB5BBB5BBB5BBB5BBB5BBB5BB9B
:106C5000B5BBB5BBB5BBB5BBB5BBB5BBB5BBB5BBB4
:106C6000B5BBB5BBB5BBB5BBB5BBB5BBB5BBB5BBA4
:106C7000B5BBB5BBB5BBB5BBB5BBB5BBB5BBB5BB94
:106C8000B5BBB5BBB5BBB5BBB5BBB5BBB5BBB5BB84
:106EA000B5BBB5BBB5BBB5BBB5BBB5BBB5BBBDFC19
:106EB000B59A738F83EFCE5994928C519CD6B5BB03
:106EC000BDDCB5BBB5BBB5BBB5BBB5BBB5BBB5BB19
:106ED000B5BBB5BBB5BBB5BBB5BBB5BBB5BBB5BB32
:106EE000B5BBB5BBB5BBB5BBB5BBB5BBB5BBB5BB22
:106EF000B5BBB5BBB5BBB5BBB5BBB5BBB5BBB5BB12
:106F0000B5BBB5BBB5BBB5BBB5BBB5BBB5BBB5BB01
:10712000B5BBB5BBB5BBB5BBB5BBB5BBB5BBBDFC96
:10713000B59A738F83EFCE5994928C519CD6B5BB80
:10714000BDDCB5BBB5BBB5BBB5BBB5BBB5BBB5BB96
:10715000B5BBB5BBB5BBB5BBB5BBB5BBB5BBB5BBAF
:10716000B5BBB5BBB5BBB5BBB5BBB5BBB5BBB5BB9F
:10717000B5BBB5BBB5BBB5BBB5BBB5BBB5BBB5BB8F
:10718000B5BBB5BBB5BBB5BBB5BBB5BBB5BBB5BB7F
:1073A000B5BBB5BBB5BBB5BBB5BBB5BBB5BBBDFC14
:1073B000B59A738F83EFCE5994928C519CD6B5BBFE
:1073C000BDDCB5BBB5BBB5BBB5BBB5BBB5BBB5BB14
:1073D000B5BBB5BBB5BBB5BBB5BBB5BBB5BBB5BB2D
:1073E000B5BBB5BBB5BBB5BBB5BBB5BBB5BBB5BB1D
:1073F000B5BBB5BBB5BBB5BBB5BBB5BBB5BBB5BB0D
:10740000B5BBB5BBB5BBB5BBB5BBB5BBB5BBB5BBFC
:10762000B5BBB5BBB5BBB5BBB5BBB5BBB5BBBDFC91
:10763000B59A738F83EFCE5994928C519CD6B5BB7B
:10764000BDDCB5BBB5BBB5BBB5BBB5BBB5BBB5BB91
:10765000B5BBB5BBB5BBB5BBB5BBB5BBB5BBB5BBAA
:10766000B5BBB5BBB5BBB5BBB5BBB5BBBDBBBDDB6A
:10767000BDDBBDDBBDDBBDDBBDDBBDDBBDDBBDDB4A
:10768000BDDBBDDBBDDBBDDBBDDBBDDBBDDBBDDB3A
:10769000BDDBBDDBBDDBBDDBBDDBBDDBBDDBBDDB2A
:1076A000BDDBBDDBBDDBBDDBBDDBBDDBBDDBBDDB1A
:1076B000BDDBBDDBBDDBBDDBBDDBBDDBBDDBBDDB0A
:1076C000BDDBBDDBBDDBBDDBBDDBBDDBBDDBBDDBFA
:1076D000BDDBBDDBBDDBBDDBBDDBBDDBBDDBBDDBEA
:1076E000BDDBBDDBBDDBBDDBBDDBBDDBBDDBBDDBDA
:1076F000BDDBBDDBBDDBBDDBBDDBBDDBBDDBBDDCC9
:10770000BDDCBDDCBDDCBDDCBDDCBDDCBDDCBDDCB1
:10771000BDDCBDDCBDDCBDDCBDDCBDDCBDDCBDDCA1
:10772000BDDCBDDCBDDCBDDCBDDCBDDCBDDCBDDC91
:10773000BDDCBDDCBDDCBDDCBDDCBDDCBDDCBDDC81
:10774000BDDCBDDCBDDCBDDCBDDCBDDCBDDCBDDB72
:10775000B5BBB5BBB5BBB5BBB5BBB5BBB5BBB5BBA9
:10776000B5BBB5BBB5BBB5BBB5BBB5BBB5BBB5BB99
:10777000B5BBB5BBB5BBB5BBB5BBB5BBB5BBB5BB89
:10778000B5BBB5BBB5BBB5BBB5BBB5BBB5BBB5BB79
:10779000B5BBB5BBBDBBBDDBBDDBBDDBBDDBBDDB99
:1077A000BDDBBDDBBDDBBDDBBDDBBDDBBDDBBDDB19
:1077B000BDDBBDDBBDDBBDDBBDDBBDDBBDDBBDDB09
:1077C000BDDBBDDBBDDBBDDBBDDBBDDBBDDBBDDBF9
:1077D000BDDBBDDBBDDBBDDBBDDBBDDBBDDBBDDBE9
:1077E000BDDBBDDBBDDBBDDBBDDBBDDBBDDBBDDBD9
:1077F000BDDBBDDBBDDBBDDBBDDBBDDBBDDBBDDBC9
:10780000BDDBBDDBBDDBBDDBBDDBBDDBBDDBBDDBB8
:10781000BDDBBDDBBDDBBDDBBDDBBDDBBDDBBDDBA8
:10782000BDDBBDDBBDDBBDDCBDDCBDFCBDDCBDDC73
:10783000BDDCBDDCBDDCBDDCBDDCBDDCBDDCBDDC80
:10784000BDDCBDDCBDDCBDDCBDDCBDDCBDDCBDDC70
:10785000BDDCBDDCBDDCBDDCBDDCBDDCBDDCBDDC60
:10786000BDDCBDDCBDDCBDDCBDDCBDDCBDDCBDDC50
:10787000BDDCBDDCBDFCBDDCBDDBB5BBB5BBB5BB9C
:10788000B5BBB5BBB5BBB5BBB5BBB5BBB5BBB5BB78
:10789000B5BBB5BBB5BBB5BBB5BBB5BBB5BBB5BB68
:1078A000B5BBB5BBB5BBB5BBB5BBB5BBB5BBBDFC0F
:1078B000B59A738F83EFCE5994928C519CD6B5BBF9
:1078C000BDDCB5BBB5BBB5BBB5BBB5BBB5BBB5BB0F
:1078D000B5BBB5BBB5BBB5BBB5BBB5BBB5BBB5BB28
:1078E000B5BBB5BBB5BBB5BBB5BBB5BBB5BBB5BB18
:1078F000B5BBB5BBB5BBB5BBB5BBB5BBB5BBB5BB08
:10790000B5BBB5BBB5BBB5BBB5BBB5BBB5BBB5BBF7
:10791000B5BBB5BBB5BBB5BBB5BBB5BBB5BBB5BBE7
:10792000B5BBB5BBB5BBB5BBB5BBB5BBB5BBB5BBD7
:10793000B5BBB5BBB5BBB5BBB5BBB5BBB5BBB5BBC7
:10794000B5BBB5BBB5BBB5BBB5BBB5BBB5BBB5BBB7
:10795000B5BBB5BBB5BBB5BBB5BBB5BBB5BBB5BBA7
:10796000B5BBB5BBB5BBB5BBB5BBB5BBB5BBB5BB97
:10797000B5BBB5BBB5BBB5BBB5BBB5BBB5BBB5BB87
:10798000B5BBB5BBB5BBB5BBB5BBB5BBB5BBB5BB77
:10799000B5BBB5BBB5BBB5BBB5BBB5BBB5BBB5BB67
:1079A000B5BBB5BBB5BBB5BBB5BBB5BBB5BBB5BB57
:1079B000B5BBB5BBB5BBB5BBB5BBB5BBB5BBB5BB47
:1079C000B5BBB5BBB5BBB5BBB5BBB5BBB5BBB5BB37
:1079D000B5BBB5BBB5BBB5BBB5BBB5BBB5BBB5BB27
:1079E000B5BBB5BBB5BBB5BBB5BBB5BBB5BBB5BB17
:1079F000B5BBB5BBB5BBB5BBB5BBB5BBB5BBB5BB07
:107A0000B5BBB5BBB5BBB5BBB5BBB5BBB5BBB5BBF6
:107A1000B5BBB5BBB5BBB5BBB5BBB5BBB5BBB5BBE6
:107A2000B5BBB5BBB5BBB5BBB5BBB5BBB5BBB5BBD6
:107A3000B5BBB5BBB5BBB5BBB5BBB5BBB5BBB5BBC6
:107A4000B5BBB5BBB5BBB5BBB5BBB5BBB5BBB5BBB6
:107A5000B5BBB5BBB5BBB5BBB5BBB5BBB5BBB5BBA6
:107A6000B5BBB5BBB5BBB5BBB5BBB5BBB5BBB5BB96
:107A7000B5BBB5BBB5BBB5BBB5BBB5BBB5BBB5BB86
:107A8000B5BBB5BBB5BBB5BBB5BBB5BBB5BBB5BB76
:107A9000B5BBB5BBB5BBB5BBB5BBB5BBB5BBB5BB66
:107AA000B5BBB5BBB5BBB5BBB5BBB59AB59AB59AB9
:107AB000B59AB59AB59AB59AB59AB59AB59AB59A4E
:107AC000B59AB59AB59AB59AB59AB59AB59AB59A3E
:107AD000B59AB59AB59AB59AB59AB59AB59AB59A2E
:107AE000B59AB59AB59AB59AB59AB59AB59AB59A1E
:107AF000B59AB59AB59AB59BB5BBB5BBB5BBB5BB89
:107B0000B5BBB5BBB5BBB5BBB5BBB5BBB5BBB5BBF5
:107B1000B5BBB5BBB5BBB5BBB5BBB5BBB5BBB5BBE5
:107B2000B5BBB5BBB5BBB5BBB5BBB5BBB5BBBDFC8C
:107B3000B59A738F83EFCE5994928C519CD6B5BB76
:107B4000BDDCB5BBB5BBB5BBB5BBB5BBB5BBB5BB8C
:107B5000B5BBB5BBB5BBB5BBB5BBB5BBB5BBB5BBA5
:107B6000B5BBB5BBB5BBB5BBB5BBB5BAAD589CF6DF
:107B70009CD59CD59CD59CD59CD59CD59CD59CD57D
:107B80009CD59CD59CD59CD59CD59CD59CD59CD56D
:107B90009CD59CD59CD59CD59CD59CD59CD59CD55D
:107BA0009CD59CD59CD59CD59CD59CD59CD59CD54D
:107BB0009CD59CD59CD59CD59CD59CD59CD59CD53D
:107BC0009CD59CD59CD59CD59CD59CD59CD59CD52D
:107BD0009CD59CD59CD59CD59CD59CD59CD59CD51D
:107BE0009CD59CD59CD59CD59CD59CD59CD59CD50D
:107BF0009CD59CD59CD59CD59CD59CD69CD5949445
:107C000094739C949CB49CB49CB49CB49CB49CB45D
:107C10009CB49CB49CB49CB49CB49CB49CB49CB4E4
:107C20009CB49CB49CB49CB49CB49CB49CB49CB4D4
:107C30009CB49CB49CB49CB49CB49CB49CB49CB4C4
:107C40009CB49CB49CB49CB49CB49CB49CB4A51649
:107C5000B59AB5BBBDBBB5BBB5BBB5BBB5BBB5BBBD
:107C6000B5BBB5BBB5BBB5BBB5BBB5BBB5BBB5BB94
:107C7000B5BBB5BBB5BBB5BBB5BBB5BBB5BBB5BB84
:107C8000B5BBB5BBB5BBB5BBB5BBB5BBB5BBB5BB74
:107C9000B5BBB5BBAD79A5169CD59CD59CD59CD55F
:107CA0009CD59CD59CD59CD59CD59CD59CD59CD54C
:107CB0009CD59CD59CD59CD59CD59CD59CD59CD53C
:107CC0009CD59CD59CD59CD59CD59CD59CD59CD52C
:107CD0009CD59CD59CD59CD59CD59CD59CD59CD51C
:107CE0009CD59CD59CD59CD59CD59CD59CD59CD50C
:107CF0009CD59CD59CD59CD59CD59CD59CD59CD5FC
:107D00009CD59CD59CD59CD59CD59CD59CD59CD5EB
:107D10009CD59CD59CD59CD59CD59CD59CD59CD5DB
:107D20009CD59CD59CD5949484127BB073B073D1B0
:107D300073D173D173D173D173D173D173D173D123
:107D400073D173D173D173D173D173D173D173D113
:107D500073D173D173D173D173D173D173D173D103
:107D600073D173D173D173D173D173D173D173D1F3
:107D700073D173D173B08412A517B59ABDBBB5BBCF
:107D8000B5BBB5BBB5BBB5BBB5BBB5BBB5BBB5BB73
:107D9000B5BBB5BBB5BBB5BBB5BBB5BBB5BBB5BB63
:107DA000B5BBB5BBB5BBB5BBB5BBB5BBB5BBBDFC0A
:107DB000B59A738F83EFCE5994928C519CD6B5BBF4
:107DC000BDDCB5BBB5BBB5BBB5BBB5BBB5BBB5BB0A
:107DD000B5BBB5BBB5BBB5BBB5BBB5BBB5BBB5BB23
:107DE000B5BBB5BBB5BBB5BBBDBBB59A8C53736E4C
:107DF00084108C728C518C518C518C518C518C51C3
:107E00008C518C518C518C518C518C518C518C518A
:107E10008C518C518C518C518C518C518C518C517A
:107E20008C518C518C518C518C518C518C518C516A
:107E30008C518C518C518C518C518C518C518C515A
:107E40008C518C518C518C518C518C518C518C514A
:107E50008C518C518C518C518C518C518C518C513A
:107E60008C518C518C518C518C518C518C518C512A
:107E70008C518C518C518C518C518C72843162ECB0
:107E80005AAA7B6D8BAD8BCE8BCE8BCE8BCE8BAD32
:107E90008BAD8BCD8BCE8BCE8BCE8BCE8BAD8BAD7E
:107EA0008BCD8BCE8BCE8BCE8BCE8BCE8BCE8BCE0B
:107EB0008BCE8BCE8BCE8BCE8BCE8BCE8BCE8BCEFA
:107EC0008BCE8BCE8BCE8BCE8BCE8BAD732B7BD0D4
:107ED000AD58BDDBBDBBB5BBB5BBB5BBB5BBB5BB5D
:107EE000B5BBB5BBB5BBB5BBB5BBB5BBB5BBB5BB12
:107EF000B5BBB5BBB5BBB5BBB5BBB5BBB5BBB5BB02
:107F0000B5BBB5BBB5BBB5BBB5BBB5BBB5BBB5BBF1
:107F1000B5BBB59A9494738E84108C728C518C512D
:107F20008C518C518C518C518C518C518C518C5169
:107F30008C518C518C518C518C518C518C518C5159
:107F40008C518C518C518C518C518C518C518C5149
:107F50008C518C518C518C518C518C518C518C5139
:107F60008C518C518C518C518C518C518C518C5129
:107F70008C518C518C518C518C518C518C518C5119
:107F80008C518C518C518C518C518C518C518C5109
:107F90008C518C518C518C518C518C518C518C51F9
:107FA0008C518C728C51630C4A28628972C97AE9AF
:107FB0007AE97AE97AE97AC97AC97AC97AE97AE909
:107FC0007AE97AE97AC97AC97AC97AE97AE97AE9F9
:107FD0007AE97AE97AE97AE97AE97AE97AE97AE989
:107FE0007AE97AE97AE97AE97AE97AE97AE97AE979
:107FF0007AE97AE96AA86B0B8C73AD79BDDCB5BB05
:10800000B5BBB5BBB5BBB5BBB5BBB5BBB5BBB5BBF0
:10801000B5BBB5BBB5BBB5BBB5BBB5BBB5BBB5BBE0
:10802000B5BBB5BBB5BBB5BBB5BBB5BBB5BBBDFC87
:10803000B59A738F83EFCE5994928C519CD6B5BB71
:10804000BDDCB5BBB5BBB5BBB5BBB5BBB5BBB5BB87
:10805000B5BBB5BBB5BBB5BBB5BBB5BBB5BBB5BBA0
:10806000B5BBB5BBB5BBBDBBBDDBB579736F5AAA9C
:108070009CD2B596AD55AD55AD55AD55AD55AD553B
:10808000AD55AD55AD55AD55AD55AD55AD55AD55E0
:10809000AD75AD75B5B6B596AD75AD55AD55AD55BE
:1080A000AD55AD55AD55AD75B596B5B6B5B6B5B61C
:1080B000B5B6B596B596B5B6B5B6B5B6B5B6B5B6A8
:1080C000B5B6B5B6B596AD75AD55AD55AD55AD5565
:1080D000AD55AD55AD75B596B5B6AD95AD75AD555E
:1080E000AD55AD55AD55AD55AD55AD55AD55AD5580
:1080F000AD55AD55AD55AD55AD55B596A5144A69BF
:1081000049C68B09A349A348A349A348A328A34967
:10811000AB69A348A328A348A349A348A349AB69D3
:10812000A348A328A348A349A349A348A348AB490C
:10813000AB69AB69AB69AB69AB69AB69AB69AB699F
:10814000AB69AB69AB69AB48AB48A328622662EC6C
:10815000A517BDDBBDBBB5BBB5BBB5BBB5BBB5BB23
:10816000B5BBB5BBB5BBB5BBB5BBB5BBB5BBB5BB8F
:10817000B5BBB5BBB5BBB5BBB5BBB5BBB5BBB5BB7F
:10818000B5BBB5BBB5BBB5BBB5BBB5BBB5BBBDBB67
:10819000BDBBB59A7BD052AA9491B596AD55AD555D
:1081A000AD55AD55AD55AD55AD55AD55AD55AD55BF
:1081B000AD55AD75AD75AD75B596B596AD75AD559D
:1081C000AD55AD55AD55AD55AD55AD55AD55AD559F
:1081D000AD55AD75AD96AD95AD75AD75AD75B59645
:1081E000B596AD75AD75AD75B596AD75AD75AD554D
:1081F000AD55AD55AD55AD55AD55AD55AD75B59606
:10820000B5B6B596AD75AD55AD55AD55AD55AD558C
:10821000AD55AD55AD55AD55AD55AD55AD55AD554E
:10822000AD55B596A555528A316582E8BB47CB4618
:10823000CB26CB26CB26CB46CB46CB46CB26CB2656
:10824000C326C326CB46CB46CB46CB26CB26C3265E
:10825000C326CB26CB26CB46D346D346D346D346DE
:10826000D346D346D346D346D346D346D346CB464E
:10827000CB26CB26A3077B4B8432AD59BDDCBDBBDF
:10828000B5BBB5BBB5BBB5BBB5BBB5BBB5BBB5BB6E
:10829000B5BBB5BBB5BBB5BBB5BBB5BBB5BBB5BB5E
:1082A000B5BBB5BBB5BBB5BBB5BBB5BBB5BBBDFC05
:1082B000B59A738F83EFCE5994928C519CD6B5BBEF
:1082C000BDDCB5BBB5BBB5BBB5BBB5BBB5BBB5BB05
:1082D000B5BBB5BBB5BBB5BBB5BBB5BBB5BBB5BB1E
:1082E000B5BBB5BBB5BBBDBBBDBBAD79738F738E25
:1082F000D6BAEF7DEF7DEF7DEF7DEF7DEF7DEF7DFA
:10830000EF7DEF7DEF7DEF7DEF7DEF7DEF7DEF7D0D
:10831000EF7DEF7DF79EF79EEF7DEF7DEF7DEF7DAB
:10832000EF7DEF7DEF7DEF7DF79EF79EF79EF79E49
:10833000F79EF79EF79EF79EF79EF79EF79EF79E95
:10834000F79EF79EF79EEF7DEF7DEF7DEF7DEF7D52
:10835000EF7DEF7DEF7DF79EF79EEF9DEF7DEF7D4B
:10836000EF7DEF7DEF7DEF7DEF7DEF7DEF7DEF7DAD
:10837000EF7DEF7DEF7DEF7DEF7DEF7DDF1C632CEB
:1083800059C5BB26DAE4DAA3DAC3DAC3DAA3DAE43E
:10839000DB04DAC3DAA3DAC3DAC3DAA3DAE4DB0490
:1083A000DAC3DAA3DAC3DAC3DAC3DAA3DAC3E2C31D
:1083B000DAC3DAC3DAC3DAC3E2C3E2C3DAC3DAC3C5
:1083C000DAC3DAC3E2C3DAC3E2C3DAA382456B2DB0
:1083D000A517BDBBBDBBB5BBB5BBB5BBB5BBB5BBC1
:1083E000B5BBB5BBB5BBB5BBB5BBB5BBB5BBB5BB0D
:1083F000B5BBB5BBB5BBB5BBB5BBB5BBB5BBB5BBFD
:10840000B5BBB5BBB5BBB5BBB5BBB5BBB5BBBDBBE4
:10841000BDBBB5997BD06B6DCE58EF7DEF7DEF7D09
:10842000EF7DEF7DEF7DEF7DEF7DEF7DEF7DEF7DEC
:10843000EF7DEF7DEF9DEF9DF79EF79EEF7DEF7D4A
:10844000EF7DEF7DEF7DEF7DEF7DEF7DEF7DEF7DCC
:10845000EF7DEF7DF79DF79EEF7DEF7DEF7DEF5D8B
:10846000EF7DEF7DEF7DEF7DF79EEF7DEF7DEF7D83
:10847000EF7DEF7DEF7DEF7DEF7DEF7DEF7DF79E73
:10848000F79EF79EEF7DEF7DEF7DEF7DEF7DEF7D3A
:10849000EF7DEF7DEF7DEF7DEF7DEF7DEF7DEF7D7C
:1084A000EF7DEF7DEF5D73CF41E69308DB05EAC218
:1084B000EAC3EAC3EAC3EAE3E304EAE3EAC3EAC3DA
:1084C000EAC3EAC3EAE3EB04EAE3EAC3EAC3EAC3C2
:1084D000EAC3EAC3EAC3EAE3EAE3EAE3EAE3EAE394
:1084E000EAE3EAE3EAE3EAE3EAE3EAE3EAE3EAC344
:1084F000EAC2EAC2BB068B6B8C32A559BDDCBDBBA0
:10850000B5BBB5BBB5BBB5BBB5BBB5BBB5BBB5BBEB
:10851000B5BBB5BBB5BBB5BBB5BBB5BBB5BBB5BBDB
:10852000B5BBB5BBB5BBB5BBB5BBB5BBB5BBBDFC82
:10853000B59A738F83EFCE5994928C519CD6B5BB6C
:10854000BDDCB5BBB5BBB5BBB5BBB5BBB5BBB5BB82
:10855000B5BBB5BBB5BBB5BBB5BBB5BBB5BBB5BB9B
:10856000B5BBB5BBB5BBBDBBBDBBAD797BD08410C6
:10857000EF7DFFFFFFFFFFFFFFFFFFFFFFFFFFFF9D
:10858000FFFFFFFFFFFFFFFFFFFFFFFFFFFFFFFFFB
:10859000FFFFCE798C71A514E73CFFFFFFFFFFFFC3
:1085A000FFFFFFFFFFFFEF7DA4F37BCF738E73AE62
:1085B0007BEFAD75BDD78C5173AE6B6D6B4D6B4D55
:1085C000738E8410AD75EF7DFFFFFFFFFFFFFFFF90
:1085D000FFFFFFFFDEDB9CB28C71CE79FFFFFFFF58
:1085E000FFFFFFFFFFFFFFFFFFFFFFFFFFFFFFFF9B
:1085F000FFFFFFFFFFFFFFFFFFFFFFFFF7DF6B8EB8
:1086000061E5D326F2C2F260FAA1FB03F345AA4367
:1086100081A2CAE4FB44FAC2FAA1FAE2BA2179A221
:10862000BAC5F325FAC2FA81F281E2E4B2A4796113
:10863000690060E060E060E07100712068E060E087
:1086400060E068E071209A03DAE4EAA29A65738E2A
:10865000A537B5BBBDBBB5BBB5BBB5BBB5BBB5BB26
:10866000B5BBB5BBB5BBB5BBB5BBB5BBB5BBB5BB8A
:10867000B5BBB5BBB5BBB5BBB5BBB5BBB5BBB5BB7A
:10868000B5BBB5BBB5BBB5BBB5BBB5BBB5BBBDBB62
:10869000BDBBB59984117BCFE71CFFFFFFFFFFFF38
:1086A000FFFFFFFFFFFFFFFFFFFFFFFFFFFFFFFFDA
:1086B000FFFFFFFFE73CD69AAD759492D6BAFFFF55
:1086C000FFFFFFFFFFFFFFFFFFFFFFFFFFFFFFFFBA
:1086D000FFFFE71CC618D69AFFFFFFFFD69A8C5102
:1086E000AD75FFFFFFFFE73CC618D69AFFFFFFFFFF
:1086F000FFFFFFFFFFFFFFFFFFFFFFFFE71C9CF3F4
:108700008C51C618FFFFFFFFFFFFFFFFFFFFFFFFBA
:10871000FFFFFFFFFFFFFFFFFFFFFFFFFFFFFFFF69
:10872000FFFFFFFFFFFF8C714A279B28DAE4F2600E
:10873000F281FAE3F345AA8479A2BAA4FB45FAC20E
:10874000FA81FAE2C24279A2AAA5EB45FAE2FAA1BD
:10875000F281E2C3BAA58182690058E058E060E086
:108760006900712060E058E058E060E0690091E342
:10877000CAE5EAA2C2E5938C8C52A559BDDCBDBB0B
:10878000B5BBB5BBB5BBB5BBB5BBB5BBB5BBB5BB69
:10879000B5BBB5BBB5BBB5BBB5BBB5BBB5BBB5BB59
:1087A000B5BBB5BBB5BBB5BBB5BBB5BBB5BBBDFC00
:1087B000B59A738F83EFCE5994928C519CD6B5BBEA
:1087C000BDDCB5BBB5BBB5BBB5BBB5BBB5BBB5BB00
:1087D000B5BBB5BBB5BBB5BBB5BBB5BBB5BBB5BB19
:1087E000B5BBB5BBB5BBBDBBBDBBAD797BD083EF66
:1087F000E73CFFFFFFFFFFFFFFFFFFFFFFFFFFFF64
:10880000FFFFFFFFFFFFFFFFFFFFFFFFFFFFFFFF78
:10881000EF7D8C71108231A6BDF7FFDFFFFFFFFFF8
:10882000FFFFFFFFFFFFCE793186002018E318C35A
:1088300000004228632C08411082296531A631A628
:1088400018E310615269CE59FFFFFFFFFFFFFFFFE2
:10885000FFFFFFFFBDF731A608418410F79EFFFF21
:10886000FFFFFFFFFFFFFFFFFFFFFFFFFFFFFFFF18
:10887000FFFFFFFFFFFFFFFFFFFFFFFFF79E6B6E96
:1088800061E5CB26EAC3EAC3CA83A22392853923D2
:10889000084161E49A64B243CAA4BA6348E0004163
:1088A00052069265AA02C263E282D34672A80861A8
:1088B000104030A1308020A100410000188130A17B
:1088C00030A118A100003985B368E2C39A64736EC1
:1088D000A537B5BBBDBBB5BBB5BBB5BBB5BBB5BBA4
:1088E000B5BBB5BBB5BBB5BBB5BBB5BBB5BBB5BB08
:1088F000B5BBB5BBB5BBB5BBB5BBB5BBB5BBB5BBF8
:10890000B5BBB5BBB5BBB5BBB5BBB5BBB5BBBDBBDF
:10891000BDBBB59983F17BCFDEDBFFFFFFFFFFFF20
:10892000FFFFFFFFFFFFFFFFFFFFFFFFFFFFEF5D09
:10893000CE79A53473AE7BCF632C4A49A514D6BA41
:10894000BDF7B5B6B596B5B6BDF7CE79EF5DFFFF0D
:10895000FFFFCE797BEF73AEBDD7F79EA51410C392
:108960005AEBEF5DE73C94926B4DAD55FFDFFFFF97
:10897000FFFFFFFFFFFFFFFFFFFFFFFFCE79422852
:1089800000206B6DEF5DFFFFFFFFFFFFFFFFFFFFAD
:10899000FFFFFFFFFFFFFFFFFFFFFFFFFFFFFFFFE7
:1089A000FFFFFFFFFFFF84314A279B28DAE4EAC27A
:1089B000D2A3A22392854963084051A49A64AA23B2
:1089C000CAA4C2835901004141C68A86A222C26359
:1089D000E282D3267AE810A2084028A1308020A1A4
:1089E00008610000108128A130A020A100202944A6
:1089F000AB48E2E4C2E58B8B8C52A559BDDCBDBB14
:108A0000B5BBB5BBB5BBB5BBB5BBB5BBB5BBB5BBE6
:108A1000B5BBB5BBB5BBB5BBB5BBB5BBB5BBB5BBD6
:108A2000B5BBB5BBB5BBB5BBB5BBB5BBB5BBBDFC7D
:108A3000B59A738F83EFCE5994928C519CD6B5BB67
:108A4000BDDCB5BBB5BBB5BBB5BBB5BBB5BBB5BB7D
:108A5000B5BBB5BBB5BBB5BBB5BBB5BBB5BBB5BB96
:108A6000B5BBB5BBB5BBBDBBBDBBAD797BD083EFE3
:108A7000E73CFFFFFFFFFFFFFFFFFFFFFFFFFFFFE1
:108A8000FFFFFFFFFFFFFFFFFFFFFFFFFFFFFFFFF6
:108A9000F79E949210A231A6C618FFFFFFFFFFFFBA
:108AA000FFFFFFFFFFFFCE5939A639C7843073AEF1
:108AB00018C34A496B4D10825AEBCE59DEFBDEFBE0
:108AC000947139A6528AC638FFFFFFDFF7BEF79EC2
:108AD000EF7DEF7DBDD7420800005ACBC638EF7D51
:108AE000EF7DF79EF7BEF7BEFFFFFFFFFFFFFFFF23
:108AF000FFFFFFFFFFFFFFFFFFFFFFFFF79E6B6E14
:108B000061E5CB26EAE3E3258A8628A118810020C7
:108B1000000010611881496382C841630820000089
:108B20000020106129037246D2A4DB466A880881BE
:108B30005983D2E4D283A307316410818286D2C4E0
:108B4000D2C492A618A13164B368E2C39A64736E6A
:108B5000A537B5BBBDBBB5BBB5BBB5BBB5BBB5BB21
:108B6000B5BBB5BBB5BBB5BBB5BBB5BBB5BBB5BB85
:108B7000B5BBB5BBB5BBB5BBB5BBB5BBB5BBB5BB75
:108B8000B5BBB5BBB5BBB5BBB5BBB5BBB5BBBDBB5D
:108B9000BDBBB59983F17BCFDEDBFFFFFFFFFFFF9E
:108BA000FFFFFFFFFFFFFFFFFFFFFFFFFFDFB5B688
:108BB0004A6910A221246B4D9D14AD55AD55632C0F
:108BC00018C321042104210418C34228AD75FFFFF6
:108BD000F7BEC6386B6D31655ACBAD558C7110C37D
:108BE00052AABDD78C5139C74A49A534E71CFFDFCB
:108BF000FFFFFFDFF7BEF79EEF7DEF7DC638528A9D
:108C000000004A49BDF7EF7DEF7DF79EF7BEF7BE46
:108C1000FFFFFFFFFFFFFFFFFFFFFFFFFFFFFFFF64
:108C2000FFFFFFFFFFFF84314A279B08DAE4EB24B4
:108C30009AC630C2188108200000084118813923E3
:108C400082A751A4084000000020106128E262269B
:108C5000CAA4DB257AC808824942CAE4D283B30693
:108C600041A508617245CAE5D2A3A2C620C221036C
:108C7000A328E2E4C2E58B8B8C52A559BDDCBDBBB9
:108C8000B5BBB5BBB5BBB5BBB5BBB5BBB5BBB5BB64
:108C9000B5BBB5BBB5BBB5BBB5BBB5BBB5BBB5BB54
:108CA000B5BBB5BBB5BBB5BBB5BBB5BBB5BBBDFCFB
:108CB000B59A738F83EFCE5994928C519CD6B5BBE5
:108CC000BDDCB5BBB5BBB5BBB5BBB5BBB5BBB5BBFB
:108CD000B5BBB5BBB5BBB5BBB5BBB5BBB5BBB5BB14
:108CE000B5BBB5BBB5BBBDBBBDBBAD797BD083EF61
:108CF000E73CFFFFFFFFFFFFFFFFFFFFFFFFFFFF5F
:108D0000FFFFFFFFFFFFFFFFFFFFFFFFFFFFFFFF73
:108D1000F7BE949218C34208CE59FFFFFFFFFFFF32
:108D2000FFFFFFFFFFFFCE5941E74A6994B27BEF97
:108D300039E77BCF843018E373AEFFDFFFFFFFFF1F
:108D4000B5964A495ACBCE79E71C8C515ACB4A4941
:108D50004208420831A608610000086131864208D5
:108D600042084A6952AA8410E73CFFFFFFFFFFFF59
:108D7000FFFFFFFFFFFFFFFFFFFFFFFFF79E6B6E91
:108D800061E5CB26EAC3E2E4B306722539650861E2
:108D9000084139855A268AA6AB286A672104000053
:108DA0000000290372A79B07DAC3D3266A881081C3
:108DB0007A03FBA5FB44D3C949E620C2AB27FB8558
:108DC000FB85BB6828E23144BB48E2C39A64736EFA
:108DD000A537B5BBBDBBB5BBB5BBB5BBB5BBB5BB9F
:108DE000B5BBB5BBB5BBB5BBB5BBB5BBB5BBB5BB03
:108DF000B5BBB5BBB5BBB5BBB5BBB5BBB5BBB5BBF3
:108E0000B5BBB5BBB5BBB5BBB5BBB5BBB5BBBDBBDA
:108E1000BDBBB59983F17BCFDEDBFFFFFFFFFFFF1B
:108E2000FFFFFFFFFFFFFFFFFFFFFFFFFFDFA53497
:108E3000210400207BEFCE59E75DF79EBDD739E7CF
:108E40000000630C9CD3738E10822104A534DEFBDA
:108E500073AE42282104000008412945294500003D
:108E600018C331A618C30000106139C74A69BDF79D
:108E7000E73C94B25AEB4A494208420839C710828B
:108E8000000008412965420842084A49528A7BAEDF
:108E9000DEDBFFFFFFFFFFFFFFFFFFFFFFFFFFFF27
:108EA000FFFFFFFFFFFF84314A279B28DAE4EAE354
:108EB000BB067A4541850882002031445A268286C5
:108EC000AB277AA729440000000020E26A879308B4
:108ED000D2C4DB057AC810A261A3FBA6FB44E3C899
:108EE0005A2618819AE7FBA6FB64CB88312321031D
:108EF000AB28E2E4C2E58B8B8C52A559BDDCBDBB2F
:108F0000B5BBB5BBB5BBB5BBB5BBB5BBB5BBB5BBE1
:108F1000B5BBB5BBB5BBB5BBB5BBB5BBB5BBB5BBD1
:108F2000B5BBB5BBB5BBB5BBB5BBB5BBB5BBBDFC78
:108F3000B59A738F83EFCE5994928C519CD6B5BB62
:108F4000BDDCB5BBB5BBB5BBB5BBB5BBB5BBB5BB78
:108F5000B5BBB5BBB5BBB5BBB5BBB5BBB5BBB5BB91
:108F6000B5BBB5BBB5BBBDBBBDBBAD797BD083EFDE
:108F7000E73CFFFFFFFFFFFFFFFFFFFFFFFFFFFFDC
:108F8000FFFFFFFFE73C9CF3843084308430843063
:108F90007BCF4A49086121046B4D84308430843092
:108FA00084308430C618BDF74208528A6B6D4A6916
:108FB0005ACBAD558C9218E373AEFFDFFFFFFFFF76
:108FC000B5B64A495ACBD69ACE7942080000212438
:108FD000528A528A52AA5AEB632C632C632C5ACBC6
:108FE0004A6910A200003186D69AFFFFFFFFFFFFFB
:108FF000FFFFFFFFFFFFFFFFFFFFFFFFF79E6B6E0F
:1090000061E5CB26EAC3F281E324B3895A4808829A
:10901000084141C67AE9AB69C3887AC821040020B7
:1090200018A25207A349DB66F2E3D32672A8108187
:1090300038E179A2798161C420E20841516379A2C3
:1090400079A2518310613984BB48E2C39A64736E7C
:10905000A537B5BBBDBBB5BBB5BBB5BBB5BBB5BB1C
:10906000B5BBB5BBB5BBB5BBB5BBB5BBB5BBB5BB80
:10907000B5BBB5BBB5BBB5BBB5BBB5BBB5BBB5BB70
:10908000B5BBB5BBB5BBB5BBB5BBB5BBB5BBBDBB58
:10909000BDBBB59983F17BCFDEDBFFFFFFFFFFFF99
:1090A000FFFFFFFFFFFFFFFFFFFFFFFFFFDFAD75CC
:1090B00029452124DEDBFFFFFFFFFFFFCE5939E703
:1090C0002104BDD7FFFFD69A39C73165B575C638BB
:1090D00018E3000018E339E739E7318631A639E7AC
:1090E00039C7318631A639E72965000000008C7147
:1090F000D6BA528A000018E3528A528A52AA5AEB10
:10910000632C632C632C5AEB528A18E30000210471
:10911000C618FFFFFFFFFFFFFFFFFFFFFFFFFFFF7F
:10912000FFFFFFFFFFFF84314A279B28DAE4F2812B
:10913000EB04BB89628810A30020398572E9AB6912
:10914000C3888AE82945000010A249E69B29D36715
:10915000F2E3D30582C818A228C171A2798169C43B
:1091600029030840414379A2798259A31881312308
:10917000AB28E2E4C2E58B8B8C52A559BDDCBDBBAC
:10918000B5BBB5BBB5BBB5BBB5BBB5BBB5BBB5BB5F
:10919000B5BBB5BBB5BBB5BBB5BBB5BBB5BBB5BB4F
:1091A000B5BBB5BBB5BBB5BBB5BBB5BBB5BBBDFCF6
:1091B000B59A738F83EFCE5994928C519CD6B5BBE0
:1091C000BDDCB5BBB5BBB5BBB5BBB5BBB5BBB5BBF6
:1091D000B5BBB5BBB5BBB5BBB5BBB5BBB5BBB5BB0F
:1091E000B5BBB5BBB5BBBDBBBDBBAD797BD083EF5C
:1091F000E73CFFFFFFFFFFFFFFFFFFFFFFFFFFFF5A
:10920000FFFFFFFFCE9A528A21242124212421240A
:10921000210408610000002018C3212421242124F6
:10922000212421249492BDD742084A6952692945D4
:109230006B6DC6388C9218C35ACBBDF7D69AD69AA6
:109240008C5139C75ACBD6BACE79420810828C518C
:10925000FFFFFFFFFFFFFFFFFFDFEF5DE6FBEF5DBF
:10926000EF7D630C000039A6D69AFFFFFFFFFFFFDA
:10927000FFFFFFFFFFFFFFFFFFFFFFFFF79E6B6E8C
:1092800061E5CB26EAC3EAA2C2E582E94A0710817A
:109290000000292452277AE982E85A061061084121
:1092A0004A075A687287BB06EAC3D32672A81081A0
:1092B000104020802060188108400000106120606C
:1092C00020601861002041A5BB68E2C39A64736EF8
:1092D000A537B5BBBDBBB5BBB5BBB5BBB5BBB5BB9A
:1092E000B5BBB5BBB5BBB5BBB5BBB5BBB5BBB5BBFE
:1092F000B5BBB5BBB5BBB5BBB5BBB5BBB5BBB5BBEE
:10930000B5BBB5BBB5BBB5BBB5BBB5BBB5BBBDBBD5
:10931000BDBBB59983F17BCFDEDBFFFFFFFFFFFF16
:10932000FFFFFFFFFFFFFFFFFFFFFFFFFFDFAD7549
:10933000296518E39CF3D69AD69ADEDBB5B64228A7
:109340002104AD75FFFFC63839A63165B575CE79F4
:10935000318608415289738E738E6B4D6B4D6B6DE8
:109360006B6D6B4D6B6D73AE630C294408419CD3E0
:10937000D6BA528A106173AEFFFFFFFFFFFFFFFFF7
:10938000FFDFEF5DE6FBEF5DF7BE73AE0000292463
:10939000C618FFFFFFFFFFFFFFFFFFFFFFFFFFFFFD
:1093A000FFFFFFFFFFFF84314A279B28DAE4F2A189
:1093B000CAE58B09522718A2000020E3522772C980
:1093C0008B08622618A2082041C65A686A67B3064D
:1093D000EAE3DB0582E818C20820206020601881DB
:1093E0000840000010602080206018610020314497
:1093F000AB48E2E4C2E58B8B8C52A559BDDCBDBB0A
:10940000B5BBB5BBB5BBB5BBB5BBB5BBB5BBB5BBDC
:10941000B5BBB5BBB5BBB5BBB5BBB5BBB5BBB5BBCC
:10942000B5BBB5BBB5BBB5BBB5BBB5BBB5BBBDFC73
:10943000B59A738F83EFCE5994928C519CD6B5BB5D
:10944000BDDCB5BBB5BBB5BBB5BBB5BBB5BBB5BB73
:10945000B5BBB5BBB5BBB5BBB5BBB5BBB5BBB5BB8C
:10946000B5BBB5BBB5BBBDBBBDBBAD797BD083EFD9
:10947000E73CFFFFFFFFFFFFFFFFFFFFFFFFFFFFD7
:10948000FFFFFFFFF79ECE79C618C618C618C6188C
:1094900094922965000010A26B4DB5B6C618C61887
:1094A000C618C618DEFBC638420841E731A610824E
:1094B0006B4DC63894B218C31082294529652965B9
:1094C00018E310A25ACBDEBAD6794A2818C39CD327
:1094D000FFFFFFFFFFFFFFFFFFFFAD55736DAD55B2
:1094E000F7BE73AE000039E7D6BAFFFFFFFFFFFFFC
:1094F000FFFFFFFFFFFFFFFFFFFFFFFFF79E6B6E0A
:1095000061E5CB26EAC3DB0593086AA982E84983B3
:1095100010617246A3696AA849C5828651621081AA
:109520006A88936A72E982C8D2A3DB2672881081A6
:109530005142B263B2229286314410817225B263E5
:10954000B2437A4518813964BB48E2C39A64736EAA
:10955000A537B5BBBDBBB5BBB5BBB5BBB5BBB5BB17
:10956000B5BBB5BBB5BBB5BBB5BBB5BBB5BBB5BB7B
:10957000B5BBB5BBB5BBB5BBB5BBB5BBB5BBB5BB6B
:10958000B5BBB5BBB5BBB5BBB5BBB5BBB5BBBDBB53
:10959000BDBBB59983F17BCFDEDBFFFFFFFFFFFF94
:1095A000FFFFFFFFFFFFFFFFFFFFFFFFFFDFAD75C7
:1095B00039E7002021042965296552698C514A69DF
:1095C0002104AD75FFFFC61831A63165AD75E71CE6
:1095D0006B4D39A639C72124210418E318E318E399
:1095E00018E318E321042104318639E74228BDF746
:1095F000DEDB5AAA18A28430FFFFFFFFFFFFFFFF48
:10960000FFFFB596736D9CD3F7BE8C5100002965A2
:10961000C638FFFFFFFFFFFFFFFFFFFFFFFFFFFF5A
:10962000FFFFFFFFFFFF84314A279B08DAE4E2E4F3
:10963000A3286AA982E959C410406205A36972C8C7
:1096400049C6826661A310616247936A7AE97AC863
:10965000CAA4DB2582C810A24102AA64B2229A855C
:109660003964106161E4AA64B2438A6520C2292387
:10967000AB28E2E4C2E58B8B8C52A559BDDCBDBBA7
:10968000B5BBB5BBB5BBB5BBB5BBB5BBB5BBB5BB5A
:10969000B5BBB5BBB5BBB5BBB5BBB5BBB5BBB5BB4A
:1096A000B5BBB5BBB5BBB5BBB5BBB5BBB5BBBDFCF1
:1096B000B59A738F83EFCE5994928C519CD6B5BBDB
:1096C000BDDCB5BBB5BBB5BBB5BBB5BBB5BBB5BBF1
:1096D000B5BBB5BBB5BBB5BBB5BBB5BBB5BBB5BB0A
:1096E000B5BBB5BBB5BBBDBBBDBBAD797BD083EF57
:1096F000E73CFFFFFFFFFFFFFFFFFFFFFFFFFFFF55
:10970000FFFFFFFFFFFFFFFFFFFFFFFFFFFFFFFF69
:10971000BDD72945108221247BCFFFFFFFFFFFFF2C
:10972000FFFFFFFFFFFFCE5941E742085ACB31A6AA
:1097300039C78C718C7118C331866B4D73AE73AEA3
:109740004A6929245AAAD679EF5DAD759CD3D69A79
:10975000D69A84109CF3EF5DEF7D841010A25269BD
:10976000DEFBC6188C51AD55EF7DFFFFFFFFFFFFFD
:10977000FFFFFFFFFFFFFFFFFFFFFFFFF79E6B6E87
:1097800061E5CB26EAC3E2C3AB078B099B6A6A6734
:1097900041A58B29B3CB83096267A3287A873985D2
:1097A00072C99B8B936A9B08D2A3D3266A881081C7
:1097B0007A03FBC6FB64DBE949E620C2B347FBA59D
:1097C000FB85C38828E23144BB48E2C39A64736EC8
:1097D000A537B5BBBDBBB5BBB5BBB5BBB5BBB5BB95
:1097E000B5BBB5BBB5BBB5BBB5BBB5BBB5BBB5BBF9
:1097F000B5BBB5BBB5BBB5BBB5BBB5BBB5BBB5BBE9
:10980000B5BBB5BBB5BBB5BBB5BBB5BBB5BBBDBBD0
:10981000BDBBB59983F17BCFDEDBFFFFFFFFFFFF11
:10982000FFFFFFFFFFFFFFFFFFFFFFFFFFDFAD7544
:1098300031A6108252AA73AE73AE8C519CF34A4982
:109840002104AD75FFFFC61831A63165A534F7BEFA
:10985000CE5994B24208000039E76B8E634D632CF9
:10986000632C6B4D52AA086118E37BCFB596EF5D70
:10987000EF7DB5969CB2CE38DEFB8C5194B2E71CDE
:10988000F7BE949218E341E7D69ACE798C71A5146D
:10989000E73CFFFFFFFFFFFFFFFFFFFFFFFFFFFFB3
:1098A000FFFFFFFFFFFF84314A279B08DAE4E2C392
:1098B000B3068B089B6A72A8418582E8B3EB8B29BB
:1098C00062479B288AC739856AA89B8B936A9B0845
:1098D000D2A3DB057AC810A269A3FBC6FB64EBE840
:1098E0005A4718A19B07FBC6FB84D3A83923210341
:1098F000AB28E2E4C2E58B8B8C52A559BDDCBDBB25
:10990000B5BBB5BBB5BBB5BBB5BBB5BBB5BBB5BBD7
:10991000B5BBB5BBB5BBB5BBB5BBB5BBB5BBB5BBC7
:10992000B5BBB5BBB5BBB5BBB5BBB5BBB5BBBDFC6E
:10993000B59A738F83EFCE5994928C519CD6B5BB58
:10994000BDDCB5BBB5BBB5BBB5BBB5BBB5BBB5BB6E
:10995000B5BBB5BBB5BBB5BBB5BBB5BBB5BBB5BB87
:10996000B5BBB5BBB5BBBDBBBDBBAD797BD083EFD4
:10997000E73CFFFFFFFFFFFFFFFFFFFFFFFFFFFFD2
:10998000FFFFFFFFFFFFFFFFFFFFFFFFFFFFEF7D79
:1099900073AE10A25ACB52694A49CE59FFFFFFFF5E
:1099A000FFFFFFFFFFFFCE5939E74A4994B27BCF53
:1099B00018C34A496B4D18C373AEF79EFFFFFFFFF4
:1099C000B5754A285AAAC638FFFFFFFFFFFFFFFF01
:1099D00094B208414228D6BAF7BEA53418E3294507
:1099E000C638FFFFFFFFFFFFFFFFFFFFFFFFFFFF87
:1099F000FFFFFFFFFFFFFFFFFFFFFFFFF79E6B6E05
:109A000061E5CB26EAC3FA60DAC4A3697B2A62A9BE
:109A1000628872C9830983097B09830972C95A88DC
:109A20006AA972E99B49D367EAE3D32672A8108139
:109A300049229A2399E27A452923106161E49A2305
:109A40009A036A0418813964BB48E2C39A64736E4E
:109A5000A537B5BBBDBBB5BBB5BBB5BBB5BBB5BB12
:109A6000B5BBB5BBB5BBB5BBB5BBB5BBB5BBB5BB76
:109A7000B5BBB5BBB5BBB5BBB5BBB5BBB5BBB5BB66
:109A8000B5BBB5BBB5BBB5BBB5BBB5BBB5BBBDBB4E
:109A9000BDBBB59983F17BCFDEDBFFFFFFFFFFFF8F
:109AA000FFFFFFFFFFFFFFFFFFFFFFFFFFDFAD75C2
:109AB00029452124CE59FFFFFFFFFFFFCE59420861
:109AC00018E3AD75FFFFC61831A63165A4F3FFFF9B
:109AD000FFFFDEDB5ACB00204A698C7184308C7129
:109AE0008C5184516B4D10822945AD75FFFFFFFFEE
:109AF000FFFFFFFFFFFFFFFFA555108231A6C6380D
:109B0000FFDFB5B6294518E3B596FFFFFFFFFFFF5E
:109B1000FFFFFFFFFFFFFFFFFFFFFFFFFFFFFFFF55
:109B2000FFFFFFFFFFFF84314A279B28DAE4FA603A
:109B3000E2C3AB49832A6AA95A896AC9830983099E
:109B40007B09830972C95A8862A972E99329CB6794
:109B5000EAE3DB0582C818A238E19223A1E282453C
:109B60003144084159A49A239A027A2420A1292336
:109B7000AB28E2E4C2E58B8B8C52A559BDDCBDBBA2
:109B8000B5BBB5BBB5BBB5BBB5BBB5BBB5BBB5BB55
:109B9000B5BBB5BBB5BBB5BBB5BBB5BBB5BBB5BB45
:109BA000B5BBB5BBB5BBB5BBB5BBB5BBB5BBBDFCEC
:109BB000B59A738F83EFCE5994928C519CD6B5BBD6
:109BC000BDDCB5BBB5BBB5BBB5BBB5BBB5BBB5BBEC
:109BD000B5BBB5BBB5BBB5BBB5BBB5BBB5BBB5BB05
:109BE000B5BBB5BBB5BBBDBBBDBBAD797BD083EF52
:109BF000E73CFFFFFFFFFFFFFFFFFFFFFFFFFFFF50
:109C0000FFFFFFFFFFFFFFFFFFFFFFFFFFFFB59617
:109C1000422841E7B5B69CF34A698C51E71CFFFF27
:109C2000FFFFFFFFFFFFCE5939E74A28AD75A55565
:109C3000214529654A4910A273AEEF7DFFFFFFFF62
:109C4000AD754A285AAAC638FFFFFFFFFFFFE73C61
:109C50006B6D08415ACBDEFBFFFFCE5939E718C3C5
:109C60009CD3F7BEFFFFFFFFFFFFFFFFFFFFFFFFDC
:109C7000FFFFFFFFFFFFFFFFFFFFFFFFF79E6B6E82
:109C800061E5CB26EAC3F281CAC48B095AA95248BE
:109C90005A685A685A685A6862885A685A685A688C
:109CA0005A68524872C8C327EAC3D32672A81081E3
:109CB00008202060206018610820000010602060EB
:109CC00020601061000041A5BB68E2C39A64736E16
:109CD000A537B5BBBDBBB5BBB5BBB5BBB5BBB5BB90
:109CE000B5BBB5BBB5BBB5BBB5BBB5BBB5BBB5BBF4
:109CF000B5BBB5BBB5BBB5BBB5BBB5BBB5BBB5BBE4
:109D0000B5BBB5BBB5BBB5BBB5BBB5BBB5BBBDBBCB
:109D1000BDBBB59983F17BCFDEDBFFFFFFFFFFFF0C
:109D2000FFFFFFFFFFFFFFFFFFFFFFFFFFDFAD753F
:109D300029452104C638FFFFFFFFF7BEBDD7420803
:109D400018E3AD75FFFFC63831A629659CF3FFFF08
:109D5000FFFFDEDB738E10A218C3212418E310A2CC
:109D600018C3210418E310824228B596FFDFFFFFD5
:109D7000FFFFFFFFFFFFEF7D7BEF08614A49D69AA7
:109D8000FFFFD6BA4A6910A28451EF7DFFFFFFFFA3
:109D9000FFFFFFFFFFFFFFFFFFFFFFFFFFFFFFFFD3
:109DA000FFFFFFFFFFFF84314A279B28DAE4FA8197
:109DB000D2C4930962A952485A685A685A685A68C4
:109DC00062885A685A685A685A68524872A8B32713
:109DD000EAE3DB0582E818C20820186020601861F9
:109DE00008400000104018602060186100203144D5
:109DF000AB48E2E4C2E58B8B8C52A559BDDCBDBB00
:109E0000B5BBB5BBB5BBB5BBB5BBB5BBB5BBB5BBD2
:109E1000B5BBB5BBB5BBB5BBB5BBB5BBB5BBB5BBC2
:109E2000B5BBB5BBB5BBB5BBB5BBB5BBB5BBBDFC69
:109E3000B59A738F83EFCE5994928C519CD6B5BB53
:109E4000BDDCB5BBB5BBB5BBB5BBB5BBB5BBB5BB69
:109E5000B5BBB5BBB5BBB5BBB5BBB5BBB5BBB5BB82
:109E6000B5BBB5BBB5BBBDBBBDBBAD797BD083EFCF
:109E7000E73CFFFFFFFFFFFFFFFFFFFFFFFFFFFFCD
:109E8000FFFFFFFFFFFFFFFFFFFFFFFFEF5D5AEB4D
:109E900021248C71F7BEDEDB632C4228AD75FFFFF9
:109EA000FFFFFFFFFFFFCE5939E74A28BDD7BDF7B7
:109EB000296521044208108273AEE75DFFFFFFFFB2
:109EC000AD344A285AAAC638FFFFFFFFFFFFC5F787
:109ED000422818E39492F7BEFFFFF79E6B6D10A225
:109EE0006B4DDEFBFFFFFFFFFFFFFFFFFFFFFFFFED
:109EF000FFFFFFFFFFFFFFFFFFFFFFFFF79E6B6E00
:109F000061E5CB26EAC3D2E49B0862884A485248FE
:109F100052485248522852485A6852485248524869
:109F200052484A2852488287D2A3D3266A881061B1
:109F3000410191E291C272042903106159C491E375
:109F400091E261C410613964BB48E2C39A64736EE4
:109F5000A537B5BBBDBBB5BBB5BBB5BBB5BBB5BB0D
:109F6000B5BBB5BBB5BBB5BBB5BBB5BBB5BBB5BB71
:109F7000B5BBB5BBB5BBB5BBB5BBB5BBB5BBB5BB61
:109F8000B5BBB5BBB5BBB5BBB5BBB5BBB5BBBDBB49
:109F9000BDBBB59983F17BCFDEDBFFFFFFFFFFFF8A
:109FA000FFFFFFFFFFFFFFFFFFFFFFFFFFDFAD75BD
:109FB000296518E39CF3D6BA9492528A6B6D4208D5
:109FC0002104B596FFFFCE7939A629459CF3FFFF02
:109FD000FFFFDEFBAD758C517C107C1052AA002077
:109FE00029657BCF7C1084309CF3CE79F79EFFFFF0
:109FF000FFFFFFFFFFFFCE79528A18A27BEFF79E8B
:10A00000FFFFF7BE841010A25ACBD69AFFFFFFFFC6
:10A01000FFFFFFFFFFFFFFFFFFFFFFFFFFFFFFFF50
:10A02000FFFFFFFFFFFF84314A279B08DAE4DAE4F1
:10A03000A3076A8852485248524852485228524808
:10A040005A6852485248524852484A2852487287E1
:10A05000CAA3DB057AC810A238C189E291C27A048A
:10A060003123084151838A0391E271E418A1292325
:10A07000AB28E2E4C2E58B8B8C52A559BDDCBDBB9D
:10A08000B5BBB5BBB5BBB5BBB5BBB5BBB5BBB5BB50
:10A09000B5BBB5BBB5BBB5BBB5BBB5BBB5BBB5BB40
:10A0A000B5BBB5BBB5BBB5BBB5BBB5BBB5BBBDFCE7
:10A0B000B59A738F83EFCE5994928C519CD6B5BBD1
:10A0C000BDDCB5BBB5BBB5BBB5BBB5BBB5BBB5BBE7
:10A0D000B5BBB5BBB5BBB5BBB5BBB5BBB5BBB5BB00
:10A0E000B5BBB5BBB5BBBDBBBDBBAD797BD083EF4D
:10A0F000E73CFFFFFFFFFFFFFFFFFFFFFFFFFFFF4B
:10A10000FFFFFFFFFFFFFFFFFFFFEF7D8C71294582
:10A1100039C7A534DEFBF79EAD7542086B4DD6BA44
:10A12000FFFFFFFFFFFFCE5939E72965630C5ACBCC
