:020000040800F2
:10000000D00500209D010008D1220008511B0008E6
:100010002D210008A9020008C334000800000000D8
:10002000000000000000000000000000493200084D
:100030003503000800000000D32200084B320008FE
:10004000B7010008B7010008B7010008B7010008B0
:10005000B7010008B7010008B7010008370300081E
:10006000B7010008B7010008B7010008B701000890
:10007000B7010008B7010008B7010008B701000880
:10008000B7010008B7010008B7010008B701000870
:10009000B7010008B7010008B7010008B701000860
:1000A000B7010008B7010008B7010008B701000850
:1000B000B7010008B7010008B7010008B701000840
:1000C000B7010008B7010008B7010008B701000830
:1000D000B7010008B7010008B7010008B701000820
:1000E000B7010008B7010008B7010008B701000810
:1000F000B7010008B7010008B7010008B701000800
:10010000B7010008B7010008B7010008B7010008EF
:10011000B7010008B7010008B7010008B7010008DF
:10012000B7010008B7010008B7010008AD020008D8
:10013000B7010008B7010008B7010008B7010008BF
:10014000B7010008B7010008B7010008B7010008AF
:10015000B7010008B7010008B7010008B70100089F
:10016000B7010008B7010008B7010008B70100088F
:10017000B7010008B7010008B7010008000000003F
:10018000B7010008B7010008DFF80CD000F07AF8DA
:1001900000480047E5390008D005002006488047A0
:1001A00006480047FEE7FEE7FEE7FEE7FEE7FEE75C
:1001B000FEE7FEE7FEE7FEE7E532000889010008FA
:1001C0002DE9F05F0546002092469B46884606468C
:1001D000814640241BE0284641464746224600F01F
:1001E00041F853465A46C01A914110D31146184659
:1001F000224600F028F82D1A67EB01084F462246E8
:100200000120002100F01FF817EB00094E41201ECD
:10021000A4F10104DFDC484631462A464346BDE8E6
:10022000F09FD2B201E000F8012B491EFBD27047CB
:100230000022F6E710B513460A4604461946FFF7B2
:10024000F0FF204610BD202A04DB203A00FA02F11C
:10025000002070479140C2F1200320FA03F31943B4
:1002600090407047202A04DB203A21FA02F0002156
:10027000704721FA02F3D040C2F1200291400843B6
:1002800019467047064C074D06E0E06840F0010350
:1002900094E8070098471034AC42F6D3FFF778FF94
:1002A000E428060804290608FEE70000014800F0DB
:1002B000FDB900001801002001681823CAB2103AE5
:1002C000B2FBF3F2054B6FF30901032A9B5CC36594
:1002D00000D9091D8165084670470000C42806083A
:1002E00010B5014600208B698A6A4FF0C07453B183
:1002F000B3F5005F15D072B1012A0CD0022A0AD0E2
:10030000032A09D104E01AB1012A06D0022A03D136
:10031000C96AC90100D5012010BDC96AA142FAD03D
:1003200010BD002AF7D0012AF2D0022AF3D0032A06
:10033000F3D010BD704700F05DB872B6FEE710B59F
:100340000446BB22802100F09FF930B90A2288219F
:10035000204600F099F9002800D0012010BD08B512
:1003600000218DF800106A46022100F062F908B100
:10037000002008BD9DF8000000F00F0008BD2DE929
:10038000FF411C46DDE90A761546012902D0022903
:1003900002D00EE0032200E009224FF0640C042397
:1003A00003A98DE80A1081880068012300F092FCFF
:1003B00018B1012004B0BDE8F0819DF80C109DF843
:1003C0000D0001F00F0140EA012028809DF80E1079
:1003D0009DF80F0001F00F0140EA012020809DF8F8
:1003E0000E00000938709DF80C0080093070002064
:1003F000E0E7000003480121017040680249808A5B
:100400000860704738000020143C014070B586B089
:10041000044614216846FFF70BFF64B3174D01260D
:1004200069466C60A089CDE9000600200290039027
:10043000A06800F087FA6868818A00914FF404117F
:10044000CDE901160069694600F07CFA00221146E8
:10045000072000F075FE072000F064FE686800F0D9
:10046000FFF840B9686800F0BDF820B96868FFF788
:1004700066FF002800D0012006B070BD38000020C3
:100480002DE9F041002406464FF448785FF001075B
:1004900004EB440006EB8005287A70B1A87A60B9B5
:1004A000687A50B900F04CFB6968401A404504D99D
:1004B000611C04A003F006F86F72641C022CE7DBD9
:1004C000BDE8F081546F7563682025643A204C4F75
:1004D0004E472050524553530D0A00002DE9FF4767
:1004E0003E4E3078002869D07068002866D04FF002
:1004F000000886F80080FFF732FFDFF8E490074637
:100500000025BD4201DA012100E00021707885421A
:1005100001DA012000E00020B9B308B305EB450A79
:1005200009EB4A04211D601DCDE90001681CC1B220
:1005300002AB03AA7068FFF722FF6079401CC1B2CA
:10054000617139F81A20BDF80C00824204D162882A
:10055000BDF808309A4228D02379022B30D024E00D
:1005600005EB450109EB4104211D601DCDE90001AA
:10057000681CC1B2A31C22467068FFF700FF01206F
:1005800020716079401C607121E0FFE768B105EBE4
:10059000450209EB420403212171B16809B12046EB
:1005A0008847C4F80080A4F804806D1C022DA8DBE5
:1005B00077706A460221706800F03BF8BDE8FF875B
:1005C00029F81A00BDF808006080491C6171B16803
:1005D0000029EAD020468847E7E7000038000020DD
:1005E000C001002038B50546002000906A46A021D1
:1005F000284600F01EF8C0B96C469F212846621CB0
:1006000000F017F888B9A21CA321284600F011F8C1
:1006100058B99DF80000022807D19DF8010026284E
:1006200003D19DF80200642801D0012038BD0020CC
:1006300038BD3EB50124CDE90024642302938488AB
:100640000A4600680123214600F044FB002800D040
:1006500001203EBD0149886070470000380000203D
:1006600010B5044681898068002200F063FA0A20F0
:1006700000F056F9A1890122A06800F05BFAC820B9
:1006800000F04EF9002010BD17B583B0642401239B
:1006900005AA8DE81C0084880A460068214600F0FF
:1006A0001BFC002800D0012006B010BD2DE9F84346
:1006B00004464FF00009CDF8009063484FF41651FE
:1006C000A56D0068B0FBF1F72E6894F85C10082067
:1006D00000FA01F131420FD021680A6852070BD5A8
:1006E0000A6822F004020A6094F85C108840A8604E
:1006F000606D40F00100606594F85C104FF00108F7
:1007000008FA01F0304208D021684969090604D589
:10071000A860606D40F00200606594F85C100420F1
:100720008840304208D021680968890704D5A8604C
:10073000606D40F00400606594F85C101020884003
:10074000304218D021680968090714D5A8602068CC
:100750000168490304D50068000308D5A16C07E0CF
:100760000168C90503D4016821F008010160216C0A
:1007700009B12046884794F85C1020208840304218
:1007800031D021680968C9062DD5A86094F83500D4
:1007900005282068016806D0490347D50068000392
:1007A0001DD4616C1CE021F01601016020684169D4
:1007B00021F080014161206C08B9A06C20B1206853
:1007C000016821F00801016094F85C103F20884026
:1007D000A86084F8358084F83490216D1FE0E16BC7
:1007E00009B120468847606D00282BD0606DC00796
:1007F00014D0052084F835002068016821F001013B
:1008000001600098401C0090B84203D8206800683E
:10081000C007F6D184F8358084F83490E16C002963
:1008200010D001B02046BDE8F04308470168C90573
:10083000D5D4016821F01001016084F8358084F876
:100840003490CCE7BDE8F883500000202DE9F0415A
:10085000044600F075F906465CB1022084F83500C4
:10086000002584F834502068016821F001010160FE
:100870000DE00120BDE8F08100F062F9801B052841
:1008800005D920206065032084F83500F2E7206850
:100890000068C007F0D12268116820480140D4E9FF
:1008A00001031843D4E903363343184363691843FB
:1008B000A3691843E3691843236A18430843616A2C
:1008C000042903D1D4E90B131943084310602068AD
:1008D0004069666A20F0070130460E43012704286C
:1008E0000CD1A06A0643E06A40B12046FFF7F8FC4D
:1008F00020B14020606584F83570BAE72068466111
:100900002046FFF7D9FC94F85C203F21914081609C
:10091000656584F835700020ACE700003F8010F07A
:1009200070B5044600F00CF90546601C02D004487E
:100930000078044400F004F9401BA042FAD370BDD3
:10094000440000202DE9F84FDFF8BCA1002201256A
:1009500003264FF00F090AF1040BAAF1040E00BFA1
:100960000B6805FA02F42340A34270D10F7907F017
:100970000307012F01D0022F16D187684FEA4208E2
:1009800006FA08FC27EA0C07D1F80CC00CFA08FCA0
:100990004CEA070CC0F808C04768A7430C79C4F3B9
:1009A000001494403C4344600C79E443A4070AD00B
:1009B000C4684FEA420C06FA0CF7BC438F6807FA8A
:1009C0000CF72743C7600C7904F00304022C12D102
:1009D000D40800EB840CDCF820405707FF0E09FA1E
:1009E00007F824EA0804D1F8108008FA07F848EA62
:1009F0000408CCF8208004684FEA420C06FA0CF791
:100A0000BC430F7907F0030707FA0CF72743076089
:100A10004C6814F4403F70D03C4C276847F4804742
:100A20002760246822F0030704F480440094384CC3
:100A300007EB040CDCF8084897074FEA177809FA27
:100A400008F7BC43334FB84202D1002724E054E0FA
:100A5000314FB84201D101271EE0304FB84201D1D9
:100A6000022719E02E4FB84201D1032714E02D4F81
:100A7000B84201D104270FE02B4FB84201D105271E
:100A80000AE02A4FB84201D1062705E0284FB842B4
:100A900001D1072700E0082707FA08F72743CCF819
:100AA0000878DAF800405746D1F804C09C435FEA62
:100AB000CC2C00D51C433C60DBF800405F46D1F8ED
:100AC00004C09C435FEA8C2C00D51C433C60DEF8DC
:100AD00000407746D1F804C09C435FEA8C3C00D5C7
:100AE0001C433C60084F083F3C68D1F804C09C435D
:100AF0005FEACC3C00D51C433C60521C102AFFF43A
:100B00002FAFBDE8F88F0000083C01404438024098
:100B10000030014000000240000402400008024092
:100B2000000C024000100240001402400018024075
:100B3000001C02400AB1816170470904FBE7000014
:100B400001488068704700004400002070B5040030
:100B500025D094F83D00002520B984F83C5020466B
:100B600000F052FA242084F83D002068016821F04A
:100B7000010101602068016841F4004101602068C2
:100B8000016821F40041016000F0A6FB4D4A616854
:100B9000914201D84C4900E04C49884201D20120E1
:100BA00070BD4B492368B0FBF1F15E6826F03F064B
:100BB0000E435E606368934206D94FF496735943BF
:100BC0004FF47A73B1FBF3F12368491C1E6A26F0D7
:100BD0003F06314319626168914210D84900401EB6
:100BE000B0FBF1F2521CC2F30B02042A01D2042022
:100BF00022E0B0FBF1F0401CC0F30B001CE0A26847
:100C0000F2B301EBC10303EB0116431EB3FBF6F392
:100C10005B1C43F480431B0549D092B301EBC10236
:100C200002EB0111401EB0FBF1F0401CC0F30B00C1
:100C300040F4804040F400402168CA694CF6FF73DC
:100C40009A431043C861D4E9071001432068026841
:100C500022F0C00211430160D4E90301014320687E
:100C6000826848F2FF339A4311438160D4E9050159
:100C700008432168CA6822F0FF021043C86001E0FF
:100C80000EE016E02068016841F001010160256472
:100C9000202084F83D00256384F83E50002070BD7C
:100CA00001EB4106431EB3FBF6F35B1CB3E70120E7
:100CB000C2E701EB4101401EB0FBF1F0401CC0F364
:100CC0000B00B7E7A086010080841E0000093D00EC
:100CD00040420F002DE9FF4F83B09A46DDE91187AE
:100CE00093460446DDF84090FFF72AFF054694F846
:100CF0003D00202870D11923012274492046009517
:100D000001F03CF80028F5D194F83C00012863D0AC
:100D1000012084F83C0020680168C90703D10168FC
:100D200041F0010101602068016821F40061016067
:100D3000222084F83D00402084F83E0000262664EE
:100D4000C4F82490A4F82A80608D20856048E06271
:100D5000CDE9007553465A462046049900F010FF2D
:100D6000002879D1208DD0B1012821D00228206817
:100D700024D0416980690090208D032866D801281D
:100D80002BD0544902283B464FF00002009557D023
:100D90008846204600F0F2FF00285DD13AE0206846
:100DA000416981690091016841F4007101607DE051
:100DB0002068016821F480610160F0E7016821F496
:100DC000806101602068016841F400610160206871
:100DD00041698069009069E075E02A4639462046FD
:100DE00001F072F888BB54E02068016841F400719A
:100DF000016020680069616A0870606A401C606276
:100E0000218D491E2185618D491E618521680969F1
:100E1000017042E02068016821F48061016020686F
:100E20000069616A0870606A401C6062208D401E23
:100E30002085608D401E60853B460022414600951E
:100E4000204600F09BFF00B9CEE705E02A46394670
:100E5000204601F039F818B1012007B0BDE8F08F45
:100E600020680069616A0870606A401C6062208DB9
:100E7000401E81B22185608D401E608520684269D8
:100E8000D243520712D4032903D1016821F48061AF
:100E9000016020680069616A0870606A401C6062D5
:100EA000208D401E2085608D401E6085208D00288D
:100EB0007FF462AF202084F83D0084F83E6084F81F
:100EC0003C600020C9E70220C7E7000002001000D4
:100ED0000000FFFF040001002DE9FF4F83B09A4698
:100EE000DDE9119793460446DDF84080FFF728FEC0
:100EF000054694F83D0020287FD11923012240495E
:100F00002046009500F03AFF002876D194F83C0086
:100F1000012872D0012084F83C0020680168C907CC
:100F200003D1016841F0010101602068016821F4EA
:100F300000610160212084F83D00402084F83E00DB
:100F400000262664C4F82480A4F82A90608D2085A9
:100F50002C48E062CDE9007553465A462046049974
:100F600000F08CFE70B930E02A463946204600F089
:100F7000E3FF58B1206C042804D12068016841F4D3
:100F800000710160012007B0BDE8F08F606A216840
:100F900000780861606A401C6062218D491E89B238
:100FA0002185628D521E628522685369DB435B078F
:100FB0000BD469B100781061606A401C6062208DBA
:100FC000401E2085608D401E6085208D0028CBD17D
:100FD0002A463946204600F0A5FE0028CAD154F81A
:100FE0003D0B016841F400710160202004F81E09E6
:100FF000E67766770020C6E7FFE70220C3E7000038
:10100000020010000000FFFF10B586B00446142156
:101010006846FFF70DF913492068884220D112482D
:101020000021026842F002020260006800F0020043
:101030000590C02000901220CDE90101032003900B
:101040000420049069460948FFF77CFC06481030EC
:10105000016841F400110160006800F4001005907F
:1010600006B010BD00540040303802400004024079
:101070000248816802781144816070474400002072
:101080000B4810B5016841F400710160016841F43A
:1010900080610160016841F480710160032000F00B
:1010A0006FF80F2000F006F800F024F8002010BDC3
:1010B000003C024070B50D4D04464FF47A7128781B
:1010C000B1FBF0F00A490968B1FBF0F000F073FCE5
:1010D00048B9102C07D200222146501E00F030F8EB
:1010E00000206C6070BD012070BD00004400002035
:1010F000500000200A4808B5016841F480410160B1
:10110000006800F4804000900548001F016841F02D
:1011100080510160006800F08050009008BD000020
:1011200044380240002809DB00F01F0201219140F1
:101130004009800000F1E020C0F800117047000075
:10114000F0B40E4B1B680C46C3F30223C3F1070532
:10115000042D00D90425191D072901D2002300E020
:10116000DB1E012606FA05F1491E214099409E40EA
:10117000761E16403143F0BC02F0CCB90CED00E015
:10118000064900F0070208684FF6FF03184040EADE
:101190000220034A10430860704700000CED00E095
:1011A0000000FA052DE9F0470E46050065D0DFF88E
:1011B0001481D8F80000F7B200F00700B04207D25F
:1011C00088F80070D8F8000000F00700B04254D151
:1011D00028683D4C810712D5400703D5206840F4AC
:1011E000E05020602878000703D5206840F4604074
:1011F00020602068A96820F0F0000843206028786B
:10120000C0072DD0304968680839012812D002285B
:1012100013D0032811D00968890700292DDA216825
:1012200021F0030101432160FFF78AFC814641F26E
:10123000883A0EE009688903EFE709688901ECE75D
:10124000FFF77EFCA0EB0901514502D90320BDE860
:10125000F0872068696800F00C00B0EB810FEFD1D7
:10126000D8F80010404601F00701B14207D90770D5
:10127000006800F00700B04201D00120E7E72878BD
:10128000400705D52068E96820F4E0500843206055
:101290002878000706D52068296920F4604040EAD4
:1012A000C100206000F038F82168084AC1F303113A
:1012B000515CC8400649086006480068FFF7FAFE1E
:1012C0000020C4E7003C024008380240CC28060851
:1012D00050000020480000200448054900680968C3
:1012E000044AC1F38221515CC8407047500000207D
:1012F00008380240DC2806080448054900680968E7
:10130000044AC1F34231515CC8407047500000208C
:1013100008380240DC280608154810B5006810F0AF
:101320000C02144813D01449042A0FD0082A0ED1F5
:101330000F4C241F2268236802F03F025B0207D58E
:101340002068C0F38810A0FB010106E0084610BD2C
:101350002168C1F38811A1FB00010023FEF730FFD3
:101360002168C1F30141491C4900B0FBF1F010BDF7
:10137000083802400024F40040787D012DE9F84F40
:1013800004006ED02078DFF84C93C007A9F1040563
:101390004AD009F104000168C1F38101012908D094
:1013A0000068C0F3810002280AD1D9F80000400289
:1013B00006D52868800337D560680028E1D033E07F
:1013C0006068B0F5803F10D0B0F5A02F286810D02D
:1013D00020F480302860286820F48020286060682D
:1013E000A8B1FFF7ADFB06460DE0286840F4803059
:1013F000F4E740F480202860F7E700BFFFF7A0FB88
:10140000801B642873D828688003F7D50CE0FFF7A9
:1014100097FB064605E000BFFFF792FB801B6428A0
:10142000F0D828688003F7D42078DFF8AC828007F2
:101430004FF0000A3ED5A748001D016811F00C0FBF
:1014400008D00068C0F3810002280BD1D9F8000051
:10145000400207D42868800716D5E068012800D12B
:1014600012E033E1E068B8B10120C8F80000FFF7EE
:1014700067FB064605E000BFFFF762FB801B022802
:10148000C0D828688007F7D52868216920F0F800BF
:1014900040EAC10028600DE0C8F800A0FFF750FB4B
:1014A000064604E0FFF74CFB801B02281FD8286883
:1014B0008007F7D42078000722D5864F87486169D6
:1014C000703771B101210160FFF73AFB064604E075
:1014D000FFF736FB801B022809D838688007F7D54C
:1014E0000EE0C0F800A0FFF72BFB064605E082E007
:1014F000FFF726FB801B02287DD838688007F7D4C9
:101500002078400768D5DFF8CCB100270BF13C0B01
:10151000DBF80000C0000BD4DBF8001041F0805174
:10152000CBF80010DBF80000012700F0805000909D
:101530006B4E3068C00510D4306840F48070306065
:10154000FFF7FEFA009005E0FFF7FAFA0099401A5B
:10155000022850D83068C005F6D55E4EA0686C36BB
:1015600001280FD00528306810D020F0010030602D
:10157000306820F004003060A068B8B1FFF7E0FAEE
:1015800000900FE0306840F00100F4E740F0040004
:101590003060F7E7FFF7D4FA0099411A41F288303A
:1015A000814266D830688007F4D50EE0FFF7C8FAAC
:1015B000009007E0FFF7C4FA0099411A41F2883021
:1015C000814256D830688007F4D42FB1DBF8001080
:1015D00021F08051CBF80010A069C8B33D49091D26
:1015E0000968C1F3810102294AD00228504607D078
:1015F000C8F8600000E03CE0FFF7A2FA04463BE0D8
:101600004746C8F86000FFF79BFA064605E000BFB2
:10161000FFF796FA801B02282BD828688001F7D4A0
:10162000D4E907010843A16A2E4A490802EB0141A7
:10163000626A41EA8211084394F82C1040EA016181
:10164000C9F8001001203866FFF77AFA044606E070
:101650003EE000BFFFF774FA001B022809D8286893
:101660008001F7D534E000BFFFF76AFA001B0228BB
:1016700002D90320BDE8F88F28688001F4D427E060
:101680000128F7D0D9F80000E26900F48001914206
:101690001CD1226A00F03F01914217D147F6C07178
:1016A000626A0140B1EB821F10D1A26A4FF0FF3392
:1016B00000F4403103EB5202B1EB024F06D194F833
:1016C0002C1000F07060B0EB016F01D00120D1E769
:1016D0000020CFE70438024000004742800E474216
:1016E000007000400000FFFF70B5040009D0606A80
:1016F000002540B125616561A56294F8510040B1B3
:101700000CE0012070BD6068B0F5827FF4D0E56127
:10171000F2E784F85050204600F044F8022084F8A4
:1017200051002068016821F040010160A0882189F2
:1017300000F4827001F404410843A18901F40061BE
:101740000843217C01F002010843217D01F00101E1
:101750000843218B01F400710843217F01F0380117
:10176000084394F8201001F080010843218D01F412
:101770000051084321680860A069042101EA104073
:1017800094F8241001F01001084321684860206893
:10179000C16921F40061C1616565012084F85100CF
:1017A000002070BDF0B587B0064614216846FEF7EC
:1017B0003FFD2249306888423DD12148002501681B
:1017C00041F480510160006800F4805005901C488D
:1017D0001438016841F001010160006801A900F0BE
:1017E00001000590E02000900220032781E8A1007D
:1017F0000520049069461348FFF7A4F8134C1248DB
:101800002060780660604020C4E902050001C4E958
:101810000405A5610420E561C4E90850F805C4E9A0
:101820000A70801020632046FFF710F808B1FEF719
:1018300084FDB464A66307B0F0BD00000030014031
:101840004438024000000240586402401801002061
:101850002DE9F84F984616468A460446FFF770F978
:10186000814694F8510001281ED1BAF1000F73D0BF
:10187000002E71D094F85000012815D0012784F86B
:101880005070032084F8510000256565C4F830A02D
:10189000A686E686A563A587E58765642564A068B6
:1018A000B0F5004F03D00CE00220BDE8F88F2068AF
:1018B000016821F0400101602068016841F4804125
:1018C000016020680168490603D4016841F04001C5
:1018D0000160E068B0F5006F606803D048B3012E86
:1018E00027D047E008B1012E1FD1206B2168008866
:1018F000C86006E020688168890709D5216B0988DE
:10190000C160206B801C2063E08E401EE0860CE0EE
:10191000FFF716F9A0EB0901414503D3B8F1FF3FEA
:1019200003D035E0B8F1000F32D0E08E0028E1D1CD
:1019300023E0206B21680078087306E02068816846
:1019400089070AD5216B09780173206B401C20633D
:10195000E08E401EE0860DE02BE0FFF7F1F8A0EBF3
:101960000901414503D3B8F1FF3F03D010E0B8F1BE
:10197000000F0DD0E08E0028E0D14A4641462046B7
:1019800000F0A8FC08B120206065A06830B109E033
:1019900084F8517084F85050032086E72068C168AD
:1019A0008068009084F8517004F8505F60680028E7
:1019B000F3D0012079E710B5401EB0F1807F01D34C
:1019C000012010BD4FF0E02460610F21601701F08D
:1019D000A1FD0020A06107202061002010BD70B58E
:1019E000040004D094F84100002510B106E0012065
:1019F00070BD84F84050204600F024F8242084F87C
:101A000041002068C16821F40051C160204601F006
:101A100099FC2068016921F49041016120684169C5
:101A200021F02A0141612068C16841F40051C16080
:101A30006564202084F8410084F84200656300203A
:101A400070BD000010B586B0044614216846FEF74C
:101A5000EFFB14492068884221D113480021026815
:101A600042F010020260006800F0100005900E487D
:101A70001438026842F001020260006800F00100C0
:101A800005904FF4C06000900220CDE901010320D1
:101A900003900720049069460448FEF753FF06B000
:101AA00010BD000000100140443802400000024018
:101AB0002DE9F843044690F84100984616460D4635
:101AC000202802D00220BDE8F88385B17EB1002035
:101AD0006064212084F84100FFF732F8A684814633
:101AE000E684A0682027B0F5805F02D003E00120E3
:101AF000E9E7206910B12E4600250EE000260CE033
:101B00008021204601F0A4FCA8B9C6B116F8010B4B
:101B100021684860E08C401EE084E08C4B464FF02A
:101B20000002CDF800800028EAD14FF040012046A5
:101B300001F08EFC40B184F841700320C3E735F812
:101B4000020BC0F30800E3E784F841700020BAE715
:101B5000FEE701684A69D24352050FD46FF48062F0
:101B60004A61002140F8301F2022427381730269CC
:101B700042F00402026101730120704700207047A7
:101B80002DE9F84F0446006889460B9D0168984688
:101B9000174641F4806101602068016841F480715A
:101BA000016000954FF0011B0022594620460A9B18
:101BB00000F0E4F84FF4007A40B120680068C005F6
:101BC00001D5C4F840A00320BDE8F88F216809F0D2
:101BD000FE0008612B46284920460A9A00F016F9B3
:101BE000F0BB20684169806900902A4620460A9926
:101BF00000F0A2F940B1206C04283AD120680168B5
:101C000041F40071016034E0FEB2B8F1010F09D077
:101C10002168380A08612A4620460A9900F08CF9A2
:101C20000028E8D1206806612A4620460A9900F07B
:101C300083F90028DFD12068016841F480710160D8
:101C400000950022594620460A9B00F097F800288C
:101C5000B3D1216809F0FF0040F00100086100E005
:101C600007E02B46044920460A9A00F0CFF80028E6
:101C7000AAD00120A8E70000020001002DE9F843E6
:101C8000044600680D46DDE9089701689846164647
:101C900041F4807101604B4600224FF00111204653
:101CA000009700F06BF848B120680068C00502D5C5
:101CB0004FF4007020640320BDE8F883216805F02C
:101CC000FE0008613B464A461549204600F09EF852
:101CD00088B920684169806900903A4649462046A3
:101CE00000F02AF948B1206C042804D1206801686A
:101CF00041F4007101600120DEE7F5B2B8F1010F97
:101D000009D02168300A08613A464946204600F069
:101D100013F90028E7D1206805610020CCE7000016
:101D20000200010070B516460D4604461EE020462E
:101D3000FFF70FFF08B1012070BD681C16D0FEF739
:101D4000FFFE801BA84200D885B920684069C043C7
:101D500040070BD5002044F8300F20216173A07399
:101D6000216941F0200121612073E4E72068406986
:101D7000C0434007DBD4002070BD00002DE9F047D0
:101D8000984617460D460446C1F30746DDF82090F5
:101D90002AE000BFB8F1FF3F26D0FEF7D1FEA0EB4E
:101DA0000901414502D8B8F1000F1DD12068012E6C
:101DB00016D0806925EA00000004000C12D0002033
:101DC000B84211D1002044F8300F20216173A07374
:101DD000216941F02001216120730120BDE8F087D5
:101DE0004069E7E70120EBE72068012E0AD080690F
:101DF00025EA00000004000C06D00020B842C9D03B
:101E00000020EBE74069F3E70120F7E72DE9F04711
:101E1000984616460D4604464FF000094FF0200A3A
:101E2000C1F3074723E020684069C043400515D44B
:101E30002068016841F40071016021686FF48060DE
:101E40004861C4F8309084F83DA084F83E90216C3D
:101E500041F00401216484F83C9021E0701C06D01C
:101E6000FEF76EFEA0EB0800B04203D816B1012FBA
:101E70001FD021E02068012F15D0806925EA0000DD
:101E80000004000C18D000BF44F8309F84F80DA067
:101E900084F80E90216941F02001216184F80C90B2
:101EA0000120BDE8F087406925EA00000004000C2D
:101EB000EAD12068406901E02068806925EA0000D5
:101EC0000004000CAFD1ECE72DE9F041002590466D
:101ED0000E460446202728E04069C043C0060CD4C3
:101EE00054F8301B6FF01000486144F810596777C0
:101EF000A577206A2062257714E0FEF721FEA0EB8B
:101F00000800B04200D886B920684069C043400646
:101F10000BD544F8305F6773A573206940F020004B
:101F2000206125730120BDE8F08120684169C94323
:101F30004906D1D40020F6E770B516460D46044692
:101F40001EE02046FFF705FE08B1012070BD681CA9
:101F500016D0FEF7F5FD801BA84200D885B9206891
:101F60004069C04300060BD5002044F8300F202103
:101F70006173A073216941F0200121612073E4E7BE
:101F800020684069C0430006DBD4002070BD00001B
:101F90002DE9F04186B014216846FEF749F9294839
:101FA0000024016841F004010160016801F00401AE
:101FB0000591016841F080010160016801F0800134
:101FC0000591016841F001010160016801F0010122
:101FD0000591016841F002010160016801F0020110
:101FE0000591016841F0400101600068164F00F062
:101FF00040000590002240213846FEF79BFDDFF8A7
:102000004C8042F22046002231464046FEF792FDC7
:10201000012251034046FEF78DFD4020009001252E
:10202000CDE90154694638460394FEF78BFC0096CF
:10203000CDE90154694640460394FEF783FC06B09F
:10204000BDE8F0813038024000080240001802402C
:102050000D4810B50B4901600C49416000214FF457
:1020600080428160C0E9031241618161C161016206
:10207000FEF76CFD002803D0BDE81040FEF75DB907
:1020800010BD0000005400406C000020400D030013
:1020900010B5174C15484FF48271C4E9000101686E
:1020A00041F400410160016841F480410160002178
:1020B000E1604FF480222161C4E905121022C4E9D5
:1020C00007216162A1620A21E16202214160816807
:1020D000C90700D0C0680648FFF706FB08B1FEF745
:1020E0002CF903485830A06410BD000000300140B6
:1020F000C00000200C4810B50A4901604FF4E131DE
:102100004160002181600C22C160C0E9041281613C
:10211000C161FFF764FC002803D0BDE81040FEF762
:102120000CB910BD0010014078010020FEE700004E
:10213000FEB541790446022972D8481EC2B22379FD
:10214000002601253748012B0CD0022B22D0032B6F
:1021500066D102EB420200EB8205A87A002837D054
:1021600031A038E002EB4201238820F8213000EB57
:10217000810762887A80FEF7E3FC78603D727E72A8
:10218000BE7263882288617903B02DA0BDE8F0405B
:1021900001F098B902EB420100EB8102937A002B27
:1021A0003ED1238830F82100181A00D540426188BA
:1021B0005388C91A00D549420A2801D80A292FD9BB
:1021C0009572617903B026A0BDE8F04001F07AB9BC
:1021D000687A18B129A001F075F91EE0FEF7B0FC8D
:1021E0006968421A61792DA001F06CF9364C20889B
:1021F00000F5FA6080B2208000F0FEFB4FF6FF7120
:102200004FF47840CDE901013048416800910368FE
:1022100022886421782000F0A9FF2E606E60AE60F5
:10222000FEBD000054000020546F756368202564D3
:102230003A204D4F564520454E4445440D0A000076
:10224000546F7563682025643A2050726573736516
:1022500064206174202825642C202564290D0A003F
:10226000546F7563682025643A204D4F56452053BE
:102270005441525445440D0A00000000546F7563E8
:10228000682025643A204C4F4E4720505245535306
:102290002052454C45415345440D0A00546F756327
:1022A000682025643A2053484F525420434C4943F8
:1022B0004B20284475726174696F6E3A2025642042
:1022C0006D73290D0A00000000000020300000207E
:1022D000FEE77047F8B515460E460B4600920446D9
:1022E0000122022100F02CF8A0B91348134900681C
:1022F000B0FBF1F04FF47A71484300906068B0F59C
:10230000827F0DD13346002280212046009500F0C7
:1023100017F870B1606D40F0200060650320F8BDD3
:10232000009830B1401E009020688068C0430006CD
:10233000F6D50020F8BD00005000002000366E01E8
:102340002DE9F8431E46914688460446089DFEF74F
:10235000F7FB401B351AFEF7F3FB074626480068DB
:10236000C0F3CB3068430AE0701C09D0FEF7E8FBED
:10237000C01BA8420FD275B10098B8B3401E0090A0
:102380002068816838EA010033D000214945EBD14B
:102390000020BDE8F8832068416821F0E001416039
:1023A0006068B0F5827F0BD1A068B0F5004F02D015
:1023B000B0F5806F04D12068016821F04001016010
:1023C000A06AB0F5005F09D12068016821F40051CE
:1023D00001602068016841F400510160012084F827
:1023E0005100002084F850000320D2E7FFE70025C9
:1023F000C6E70121CAE70000500000202DE9FF4F89
:102400000746500014460E46C2F10108C0F1000A0A
:10241000002583B04FF001092A464FF4005140488F
:10242000FEF788FB301981B23846069A00F058FA58
:10243000301B81B23846069A00F052FA381980B241
:102440003146069A00F04CFA381B80B23146069AA3
:1024500059E000BFB8F1000F09DB0AF102000FFAE2
:1024600080FA641E08EB0A0024B20FFA80F809F122
:1024700002000FFA80F96D1C08EB09002DB20FFA6B
:1024800080F87819019006EB040B1FFA8BF180B2EB
:10249000069A00F025FA781B00901FFA8BF180B2A3
:1024A000069A00F01DFA0198A6EB040B1FFA8BF1B7
:1024B00080B2069A00F014FA00981FFA8BF180B2ED
:1024C000069A00F00DFA3819019006EB050B1FFA79
:1024D0008BF180B2069A00F003FA381B00901FFAC5
:1024E0008BF180B2069A00F0FBF90198A6EB050B80
:1024F0001FFA8BF180B2069A00F0F2F900981FFAE9
:102500008BF180B2069A00F0EBF9A542A2DB07B08E
:102510000122BDE8F04F51030148FEF70BBB00005C
:10252000001802402DE9FE4F14460D460746984616
:1025300000224FF400514048FEF7FCFAC4F10100BC
:102540000FFA80F9C4EBC43040000FFA80FB281961
:1025500081B24FF0010A0026B8B2424600F0C0F93D
:10256000281B81B2B8B2424600F0BAF9381902907D
:10257000A9B280B2424600F0B3F9381B0190A9B26B
:1025800080B2424600F0ACF90298ABB2CDF80080C0
:1025900082B2A9B241E000BFB9F1000F09DB0BF133
:1025A00002000FFA80FB641E09EB0B0024B20FFA45
:1025B00080F90AF102000FFA80FA761C09EB0A0092
:1025C00036B20FFA80F9B81982B20290B81BCDE981
:1025D000008029198BB289B280B200F02FF90198DE
:1025E000291B82B202988BB2CDF8008089B280B2EA
:1025F00000F024F9391BA8198AB2029183B281B282
:102600003819CDE9008080B200F018F90299A81BB2
:102610008AB283B2CDF8008081B2019880B200F016
:102620000DF9A642B8DB03B00122BDE8F04F51031B
:102630000148FEF77FBA0000001802402DE9F84F6C
:10264000DFF87CB090460D4606464FF4005A1F4610
:10265000002251465846DDF82890FEF76BFA4FF4F9
:10266000A072964229D24FF48C718D4225D206EB8E
:102670000800904203D3C6F5A0701FFA80F8E8194D
:10268000884202D3C5F58C7087B20024B0440BE0B9
:10269000281983B281B21FFA88F23046CDF8009033
:1026A00000F0CCF8641CE4B2BC42F1D95146584663
:1026B000BDE8F84F0122FEF73DBABDE8F88F0000F3
:1026C000001802402DE9FE4F9146884604469A467E
:1026D00000224FF400513148FEF72CFA0027A9EBF5
:1026E0000400002801DCA4EB090001B2AAEB0800F9
:1026F000002801DCA8EB0A0000B226B20FFA88F528
:102700004FF0FF32A14503D34FF0010BD94601E052
:102710009346D946C24502D30122019200E00192BC
:10272000924681424FF0000207DB9346924601EB4E
:10273000D17254108846029026E091460022019200
:1027400000EBD0725410804602911DE00E98DDE936
:102750000C230090A9B2B0B200F070F802982044A7
:1027600004B2444508DBA4EB080004B206EB0B00FE
:1027700006B20198284405B206EB090006B205EB43
:102780000A007F1C05B23FB24745DFDD03B00122DE
:10279000BDE8F04F51030148FEF7CCB900180240E4
:1027A0002DE9F05F0746DDF828A01C4615460E46C9
:1027B0005FEA0A003ED04FF4A0718F423AD24FF444
:1027C0008C72964236D2002D34D0002C32D007EBDA
:1027D0000509894502D9C7F5A07000E0284606EB37
:1027E000040881B2904502D9C6F58C7000E0184605
:1027F00080B200291ED000281CD04FF4005B0022BC
:1028000059460D48FEF796F9A8F1010083B2A9F1E7
:10281000010082B23146384600F0C2F969006143D6
:10282000504600F00DFC5946BDE8F05F0122024819
:10283000FEF780B9BDE8F09F001802402DE9F05F77
:102840000C460646181B1546002800DCE01AA91B9A
:10285000002900DC711B884207DD304626461D46F4
:102860004FF001080446134601E04FF00008AE4265
:1028700005D930462E46054620461C460346A81B71
:102880000FFA80F9181B002800DCE01A0FFA80FB11
:1028900009EBD97047109C4201D2012001E04FF0B2
:1028A000FF30824618E000BF0A9AB8F1000F02D04C
:1028B0003146204601E02146304600F011F8A7EBF2
:1028C0000B0007B2002F05DA04EB0A0084B207EB15
:1028D000090007B2761CB6B2AE42E5D9BDE8F09F5A
:1028E00038B51446B0F5A07F1CD2B1F58C7F19D253
:1028F0000B46024600F054F9200A8DF800008DF8CE
:102900000140094D4FF40054002221462846FEF7AD
:1029100011F90221684600F093FB01222146284666
:10292000FEF708F938BD0000001802402DE9F84F05
:10293000174F90468A4681464FF400561D460022A6
:10294000314638460A9CFEF7F5F85346424619468A
:1029500048460094FFF772FF4A462B465146104600
:102960000094FFF76BFF2B464246194648460094F9
:10297000FFF764FF42462B46514610460094FFF78E
:102980005DFF31463846BDE8F84F0122FEF7D2B868
:10299000001802402DE9FF4F81B0164FDDE90F54BA
:1029A000894682464FF400569B46002231463846FF
:1029B000DDF83880FEF7BEF85B4600944946504685
:1029C000039AFFF73BFF2B46424659460094039873
:1029D000FFF734FF4B465246294640460094FFF726
:1029E0002DFF05B031463846BDE8F04F0122FEF715
:1029F000A1B80000001802402DE9F84F054600215B
:102A000040F2171340F23F12084600F0C9F8DFF811
:102A100050B04FF4005A002251465846FEF78AF84B
:102A200000242E0AEFB24FF48C784FF4A0790025E1
:102A30008DF800608DF801700221684600F000FBFF
:102A40006D1CADB24545F3D3641CA4B24C45EED326
:102A500051465846BDE8F84F0122FEF76BB800001A
:102A6000001802401FB51920FDF75AFF414C002203
:102A700020212046FEF75EF81920FDF751FF0122C4
:102A800020212046FEF756F83220FDF749FF3A2074
:102A900000F0B6FA552000F079FBB22000F0B0FA51
:102AA00035A1D1E90001CDE900010521684600F01A
:102AB000C7FA012000F0B2F8B72000F0A1FA3520E3
:102AC00000F064FBBB2000F09BFA192000F05EFBD5
:102AD000C02000F095FA2C2000F058FBC22000F036
:102AE0008FFA012000F052FBC32000F089FA122077
:102AF00000F04CFBC42000F083FA202000F046FBDD
:102B0000C62000F07DFA0F2000F040FBD02000F03E
:102B100077FAA42000F03AFBA12000F037FBE02078
:102B200000F06EFA16A00FC88DE80F000E2168465F
:102B300000F086FAE12000F063FA15A10FC98DE8D4
:102B40000F000E21684600F07BFA202000F058FAB2
:102B5000112000F055FA132000F052FA292000F05D
:102B60004FFA3220FDF7DCFE04B01F20BDE8104014
:102B7000FFF742BF001802400C0C00333300000086
:102B8000D0040D11132B3F544C180D0B1F230000C4
:102B9000D0040C11132C3F44512F1F1F2023000081
:102BA0002DE9F843DFF8709015460E4607464FF4BE
:102BB00000581C46002241464846FDF7BBFF2A202C
:102BC00000F01EFA380A8DF800008DF80170280A0E
:102BD0008DF802008DF803500421684600F030FAA9
:102BE0002B2000F00DFA300A8DF800008DF80160FE
:102BF000200A8DF802008DF803400421684600F099
:102C00001FFA2C2000F0FCF941464846BDE8F84385
:102C10000122FDF78FBF00000018024010B50446E6
:102C2000362000F0EDF954B1012C0AD0022C0AD064
:102C3000032C0AD16020BDE8104000F0A7BAC020E4
:102C4000F9E7A020F7E70020F5E710BD2DE9FE4FDA
:102C50004FF6FF752846FFF7CFFE4FF47A7B5846B4
:102C6000FDF75EFE4FF47848994CCDE90185606828
:102C7000009098A214210A20236800F0A7FA584671
:102C8000FDF74EFE6810FFF7B7FE4FF4FA773846AF
:102C9000FDF746FE4046FFF7AFFE3846FDF740FE23
:102CA0001F20FFF7A9FE3846FDF73AFE4FF4FC60FF
:102CB000FFF7A2FE3846FDF733FE4FF6E0763046CA
:102CC000FFF79AFE3846FDF72BFE4BF64040FFF724
:102CD00093FE3846FDF724FE40F2CF10FFF78CFE3E
:102CE0003846FDF71DFE4FF61F094846FFF784FEE4
:102CF0003846FDF715FE48F21F40FFF77DFE3846C7
:102D0000FDF70EFE4CF21860FFF776FE3846FDF731
:102D100007FE42F61230FFF76FFE3846FDF700FE61
:102D20002846FFF769FE3846FDF7FAFD68116C4F3B
:102D3000CDE90105786800900A216AA208463B683F
:102D400000F044FA6A48CDE90185416800910368C2
:102D500068A232210A2000F039FACDE901656068E5
:102D6000009064A24B210A20236800F02FFACDE9DD
:102D70000195786800905FA264210A203B6800F00A
:102D800025FA5846FDF7CCFD4046FFF735FE0027F3
:102D9000CDE90167606800900A215AA208462368BD
:102DA00000F014FA64231E211A4608460095FFF726
:102DB000BDFD5846FDF7B4FD4046FFF71DFECDE9C9
:102DC0000167606800900A2151A20846236800F05C
:102DD000FDF932231E211A4608460095FFF72EFC06
:102DE0005846FDF79DFD4046FFF706FECDE9016719
:102DF000606800900A214AA20846236800F0E6F9BC
:102E00003C212B4619220846FFF7F8FA5846FDF7F1
:102E100087FD4046FFF7F0FDCDE90167606800904F
:102E20000A2141A20846236800F0D0F93C212B4634
:102E300019220846FFF776FB5846FDF771FD40461C
:102E4000FFF7DAFDCDE90167606800900A2139A239
:102E50000846236800F0BAF94FF03C0A4FF0280901
:102E6000CDF800A01E22CDE901954623114610465B
:102E7000FFF790FD5846FDF753FD4046FFF7BCFDB8
:102E8000CDE90167606800900A212DA208462368F9
:102E900000F09CF9CDF800A01E22CDE90195462353
:102EA00011461046FFF70EFC5846FDF739FD28463F
:102EB000FFF7A2FD25488023002100901A4608460E
:102EC000FFF76EFCBDE8FE4F40F6B830FDF728BDB9
:102ED00028000020537065656420546573740000F9
:102EE00030000020466F6E7420746573742E0000ED
:102EF0002000002048656C6C6F2053746576652156
:102F000000000000526563742E2F4C696E652E0020
:102F100046696C6C656420526563742E0000000085
:102F2000436972636C652E0046696C6C656420436E
:102F300069722E00547269616E676C650000000052
:102F400046696C6C6564205472690000C4620008B4
:102F50000FB42DE9FF5F0C46DDE913A905461F46B6
:102F600000224FF400512548FDF7E4FDC7F3072682
:102F7000601E304483B2FFB2681E384482B22146DC
:102F80002846FFF70DFE00252CE01098203810FB96
:102F900006501299002409F0FF0B31F810804FEA17
:102FA0001A2002900AF0FF0001904FEA19200090C9
:102FB00015E000BF08FA04F0000406D502988DF869
:102FC0000C0001988DF80D0004E000988DF80C00BD
:102FD0008DF80DB0022103A800F032F8641CA7425E
:102FE000E8D86D1CAE42D0D804B00122BDE8F01F75
:102FF000510302485DF814EBFDF79CBD0018024038
:1030000031B50D4D4FF40054002221462846FDF7FE
:1030100091FD0022E1102846FDF78CFD4FF0FF33B3
:10302000012269460548FEF713FC01222146284685
:10303000FDF780FD38BD000000180240C0000020F0
:103040002DE9F05F164F0C4606464FF4005B002258
:1030500059463846FDF76EFD012291023846FDF7CC
:1030600069FD4FF480384FF6FF794FF0FF3A0DE0DD
:10307000444501D3484600E0204685B253462A46DF
:1030800031460848FEF7E4FB2E44641B002CEFD1C8
:1030900059463846BDE8F05F0122FDF74BBD000000
:1030A00000180240C00000202DE9F04F87B0144600
:1030B000DDE91367894605469B4600224FF400511F
:1030C0002848FDF737FD4FF4A070864200D9064628
:1030D0004FF48C70874200D90746B54239D2B945C2
:1030E00037D20BF0FF005FEA000832D0CBF30720A5
:1030F0005FEA000A2DD0002003900490059006900E
:10310000234619A2102103A800F0ECF903AC1DE03E
:1031100008EB0500B0420AD30AEB09001FFA80F958
:1031200000250AEB0900B84213D2202A0DD0DDE9B0
:103130001101CDE90101109800905B4649462846EF
:10314000FFF706FF08EB050085B2641C2278002A11
:10315000DED1012251030348FDF7ECFC07B0BDE8C6
:10316000F08F00000018024025640000F0B585B023
:103170000AAF4FF4A07C97E870004FF48C77049767
:103180008DE87010FFF790FF05B0F0BD31B50D4D23
:103190004FF40054002221462846FDF7CBFC0122C3
:1031A00091022846FDF7C6FC4FF0FF330122694625
:1031B0000548FEF74DFB012221462846FDF7BAFCE3
:1031C00038BD000000180240C00000202DE9FE4F6D
:1031D000DFF870A014460E4605464FF40059984695
:1031E000002249465046DDF838B0FDF7A3FC08F050
:1031F000FF071BE07819B0F5A07F0AD3C8F30720BA
:1032000081198EB200253044B0F58C7F11D2202A6E
:103210000BD00D99CDE9011B0C9800904346314627
:103220002846FFF795FE781985B2641C2278002A9B
:10323000E0D103B049465046BDE8F04F0122FDF70A
:1032400079BC0000001802407047FDF711BF000074
:1032500030B593B030216846FCF7EAFF14210CA882
:10326000FCF7E6FF1D480025016841F08051016030
:10327000006800F0805011901948016841F48041C5
:1032800001600068022400F4804011900120039046
:1032900010200490009406940820CDE90750A02047
:1032A000CDE9090404200B906846FEF767F808B1E1
:1032B00072B6FEE70CA90F2081E831004FF4A05050
:1032C0000F904FF48050109005210CA8FDF76AFF75
:1032D000002801D072B6FEE713B030BD403802407E
:1032E000007000400248016841F4700101607047BD
:1032F00088ED00E001680C3151E8002F22F4907253
:1033000041E80023002BF5D10168143151E8002F6A
:1033100022F0010241E80023002BF5D1016B0129C5
:1033200009D101680C3151E8002F22F0100241E868
:103330000023002BF5D1202180F8421000210163E9
:103340007047000070B5044600680169E26821F426
:103350004051114301612169A068E2690843616934
:10336000114308432168CA6849F20C639A43024337
:10337000CA6020684169A26921F44071114341612A
:1033800031492068884202D03049884202D1FDF795
:10339000B3FF01E0FDF7A0FFE269002319216425D6
:1033A0003226B2F5004F626828D0A0FB0101930FCE
:1033B0009200FCF705FF0146B0FBF5F06FF0180234
:1033C000504301EB800006EB0010B0FBF5F000F07D
:1033D000F002B1FBF5F002EB0012B1FBF5F06FF07B
:1033E0001803584301EB800006EB0010B0FBF5F02A
:1033F00000F00F0021681044886070BDA0FB01013F
:1034000092185B41FCF7DCFE0146B0FBF5F00201CF
:10341000B1FBF5F06FF01803584301EB800006EBA9
:10342000C000B0FBF5F000F0F80002EB4002B1FB89
:10343000F5F0584301EB800006EBC000B0FBF5F05F
:1034400000F00700D6E70000001001400014014022
:103450002DE9F843984617460D460446089E24E099
:10346000701C22D0FDF76CFBA0EB0800B0421AD80C
:10347000CEB12068C168490717D5802D15D0402DE1
:1034800013D00168C94309070FD4016800254068BB
:1034900000902046FFF72EFF0820606484F840501B
:1034A0000120BDE8F8830320FBE72068006835EAC7
:1034B000000004D00020B842D2D00020F1E7012063
:1034C000F9E7FEE70FB4054B10B503A9044A0298CB
:1034D00000F040F810BC5DF814FB0000CD39000886
:1034E0001C0000200FB41CB50246002007AC0029C8
:1034F0000BD0491ECDE90021054B6A4621460698AE
:1035000000F028F8009A002111701CBC5DF814FB33
:10351000B73900080907090E002804DB00F1E02094
:1035200080F80014704700F00F0000F1E02080F8F0
:10353000141D704702E008C8121F08C1002AFAD102
:1035400070477047002001E001C1121F002AFBD123
:10355000704700002DE9FF4F8DB00F46054600264D
:1035600006E025280BD0DDE90F1290476D1C761C74
:1035700028780028F5D111B03046BDE8F08F00243E
:10358000A246A1460122EC4900E0044315F8013FA0
:10359000203B02FA03F00842F7D128782A2810D0FD
:1035A0006FF02F022878A0F13001092914D80AEB16
:1035B0008A0102EB410144F0020400EB010A6D1C98
:1035C000F0E701CF5FEA000A03D544F40054CAF1E2
:1035D000000A44F002046D1C28782E2817D115F833
:1035E000010F44F004042A280ED06FF02F0228782F
:1035F000A0F1300109290AD809EB890102EB410148
:1036000000EB01096D1CF2E757F8049B6D1C28784C
:103610006C280FD006DC4C2817D068280DD06A28FB
:1036200014D104E0742810D07A280FD10DE044F4AE
:1036300000140AE044F4801401E044F44014697872
:10364000814202D104F580146D1C6D1C2A786E2A0B
:103650001FD00CDC632A31D004DC002A8BD0582A1E
:1036600011D1A3E0642A68D0692A0CD165E0732ADD
:103670002ED004DC6F2A73D0702A04D19BE0752A07
:103680006FD0782A6ED01046DDE90F129047761C75
:1036900050E1C4F30250022806D0032809D00428C0
:1036A00001CF09D0066045E101CFF117C0E9006103
:1036B00040E101CF06803DE106703BE117F8040BC5
:1036C0008DF8000000208DF80100EB46012003E09A
:1036D00057F804BB4FF0FF3061074FF0000102D4F0
:1036E0000DE008F10101884649450FDA8045F8DB15
:1036F0001BF808100029F4D108E008F10101884600
:103700008142FADB1BF808100029F6D1DDE90F230E
:10371000AAEB08008146214600F036F9304400EB60
:10372000080604E0DDE90F121BF8010B9047B8F121
:103730000108F7D221464846F7E00A21C4F30253B4
:103740004FF0000B0891022B04D001CFC117032BBF
:1037500009D00AE0FF1D27F00707F7E8020108E09B
:1037600032E01FE020E000B2C117042B01D140B2CB
:10377000C117031E71F1000307DA4FF0000CD0EB04
:103780000C006CEB01012D2302E0230504D52B2353
:103790008DF82430012303E0E30701D02023F7E76D
:1037A000984658E00A2110E010210EE010204FF05A
:1037B000000B08900CE010214FF0000B44F00404C3
:1037C0004FF00809089103E008214FF0000B089121
:1037D000C4F30253022B04D001CF0021032B06D0E7
:1037E00006E0FF1D27F00707F7E8020103E080B2BB
:1037F000042B00D1C0B24FF0000823072BD5702A4C
:1038000007D0DDF820C08CF0100C5CEA0B0C05D062
:103810000EE040238DF82430012308E050EA010334
:1038200006D030238DF824308DF8252002239846C9
:10383000DDF820C08CF0080C5CEA0B0C0BD150EAD0
:10384000010301D1630706D530238DF824304FF0F2
:103850000108A9F10109582A04D038A20B9208AA3C
:103860000A920BE03AA2F9E75B46089AFCF7A8FC3B
:103870000B9B9B5C0A9A521E0A92137050EA01023B
:10388000F2D10A98ADEB000000F1200B600702D5E1
:1038900024F4803401E04FF00109D94502DDA9EBA1
:1038A0000B0000E0002000EB0B0141440890AAEB64
:1038B000010AE00306D4DDE90F232146504600F05B
:1038C00063F806444FF0000908E009A911F809005F
:1038D000DDE90F12904709F10109761CC145F4DBBF
:1038E000E0030CD5DDE90F232146504600F04CF8EB
:1038F000064404E0DDE90F1230209047761C089959
:10390000481E08900029F5DC08E00A980A9900781A
:10391000491C0A91DDE90F129047761CBBF10001AA
:10392000ABF1010BF1DC21465046DDE90F2300F03D
:1039300019F806446D1C1BE60928010030313233AA
:1039400034353637383961626364656600000000DB
:1039500030313233343536373839414243444546C5
:10396000000000002DE9F041044600251E461746E0
:10397000880404D405E039462020B0476D1C641E3D
:10398000F9D52846BDE8F0812DE9F041044600252F
:103990001E469046C80301D5302700E02027880442
:1039A00004D505E041463846B0476D1C641EF9D584
:1039B0002846BDE8F0814A68002A06D00A68531CF0
:1039C0000B6010704868401E4860704713B54FF098
:1039D000FF33012269460248FEF76AF800981CBDD1
:1039E0007801002008B5FDF74BFBFFF731FCFEF72F
:1039F000CFFAFEF74DFBFEF72BFBFEF77BFBFFF745
:103A000031F8FFF723F90020FEF7F6FF2148802365
:103A1000002100901A460846FEF7C2FE40F6B83074
:103A2000FCF77EFF0020FEF7E7FF1B48F023002194
:103A300000901A460846FEF7B3FE4FF47A7420460B
:103A4000FCF76EFF1548F023002100901A46084647
:103A5000FEF7A6FE2046FCF763FF1148F023002185
:103A600000901A460846FEF79BFE2046FCF758FFDA
:103A70000C48FCF7CBFC08B172B6FEE70A48FCF72D
:103A8000E9FD0A20FCF74CFFFCF728FD0748FCF78E
:103A9000F7FCF6E7C4620008C4E20008C4A4020808
:103AA000C4660408040000203121000854000020EE
:103AB0000000000000000000000000000000000006
:103AC0000000000000100010001000100010001096
:103AD000000000100000000000280028002800005E
:103AE000000000000000000000000000002400248E
:103AF000007C00240048007C0048004800000000D2
:103B000000380054005000380014005400540038AD
:103B1000001000000020005400580030002800541D
:103B20000014000800000000001000280028001009
:103B3000003400480048003400000000001000106D
:103B40000010000000000000000000000000000065
:103B5000000800100020002000200020002000208D
:103B600000100008002000100008000800080008ED
:103B70000008000800100020001000380010002885
:103B80000000000000000000000000000000000035
:103B900000100010007C0010001000000000000069
:103BA0000000000000000000000000000000001005
:103BB00000100010000000000000000000000038AD
:103BC00000000000000000000000000000000000F5
:103BD00000000000000000100000000000080008C5
:103BE0000010001000100010002000200000000055
:103BF00000380044004400540044004400440038AD
:103C000000000000001000300050001000100010F4
:103C100000100010000000000038004400440004C0
:103C2000000800100020007C000000000038004464
:103C300000040018000400040044003800000000E4
:103C400000080018002800280048007C0008000830
:103C500000000000007C00400040007800040004E8
:103C600000440038000000000038004400400078A4
:103C7000004400440044003800000000007C0004C0
:103C800000080010001000200020002000000000AC
:103C90000038004400440038004400440044003828
:103CA000000000000038004400440044003C0004D0
:103CB0000044003800000000000000000010000078
:103CC00000000000000000100000000000000000E4
:103CD00000000010000000000000001000100010A4
:103CE00000000000000C003000400030000C00001C
:103CF00000000000000000000000007C0000007CCC
:103D0000000000000000000000000000006000183B
:103D100000040018006000000000000000380044AB
:103D20000004000800100010000000100000000057
:103D300000380044004C0054005C00400040003853
:103D40000000000000100028002800280028007C47
:103D50000044004400000000007800440044007863
:103D60000044004400440078000000000038004493
:103D700000400040004000400044003800000000C7
:103D800000700048004400440044004400480070B3
:103D900000000000007C00400040007C004000402B
:103DA0000040007C00000000007C004000400078E3
:103DB0000040004000400040000000000038004487
:103DC00000400040005C0044004400380000000057
:103DD000004400440044007C00440044004400448B
:103DE000000000000038001000100010001000104B
:103DF000001000380000000000040004000400046B
:103E000000040004004400380000000000440048A2
:103E100000500060005000480048004400000000CE
:103E20000040004000400040004000400040007C56
:103E3000000000000044006C006C0054004400448A
:103E4000004400440000000000440064006400548A
:103E50000054004C004C00440000000000380044B6
:103E600000440044004400440044003800000000C6
:103E700000780044004400440078004000400040C6
:103E800000000000003800440044004400440044A6
:103E9000005400380004000000780044004400444E
:103EA000007800480048004400000000003800444A
:103EB000004000300008000400440038000000000A
:103EC000007C001000100010001000100010001006
:103ED000000000000044004400440044004400444A
:103EE0000044003800000000004400440044002862
:103EF00000280028001000100000000000440044CA
:103F0000005400540054006C0028002800000000F9
:103F10000044002800280010001000280028004459
:103F20000000000000440044002800280010001099
:103F30000010001000000000007C000400080010C9
:103F4000001000200040007C00000000001800105D
:103F500000100010001000100010001000100018D9
:103F600000200020001000100010001000080008C1
:103F700000000000003000100010001000100010C1
:103F8000001000100010003000100028002800442D
:103F90000000000000000000000000000000000021
:103FA000000000000000000000000000000000FE13
:103FB00000200010000000000000000000000000D1
:103FC000000000000000000000380044003C0044F5
:103FD000004C003400000000004000400058006425
:103FE000004400440064005800000000000000008D
:103FF0000038004400400040004400380000000049
:10400000000400040034004C00440044004C003420
:10401000000000000000000000380044007C004068
:104020000044003800000000000C0010007C00106C
:104030000010001000100010000000000000000040
:104040000034004C00440044004C0034000400786C
:104050000040004000580064004400440044004414
:1040600000000000001000000070001000100010A0
:104070000010001000000000001000000070001090
:104080000010001000100010001000E00040004080
:10409000004800500060005000480044000000004C
:1040A0000070001000100010001000100010001030
:1040B000000000000000000000780054005400548C
:1040C000005400540000000000000000005800648C
:1040D00000440044004400440000000000000000D0
:1040E0000038004400440044004400380000000050
:1040F00000000000005800640044004400640058C0
:1041000000400040000000000034004C0044004427
:10411000004C00340004000400000000005800645B
:10412000004000400040004000000000000000008F
:10413000003800440030000800440038000000004F
:10414000002000200078002000200020002000181F
:10415000000000000000000000440044004400444F
:10416000004C003400000000000000000044004447
:1041700000280028002800100000000000000000B7
:10418000005400540054006C002800280000000077
:104190000000000000440028001000100028004427
:1041A0000000000000000000004400440028002837
:1041B000001000100010006000000000007C0008EB
:1041C000001000200040007C0000000000180010DB
:1041D0000010001000200020001000100010001837
:1041E000001000100010001000100010001000104F
:1041F000001000100030001000100010000800082F
:1042000000100010001000300000000000000074DA
:10421000004C000000000000000000000000000052
:10422000000000000000000000000000000000008E
:10423000000000000000000000000000000000007E
:104240000000000C000C000C000C000C000C000C1A
:10425000000C000C000C000C0000000C000C000016
:10426000000000000000001B001B001B001B001BC7
:10427000000000000000000000000000000000003E
:104280000000000000000000000080198019801963
:104290008019C07FC07F80190033C07FC07F00338A
:1042A0000033003300330000000000000000001E57
:1042B000003F807580650074003C001E000780058B
:1042C000806580658075003F001E000400040000CA
:1042D0000000007000D840D8C0D880D90073000614
:1042E000000C801BC036C066C046C00680030000BC
:1042F000000000000000001E003F003300330033C8
:10430000001E000CC03CC066806380618063C03EBC
:10431000801C0000000000000000000C000C000CDD
:10432000000C000C00000000000000000000000075
:1043300000000000000000000000000080000001FC
:104340000003000600060004000C000C000C000C2A
:10435000000C000C000400060006000300018000B1
:10436000002000100018000C000C000400060006DD
:1043700000060006000600060004000C000C0018F1
:10438000001000200000000C002D003F001E003334
:10439000000000000000000000000000000000001D
:1043A0000000000000000000000000000000000C01
:1043B000000C000C000CC0FFC0FF000C000C000C37
:1043C000000C0000000000000000000000000000E1
:1043D00000000000000000000000000000000000DD
:1043E000000000000000000C000C000400040008A5
:1043F00000000000000000000000000000000000BD
:104400000000001E001E0000000000000000000070
:10441000000000000000000000000000000000009C
:104420000000000000000000000000000000000C80
:10443000000C000000000000000000030003000367
:104440000006000600060006000C000C000C000C24
:104450000018001800180000000000000000001EF6
:10446000003F0033806180618061806D806D80617C
:10447000806180610033003F001E000000000000EA
:1044800000000006000E001E003600260006000692
:1044900000060006000600060006000600060000F2
:1044A000000000000000001E003F807380618061FA
:1044B000800100030006000C001800300060807FBF
:1044C000807F0000000000000000001C003E006330
:1044D00000630003000E000E000380018001806174
:1044E0008073003F001E0000000000000000000676
:1044F000000E000E001E001E00160036003600667C
:10450000807F807F0006000600060000000000009B
:104510000000007F007F006000600060006E007F90
:1045200080638001800180618073003F001E000075
:10453000000000000000001E003F8033806100602A
:10454000006E007F80738061806180618033003FF6
:10455000001E0000000000000000807F807F8001BE
:104560000003000300060006000C000C000C00080D
:104570000018001800180000000000000000001ED5
:10458000003F8063806180610021001E003F8061E8
:10459000806180618061003F001E0000000000001B
:1045A0000000001E003F00738061806180618073A5
:1045B000803F801D800180610073003F001E00006D
:1045C0000000000000000000000000000000000CDF
:1045D000000C000000000000000000000000000CC3
:1045E000000C0000000000000000000000000000BF
:1045F00000000000000C000C0000000000000000A3
:104600000000000C000C0004000400080000000082
:104610000000000080008003000E003800600038B9
:10462000000E800380000000000000000000000079
:1046300000000000000000000000807F807F00007C
:104640000000807F807F000000000000000000006C
:1046500000000000000000000000000000400070AA
:10466000001C000780010007001C007000400000D3
:1046700000000000000000000000001F803FC0712B
:10468000C060C000C00180030007000E000C000CD9
:104690000000000C000C0000000000000000001EE4
:1046A000003F803180718063806F806D806D806F8E
:1046B000806700600032003E001C00000000000027
:1046C0000000000E000E001B001B001B001B8031B1
:1046D0008031803F803F8031C060C060C06000009A
:1046E000000000000000007C007E006300630063A7
:1046F0000063007E007E0063806180618063007FD4
:10470000007E0000000000000000001E003F80311D
:104710008061006000600060006000600060806197
:104720008031003F001E0000000000000000007CFF
:10473000007F00638063806180618061806180614F
:10474000806100630063007E007C000000000000C8
:104750000000807F807F0060006000600060007F5C
:10476000007F0060006000600060807F807F00004C
:10477000000000000000807F807F0060006000601B
:104780000060007F007F00600060006000600060EB
:1047900000600000000000000000001E003F8031AB
:1047A0008061006000600060806380638061806180
:1047B0008031803F001E000000000000000080618A
:1047C00080618061806180618061807F807F8061A5
:1047D0008061806180618061806100000000000074
:1047E0000000003F003F000C000C000C000C000C0F
:1047F000000C000C000C000C000C003F003F0000FF
:104800000000000000008001800180018001800123
:104810008001800180018001806180618073003FA0
:10482000001E0000000000000000C0608061006306
:1048300000660066006C0078007C0066006600631D
:1048400080618061C0600000000000000000006026
:104850000060006000600060006000600060006058
:10486000006000600060807F807F0000000000002A
:104870000000C071C071C07BC07AC06AC06AC06EDF
:10488000C064C060C060C060C060C060C060000044
:10489000000000000000807180718079807980794B
:1048A000806D806D806D80658067806780678063C4
:1048B00080630000000000000000001E003F003385
:1048C00080618061806180618061806180618061E0
:1048D0000033003F001E0000000000000000007ECA
:1048E000007F80638061806180618063007F007EE3
:1048F00000600060006000600060000000000000D8
:104900000000001E003F0033806180618061806193
:1049100080618061806580670033803F401E0000B9
:10492000000000000000007E007F806380618061E5
:104930008063007F007E00660063006380618061A9
:10494000C0600000000000000000000E001F803169
:10495000803100300038001E0007800380618061D4
:104960008031003F001E0000000000000000C0FF7A
:10497000C0FF000C000C000C000C000C000C000C24
:10498000000C000C000C000C000C000000000000EB
:1049900000008061806180618061806180618061F0
:1049A00080618061806180618073003F001E000033
:1049B000000000000000C060C060C0608031803135
:1049C0008031001B001B001B001B000E000E000EA0
:1049D00000040000000000000000C0C0C0C0C0C053
:1049E000C0C0C0C0C0CC804C804C805E8052805221
:1049F0008073806180610000000000000000C0C082
:104A0000806080610033003B001E000C000C001E23
:104A1000001F003B80718061C0C0000000000000EA
:104A20000000C0C08061806100330033001E001EA2
:104A3000000C000C000C000C000C000C000C000022
:104A4000000000000000803F803F80010003000361
:104A50000006000C000C0018001800300060807F79
:104A6000807F000000000000000F000F000C000C11
:104A7000000C000C000C000C000C000C000C000CD6
:104A8000000C000C000C000C000F000F00000018C0
:104A900000180018000C000C000C000C00060006AA
:104AA00000060006000300030003000000000000F1
:104AB000001E001E00060006000600060006000696
:104AC00000060006000600060006000600060006B6
:104AD000001E001E0000000C000C001E001200331F
:104AE00000338061806100000000000000000000D1
:104AF00000000000000000000000000000000000B6
:104B000000000000000000000000000000000000A5
:104B10000000000000000000E0FF0000000000387E
:104B20000018000C00000000000000000000000061
:104B30000000000000000000000000000000000075
:104B400000000000000000000000001F803F8061A6
:104B50008001801F803F80618063807FC0380000BB
:104B60000000000000000060006000600060006E57
:104B7000007F807380618061806180618073007FCD
:104B8000006E0000000000000000000000000000B7
:104B90000000001E003F8073806100600060806143
:104BA0008073003F001E0000000000000000800134
:104BB000800180018001801D803F80738061806161
:104BC000806180618073803F801D000000000000D4
:104BD00000000000000000000000001E003F007305
:104BE0008061807F807F00608071003F001E000038
:104BF000000000000000C007C00F000C000C807F08
:104C0000807F000C000C000C000C000C000C000C51
:104C1000000C000000000000000000000000000088
:104C2000801D803F807380618061806180618073BE
:104C3000803F801D80018063007F003E0000006097
:104C4000006000600060006F807F80718061806123
:104C500080618061806180618061000000000000EF
:104C600000000006000600000000003E003E0006B6
:104C7000000600060006000600060006000600000A
:104C8000000000000006000600000000003E003E9C
:104C900000060006000600060006000600060006E4
:104CA00000060046007E003C0000006000600060DE
:104CB0000060806100630066006C007C0076006329
:104CC00000638061C0600000000000000000003E42
:104CD000003E00060006000600060006000600066C
:104CE00000060006000600060006000000000000A6
:104CF0000000000000000000000080DDC0FFC0CE0A
:104D0000C0CCC0CCC0CCC0CCC0CCC0CCC0CC0000CF
:104D10000000000000000000000000000000006F24
:104D2000807F80718061806180618061806180614D
:104D30008061000000000000000000000000000092
:104D40000000001E003F807380618061806180618F
:104D50008073003F001E0000000000000000000003
:104D600000000000006E007F8073806180618061C0
:104D700080618073007F006E0060006000600060F2
:104D80000000000000000000801D803F80738061F3
:104D90008061806180618073803F801D800180011F
:104DA000800180010000000000000000000000679A
:104DB000803F0039003000300030003000300030DB
:104DC00000300000000000000000000000000000B3
:104DD0000000001E803F80610060007F803F8001F6
:104DE0008061007F001E0000000000000000000045
:104DF000000800180018007F007F00180018001835
:104E0000001800180018801F800F0000000000002C
:104E100000000000000000000000806180618061EF
:104E200080618061806180618063807F803D00005F
:104E30000000000000000000000000000000C06052
:104E4000803180318031001B001B001B000E000EE2
:104E5000000600000000000000000000000000004C
:104E6000000080DD80DD80DD0055005500550077B5
:104E70000077002200220000000000000000000077
:104E8000000000000000806100330033001E000CB1
:104E9000000C001E003300338061000000000000A1
:104EA000000000000000000080618061803100335C
:104EB0000033001B001B001B000E000E000E001C28
:104EC000007C007000000000000000000000C07FB7
:104ED000C07F800100030006000C00180030C07F76
:104EE000C07F00000000000080038007000600066D
:104EF000000600060006000E001C001C000E000646
:104F00000006000600060006800780030006000673
:104F10000006000600060006000600060006000661
:104F20000006000600060006000600060006000651
:104F30000038003C000C000C000C000C000C000EB3
:104F400000070007000E000C000C000C000C000C09
:104F5000003C0038000000000000000000000000DD
:104F600000008038807F0047000000000000000043
:104F70000000000000000000000000000000000031
:104F80000000000000000000000000000000000021
:104F90000000000000000000000000000000000011
:104FA000000000000000000000000000E003E0033B
:104FB000E003E003E003E003E003E003C003C00319
:104FC000C001C001C001C001C0010000000000001C
:104FD000E003E003E0030000000000000000000028
:104FE0003C1E3C1E3C1E3C1E3C1E3C1E3C1E00004B
:104FF00000000000000000000000000000000000B1
:1050000000000000000000000000000000000000A0
:1050100000000000CE01CE03DE039E039C039C072C
:10502000FF3FFF7F3807380F780F780F780EFFFFAC
:10503000FFFFF01EF01CE01CE03CE03DE03900000A
:105040000000000000000000FC03FE0FEE1FE01E49
:10505000E01EE01EE01EE01FE00FE007F003FC0191
:10506000FE01FE01FE01FE01FE01FE01FE3DFC3FD0
:10507000F00FE001E001000000000000033E07F730
:105080008FE78EE79EE3BCE3B8E7F8E7F0F7E03F91
:10509000C001FF03FF07F307F30FF31EF33CF338E0
:1050A000F3787FF03FE00000000000000000000007
:1050B000E007F80F780F781F781F781F780FF00F30
:1050C000E00F801FC37FC3FBE7F3F7F1F7F0FFF0BA
:1050D0007FF03EF87F7CFF3FEF1F000000000000E4
:1050E00000000000E003E003E003E003E003C0038E
:1050F000C0010000000000000000000000000000EF
:10510000000000000000000000000000000000009F
:1051100000000000000000003F007C00F001E00102
:10512000C003C00780078007800F000F000F000F2B
:10513000000F000F000F800F80078007C007C0031B
:10514000E001F0017C003F000F000000007E001F26
:10515000C007C003E001F001F000F000F8007800A3
:1051600078007800780078007800F800F000F0000F
:10517000F001E001C003C007001F007E00780000BE
:10518000E003C003C001CE39FF3F7F3F200370031F
:10519000F807780F3C1F38060000000000000000F0
:1051A00000000000000000000000000000000000FF
:1051B00000000000000000000000000000000000EF
:1051C000C001C001C001C001C001C001C001FFFF9A
:1051D000FFFFC001C001C001C001C001C00100004B
:1051E00000000000000000000000000000000000BF
:1051F00000000000000000000000000000000000AF
:1052000000000000000000000000E003E003E003F5
:10521000E003E001E001E001C001800300000000C4
:10522000000000000000000000000000000000007E
:105230000000FE3FFE3F00000000000000000000F4
:10524000000000000000000000000000000000005E
:10525000000000000000000000000000000000004E
:10526000000000000000000000000000000000003E
:105270000000E003E003E003E003000000000000A2
:10528000000000000F000F001E001E003C003C004C
:1052900078007800F000F000E001E001C003C003F6
:1052A00080078007000F000F001E001E003C003C1E
:1052B0000078007800F00000F007F80F7C1F3E3EF9
:1052C0001E3C1F7C1F7C0F780F780F780F780F78AB
:1052D0000F780F781F7C1F7C1E3C3E3E7C1FF80F12
:1052E000F00700000000000000000000F000F007E0
:1052F000F03FF03FF001F001F001F001F001F001AA
:10530000F001F001F001F001F001F001F001F00115
:10531000F001FF3FFF3F0000000000000000000020
:10532000E00FF83F7C3C3C003E003E003E003C006D
:105330003C007C00F800F001E003C0078007000F8C
:10534000001E003E003CFE3FFE3F0000000000004B
:1053500000000000F00FF81F7C1C3E003E003E00E5
:105360003C003C00F800F00FF80F7C003E001E00EF
:105370001E001E001E003E007C1CF81FE01F0000E7
:1053800000000000000000007800F800F800F801BC
:10539000F803F807F807780F781E781E783C7878BD
:1053A0007878FFFFFFFF78007800780078007800B9
:1053B000780000000000000000000000FC1FFC1F3F
:1053C000FC1F001E001E001E001E001EE01FF81F16
:1053D000FC007C003E003E001E003E003E003C0003
:1053E0007C1CF81FE01F000000000000000000000F
:1053F000FC01FE078E0F001F001E003E003C003C1B
:10540000F83DFC3F3E7F1F7E0F3C0F3C0F3C0F3CA6
:105410000F3E1F1E3E1FFC0FF003000000000000A7
:1054200000000000FF3FFF3FFF3F0F001E001E0077
:105430003C0038007800F000F000E001E001C0031B
:10544000C0038007800F800F000F001F001F0000A7
:105450000000000000000000F807FC0F3E1F1E1EA9
:105460001E3E1E3E1E1E3C1FF80FF007F80FFC1ECE
:105470003E3E1F3C1F7C0F7C0F7C1F3C3E3FFC1FB1
:10548000F00700000000000000000000F007F80F27
:105490007C1E3E3C1E3C1F7C1F7C1F7C1F7C1F3CD7
:1054A0003F3EFF1FEF071F001E001E003E003C0096
:1054B000F838F03FE01F000000000000000000008E
:1054C000000000000000000000000000E003E00316
:1054D000E003E00300000000000000000000000006
:1054E0000000E003E003E003E00300000000000030
:1054F00000000000000000000000000000000000AC
:10550000E003E003E003E00300000000000000000F
:10551000000000000000E003E003E003E003E0011E
:10552000E001E001C0038003000000000000000073
:105530000000000003000F003F00FC00F003C00F5C
:10554000003F00FE003FC00FF003FC003F000F00D3
:105550000300000000000000000000000000000048
:10556000000000000000000000000000000000003B
:10557000FFFFFFFF000000000000FFFFFFFF000033
:10558000000000000000000000000000000000001B
:1055900000000000000000000000000000E000F833
:1055A000007E801FE007F8017E001F007E00F801EA
:1055B000E007801F007E00F800E00000000000000F
:1055C00000000000F01FFC3F3E381F381F381E004F
:1055D0001E003C007800F000E001C003C003C007DB
:1055E000C007000000000000C007C007C00700009F
:1055F0000000000000000000F803FE0F1E1F0F3E19
:105600007F3CFF78EF79C773C7F38FF38FF38FF386
:105610009FF39FF3FF73FF7BF779003C1C1FFC0F88
:10562000F80300000000000000000000000000007F
:105630000000E003E003F007F007F007780F780FB1
:105640007C0E3C1E3C1E3E3CFE3FFF3F1F780F7809
:105650000FF007F007F0000000000000000000005D
:10566000000000000000F83FFC3F3E3C1E3C1E3C9A
:105670001E3C3E3C7C3CF03FF83F7E3C1F3C1F3CC8
:105680000F3C0F3C1F3CFE3FF83F000000000000B5
:1056900000000000000000000000FF01FF07871F5E
:1056A000003E003C007C00780078007800780078AC
:1056B000007C007C003E003F831FFF07FF010000CD
:1056C0000000000000000000000000000000F07F6B
:1056D000FC7F7E781F781F780F780F780F780F780F
:1056E0000F780F780F780F781F781E787E78F87F04
:1056F000E07F00000000000000000000000000004B
:105700000000FF3FFF3F003E003E003E003E003EE7
:10571000003EFE3FFE3F003E003E003E003E003E9B
:10572000003EFF3FFF3F00000000000000000000BF
:10573000000000000000FF1FFF1F001E001E001ED3
:10574000001E001E001EFF1FFF1F001E001E001E69
:10575000001E001E001E001E001E000000000000B3
:1057600000000000000000000000FE03FF0F871F84
:10577000003E007C007C007800F800F87FF87FF89D
:105780000F780F7C0F7C0F3E8F1FFF0FFE03000072
:1057900000000000000000000000000000001F7C6E
:1057A0001F7C1F7C1F7C1F7C1F7C1F7C1F7CFF7F3E
:1057B000FF7F1F7C1F7C1F7C1F7C1F7C1F7C1F7C2E
:1057C0001F7C00000000000000000000000000003E
:1057D0000000FF3FFF3FE003E003E003E003E003DE
:1057E000E003E003E003E003E003E003E003E003A1
:1057F000E003FF3FFF3F000000000000000000004A
:10580000000000000000FC1FFC1F7C007C007C00EE
:105810007C007C007C007C007C007C007C007C00A8
:1058200078007800F838F03FC03F0000000000002A
:10583000000000000000000000001F3C1E3C3C3C3B
:10584000783CF03CE03DE03FC03F803FC03FE03F60
:10585000F03DF03C783C7C3C3E3C1F3C0F3C000063
:105860000000000000000000000000000000003EFA
:10587000003E003E003E003E003E003E003E003E38
:10588000003E003E003E003E003E003E003EFF3F28
:10589000FF3F0000000000000000000000000000CA
:1058A00000001FF81FFC1FFC3FFE3FFE3FFE7FFF76
:1058B00077FF77FFF7F7E7F7E7F3E7F3C7F307F0CB
:1058C00007F007F007F000000000000000000000F3
:1058D0000000000000000F7C0F7C0F7E0F7F0F7F09
:1058E0008F7F8F7FCF7FEF7BEF79FF79FF78FF7816
:1058F0007F783F783F781F781F7800000000000015
:1059000000000000000000000000F007FC1F3E3E09
:105910001F7C0F780F780FF80FF80FF80FF80FF8BB
:105920000FF80F780F781F7C3E3EFC1FF007000039
:105930000000000000000000000000000000FC3F2C
:10594000FF3F1F3E0F3E0F3E0F3E0F3E1F3E3F3EAE
:10595000FC3FF03F003E003E003E003E003E003E69
:10596000003E0000000000000000000000000000F9
:105970000000F007FC1F3E3E1F7C0F780F780FF8E9
:105980000FF80FF80FF80FF80FF80F780F781F7C4B
:105990003E3EFC1FF8077C003F000F0003000000A4
:1059A000000000000000F03FFC3F7E3C3E3C1E3CFF
:1059B0001E3C3E3C3C3CFC3CF03FE03FF03DF83CB4
:1059C0007C3C3E3C1E3C1F3C0F3C000000000000A5
:1059D00000000000000000000000FC07FE1F0E3E5B
:1059E000003C003C003C003EC01FF80FFE037F005F
:1059F0001F000F000F001F203E3CFC3FF01F000067
:105A00000000000000000000000000000000FFFF98
:105A1000FFFFE003E003E003E003E003E003E00353
:105A2000E003E003E003E003E003E003E003E0035E
:105A3000E003000000000000000000000000000083
:105A400000000F7C0F7C0F7C0F7C0F7C0F7C0F7C89
:105A50000F7C0F7C0F7C0F7C0F7C0F7C1E3C1E3C50
:105A60003E3EFC1FF00700000000000000000000A8
:105A700000000000000007F007F007F80F780F7C27
:105A80001E3C1E3C1E3E3C1E3C1F781F780FF80F2C
:105A9000F007F007F007E003E0030000000000005B
:105AA0000000000000000000000003E003F003F02D
:105AB00007F0E7F3E7F3E7F3E773F77BF77FFF7FA1
:105AC0007F7F7F7F7E7F7E3F3E3E3E3E3E3E0000AC
:105AD000000000000000000000000000000007F8C7
