:020000040800F2
:10000000305900209D01000859250008391D0008BD
:10001000992300082B030008173400080000000093
:100020000000000000000000000000009D310008FA
:10003000DD030008000000005B2500089F31000878
:10004000B7010008B7010008B7010008B7010008B0
:10005000B7010008B7010008B7010008DF03000876
:10006000B7010008B7010008B7010008B701000890
:10007000B7010008B7010008B7010008B701000880
:10008000B7010008B7010008B7010008B701000870
:10009000B7010008B7010008B7010008B701000860
:1000A000B7010008B7010008B7010008B701000850
:1000B000B7010008B7010008B7010008B701000840
:1000C000B7010008B7010008B7010008B701000830
:1000D000B7010008B7010008B7010008B701000820
:1000E000B7010008B7010008B7010008B701000810
:1000F000B7010008B7010008B7010008B701000800
:10010000B7010008B7010008B7010008B7010008EF
:10011000B7010008B7010008B7010008B7010008DF
:10012000B7010008B7010008B70100082D03000857
:10013000B7010008B7010008B7010008B7010008BF
:10014000B7010008B7010008B7010008B7010008AF
:10015000B7010008B7010008B7010008B70100089F
:10016000B7010008B7010008B7010008B70100088F
:10017000B7010008B7010008B7010008000000003F
:10018000B7010008B7010008DFF80CD000F090F8C4
:1001900000480047314D000830590020064880478C
:1001A00006480047FEE7FEE7FEE7FEE7FEE7FEE75C
:1001B000FEE7FEE7FEE7FEE73932000889010008A6
:1001C0002DE9F05F0546002092469B46884606468C
:1001D000814640241BE0284641464746224600F01F
:1001E00057F853465A46C01A914110D31146184643
:1001F000224600F03EF82D1A67EB01084F462246D2
:100200000120002100F035F817EB00094E41201EB7
:10021000A4F10104DFDC484631462A464346BDE8E6
:10022000F09FD2B201E000F8012B491EFBD27047CB
:100230000022F6E710B513460A4604461946FFF7B2
:10024000F0FF204610BD421C10F8011B0029FBD115
:10025000801A704730B505460020034600E05B1C5D
:10026000934205D2EC5CC85C201A01D1002CF6D177
:1002700030BD202A04DB203A00FA02F1002070474A
:100280009140C2F1200320FA03F3194390407047D4
:10029000202A04DB203A21FA02F00021704721FADB
:1002A00002F3D040C2F12002914008431946704742
:1002B000064C074D06E0E06840F0010394E80700B3
:1002C00098471034AC42F6D3FFF762FF54C40208DB
:1002D00074C4020870B58C1810F8015B15F00703A0
:1002E00001D110F8013B2A1106D110F8012B03E0CF
:1002F00010F8016B01F8016B5B1EF9D12B0705D4D7
:100300000023521E0DD401F8013BFAE710F8013B1F
:10031000CB1A921C03E013F8015B01F8015B521E3B
:10032000F9D5A142D8D3002070BDFEE7014800F006
:1003300007BA00000404002001681823CAB2103A6A
:10034000B2FBF3F2054B6FF30901032A9B5CC36513
:1003500000D9091D81650846704700009CC302084A
:1003600010B5014600208B698A6A4FF0C07453B102
:10037000B3F5005F15D072B1012A0CD0022A0AD061
:10038000032A09D104E01AB1012A06D0022A03D1B6
:10039000C96AC90100D5012010BDC96AA142FAD0BD
:1003A00010BD002AF7D0012AF2D0022AF3D0032A86
:1003B000F3D010BD30B50468256825F4802525608C
:1003C000046863608368402B036803D09960006809
:1003D000C26030BD9A600068C16030BD704700F0F7
:1003E0005FB872B6FEE710B504462222802100F005
:1003F0008BF930B90A228821204600F085F90028BF
:1004000000D0012010BD08B500218DF800106A460B
:10041000022100F054F908B1002008BD9DF8000049
:1004200000F00F0008BD2DE9FF411C46DDE90A760A
:100430001546012902D0022902D00EE0032200E075
:1004400009224FF0640C042303A98DE80A10818867
:100450000068012300F0C0FC18B1012004B0BDE821
:10046000F0819DF80E109DF80F0001F00F0140EA99
:100470000120C0F5A07028809DF80C109DF80D009B
:1004800001F00F0140EA012020809DF80E000009D4
:1004900038709DF80C00800930700020DEE7000005
:1004A00003480121017040680249808A0860704752
:1004B000B0000020143C014070B586B00446142101
:1004C0006846FFF7B5FE64B3174D012669466C60B8
:1004D000A089CDE90006002002900390A06800F0FA
:1004E000B3FA6868818A00914FF40411CDE90116CE
:1004F0000069694600F0A8FA00221146072000F0C2
:10050000A1FE072000F090FE686800F0E9F840B90D
:10051000686800F0ADF820B96868FFF764FF00284C
:1005200000D0012006B070BDB00000202DE9F041E0
:10053000002406464FF4FA785FF0010704EB44000C
:1005400006EB8005287A50B1A87A40B9687A30B9AC
:1005500000F078FB6968401A404500D96F72641C4E
:10056000022CEBDBBDE8F0812DE9FF473E4E3078F1
:10057000002869D07068002866D04FF0000886F81F
:100580000080FFF740FFDFF8E49007460025BD42FA
:1005900001DA012100E000217078854201DA0120B2
:1005A00000E00020B9B308B305EB450A09EB4A04A3
:1005B000211D601DCDE90001681CC1B202AB03AA78
:1005C0007068FFF730FF6079401CC1B2617139F883
:1005D0001A20BDF80C00824204D16288BDF80830B0
:1005E0009A4228D02379022B30D024E005EB450134
:1005F00009EB4104211D601DCDE90001681CC1B259
:10060000A31C22467068FFF70EFF0120207160795D
:10061000401C607121E0FFE768B105EB450209EB82
:10062000420403212171B16809B120468847C4F80A
:100630000080A4F804806D1C022DA8DB77706A4648
:100640000221706800F03BF8BDE8FF8729F81A0026
:10065000BDF808006080491C6171B1680029EAD0CA
:1006600020468847E7E70000B0000020AC040020E7
:1006700038B50546002000906A46A021284600F0C3
:100680001EF8C0B96C469F212846621C00F017F87E
:1006900088B9A21CA321284600F011F858B99DF88A
:1006A0000000022807D19DF80100262803D19DF8FB
:1006B0000200642801D0012038BD002038BD3EB5BD
:1006C0000124CDE900246423029384880A4600684B
:1006D0000123214600F080FB002800D001203EBD10
:1006E00010B5044681898068002200F0A5FA0A202E
:1006F00000F098F9A1890122A06800F09DFAC820B5
:1007000000F090F9002010BD17B583B064240123D8
:1007100005AA8DE81C0084880A460068214600F07E
:100720005DFC002800D0012006B010BD10B5FFF719
:100730001BFFBDE810400148FFF7F8BEB8040020D9
:100740002DE9F84304464FF00009CDF800906348C6
:100750004FF41651A56D0068B0FBF1F72E6894F8C0
:100760005C10082000FA01F131420FD021680A68BC
:1007700052070BD50A6822F004020A6094F85C1054
:100780008840A860606D40F00100606594F85C10DE
:100790004FF0010808FA01F0304208D02168496999
:1007A000090604D5A860606D40F00200606594F809
:1007B0005C1004208840304208D02168096889070D
:1007C00004D5A860606D40F00400606594F85C108A
:1007D00010208840304218D021680968090714D5D4
:1007E000A86020680168490304D50068000308D5A3
:1007F000A16C07E00168C90503D4016821F0080174
:100800000160216C09B12046884794F85C102020D3
:100810008840304231D021680968C9062DD5A860CA
:1008200094F8350005282068016806D0490347D5AB
:10083000006800031DD4616C1CE021F0160101600A
:100840002068416921F080014161206C08B9A06CE9
:1008500020B12068016821F00801016094F85C1063
:100860003F208840A86084F8358084F83490216D5A
:100870001FE0E16B09B120468847606D00282BD04E
:10088000606DC00714D0052084F835002068016829
:1008900021F0010101600098401C0090B84203D88B
:1008A00020680068C007F6D184F8358084F8349059
:1008B000E16C002910D001B02046BDE8F0430847A4
:1008C0000168C905D5D4016821F01001016084F8E0
:1008D000358084F83490CCE7BDE8F8834C030020E1
:1008E0002DE9F041044600F0ADF906465CB1022066
:1008F00084F83500002584F834502068016821F020
:10090000010101600DE00120BDE8F08100F09AF9DD
:10091000801B052805D920206065032084F8350058
:10092000F2E720680068C007F0D12268116820480B
:100930000140D4E901031843D4E903363343184393
:1009400063691843A3691843E3691843236A18438A
:100950000843616A042903D1D4E90B1319430843FE
:10096000106020684069666A20F0070130460E4337
:10097000012704280CD1A06A0643E06A40B1204652
:10098000FFF7EEFC20B14020606584F83570BAE7CF
:10099000206846612046FFF7CFFC94F85C203F2199
:1009A00091408160656584F835700020ACE70000F7
:1009B0003F8010F02DE9F0410446866D90F8340038
:1009C000002501280DD0012084F8340094F83570FA
:1009D0000020012F07D084F8340002252846BDE806
:1009E000F0810220FBE7022784F83570606520461D
:1009F000FFF7E0FC94F85C103F208840B06020686E
:100A0000016841F016010160206C20B12068016886
:100A100041F0080101602068016841F001010160B6
:100A2000DCE7000070B5044600F00CF90546601CD8
:100A300002D004480078044400F004F9401BA042AE
:100A4000FAD370BD400300202DE9F84FDFF8BCA1B8
:100A50000022012503264FF00F090AF1040BAAF129
:100A6000040E00BF0B6805FA02F42340A34270D1C4
:100A70000F7907F00307012F01D0022F16D18768E5
:100A80004FEA420806FA08FC27EA0C07D1F80CC026
:100A90000CFA08FC4CEA070CC0F808C04768A743EA
:100AA0000C79C4F3001494403C4344600C79E44353
:100AB000A4070AD0C4684FEA420C06FA0CF7BC43FC
:100AC0008F6807FA0CF72743C7600C7904F003041A
:100AD000022C12D1D40800EB840CDCF8204057071C
:100AE000FF0E09FA07F824EA0804D1F8108008FA82
:100AF00007F848EA0408CCF8208004684FEA420C62
:100B000006FA0CF7BC430F7907F0030707FA0CF756
:100B1000274307604C6814F4403F70D03C4C276872
:100B200047F480472760246822F0030704F48044D8
:100B30000094384C07EB040CDCF8084897074FEAA0
:100B4000177809FA08F7BC43334FB84202D100279F
:100B500024E054E0314FB84201D101271EE0304F6C
:100B6000B84201D1022719E02E4FB84201D1032724
:100B700014E02D4FB84201D104270FE02B4FB842AB
:100B800001D105270AE02A4FB84201D1062705E026
:100B9000284FB84201D1072700E0082707FA08F7D5
:100BA0002743CCF80878DAF800405746D1F804C05B
:100BB0009C435FEACC2C00D51C433C60DBF8004032
:100BC0005F46D1F804C09C435FEA8C2C00D51C43DF
:100BD0003C60DEF800407746D1F804C09C435FEAF1
:100BE0008C3C00D51C433C60084F083F3C68D1F862
:100BF00004C09C435FEACC3C00D51C433C60521CC3
:100C0000102AFFF42FAFBDE8F88F0000083C014028
:100C1000443802400030014000000240000402401D
:100C200000080240000C0240001002400014024084
:100C300000180240001C02400AB18161704709049B
:100C4000FBE7000001488068704700004003002077
:100C500070B5040025D094F83D00002520B984F833
:100C60003C50204600F052FA242084F83D002068D1
:100C7000016821F0010101602068016841F4004130
:100C800001602068016821F40041016000F0A6FBCA
:100C90004D4A6168914201D84C4900E04C49884274
:100CA00001D2012070BD4B492368B0FBF1F15E68B1
:100CB00026F03F060E435E606368934206D94FF408
:100CC000967359434FF47A73B1FBF3F12368491CCF
:100CD0001E6A26F03F06314319626168914210D8BE
:100CE0004900401EB0FBF1F2521CC2F30B02042A71
:100CF00001D2042022E0B0FBF1F0401CC0F30B0055
:100D00001CE0A268F2B301EBC10303EB0116431E22
:100D1000B3FBF6F35B1C43F480431B0549D092B34D
:100D200001EBC10202EB0111401EB0FBF1F0401CCF
:100D3000C0F30B0040F4804040F400402168CA69D1
:100D40004CF6FF739A431043C861D4E9071001437E
:100D50002068026822F0C00211430160D4E9030157
:100D600001432068826848F2FF339A43114381604F
:100D7000D4E9050108432168CA6822F0FF02104344
:100D8000C86001E00EE016E02068016841F0010152
:100D900001602564202084F83D00256384F83E50DE
:100DA000002070BD01EB4106431EB3FBF6F35B1C54
:100DB000B3E70120C2E701EB4101401EB0FBF1F0B7
:100DC000401CC0F30B00B7E7A086010080841E0022
:100DD00000093D0040420F002DE9FF4F83B09A46C5
:100DE000DDE9118793460446DDF84090FFF72AFFBE
:100DF000054694F83D00202870D11923012274493A
:100E00002046009501F0AEF80028F5D194F83C009A
:100E1000012863D0012084F83C0020680168C907DC
:100E200003D1016841F0010101602068016821F4EB
:100E300000610160222084F83D00402084F83E00DB
:100E400000262664C4F82490A4F82A80608D2085AA
:100E50006048E062CDE9007553465A462046049941
:100E600000F082FF002879D1208DD0B1012821D057
:100E70000228206824D0416980690090208D0328D1
:100E800066D801282BD0544902283B464FF0000277
:100E9000009557D08846204601F064F800285DD1BF
:100EA0003AE02068416981690091016841F400716C
:100EB00001607DE02068016821F480610160F0E755
:100EC000016821F4806101602068016841F40061DB
:100ED0000160206841698069009069E075E02A46F8
:100EE0003946204601F0E4F888BB54E020680168E8
:100EF00041F40071016020680069616A0870606AED
:100F0000401C6062218D491E2185618D491E6185CD
:100F100021680969017042E02068016821F480615C
:100F2000016020680069616A0870606A401C606244
:100F3000208D401E2085608D401E60853B4600222E
:100F400041460095204601F00DF800B9CEE705E0D6
:100F50002A463946204601F0ABF818B1012007B007
:100F6000BDE8F08F20680069616A0870606A401C03
:100F70006062208D401E81B22185608D401E60859B
:100F800020684269D243520712D4032903D1016871
:100F900021F48061016020680069616A0870606AFC
:100FA000401C6062208D401E2085608D401E608543
:100FB000208D00287FF462AF202084F83D0084F863
:100FC0003E6084F83C600020C9E70220C7E70000CB
:100FD000020010000000FFFF040001002DE9FF4F98
:100FE00083B09A46DDE9119793460446DDF84080C8
:100FF000FFF728FE054694F83D0020287FD11923ED
:10100000012240492046009500F0ACFF002876D12F
:1010100094F83C00012872D0012084F83C0020683C
:101020000168C90703D1016841F00101016020682E
:10103000016821F400610160212084F83D00402016
:1010400084F83E0000262664C4F82480A4F82A9080
:10105000608D20852C48E062CDE9007553465A46E4
:101060002046049900F0FEFE70B930E02A46394669
:10107000204601F055F858B1206C042804D12068AE
:10108000016841F400710160012007B0BDE8F08FF4
:10109000606A216800780861606A401C6062218D86
:1010A000491E89B22185628D521E6285226853696C
:1010B000DB435B070BD469B100781061606A401CA8
:1010C0006062208D401E2085608D401E6085208DD1
:1010D0000028CBD12A463946204600F017FF0028C9
:1010E000CAD154F83D0B016841F400710160202021
:1010F00004F81E09E67766770020C6E7FFE70220BE
:10110000C3E70000020010000000FFFF10B586B02A
:10111000044614216846FFF78BF81349206888427B
:1011200020D112480021026842F0020202600068E9
:1011300000F002000590C02000901220CDE90101CE
:10114000032003900420049069460948FFF77CFCC3
:1011500006481030016841F400110160006800F495
:101160000010059006B010BD005400403038024019
:10117000000402400248816802781144816070478F
:10118000400300200B4810B5016841F40071016074
:10119000016841F480610160016841F4807101607F
:1011A000032000F06FF80F2000F006F800F024F89C
:1011B000002010BD003C024070B50D4D04464FF4B8
:1011C0007A712878B1FBF0F00A490968B1FBF0F0B8
:1011D00000F0E6FC48B9102C07D200222146501E30
:1011E00000F030F800206C6070BD012070BD000080
:1011F000400300204C0300200A4808B5016841F470
:1012000080410160006800F4804000900548001FA4
:10121000016841F080510160006800F0805000904A
:1012200008BD000044380240002809DB00F01F021E
:10123000012191404009800000F1E020C0F8001138
:1012400070470000F0B40E4B1B680C46C3F302233A
:10125000C3F10705042D00D90425191D072901D262
:10126000002300E0DB1E012606FA05F1491E21409D
:1012700099409E40761E16403143F0BC02F0F4B80F
:101280000CED00E0064900F0070208684FF6FF0386
:10129000184040EA0220034A1043086070470000EB
:1012A0000CED00E00000FA052DE9F0470E460500C0
:1012B00065D0DFF81481D8F80000F7B200F007001D
:1012C000B04207D288F80070D8F8000000F007009C
:1012D000B04254D128683D4C810712D5400703D550
:1012E000206840F4E05020602878000703D520688B
:1012F00040F4604020602068A96820F0F0000843B6
:1013000020602878C0072DD0304968680839012846
:1013100012D0022813D0032811D0096889070029A8
:101320002DDA216821F0030101432160FFF78AFCD7
:10133000814641F2883A0EE009688903EFE70968BF
:101340008901ECE7FFF77EFCA0EB0901514502D9CA
:101350000320BDE8F0872068696800F00C00B0EB5E
:10136000810FEFD1D8F80010404601F00701B142DB
:1013700007D90770006800F00700B04201D00120D3
:10138000E7E72878400705D52068E96820F4E050B1
:10139000084320602878000706D52068296920F4D2
:1013A000604040EAC100206000F038F82168084A37
:1013B000C1F30311515CC840064908600648006843
:1013C000FFF7FAFE0020C4E7003C02400838024064
:1013D000A4C302084C03002044030020044805492C
:1013E00000680968044AC1F38221515CC840704713
:1013F0004C03002008380240B4C3020804480549E1
:1014000000680968044AC1F34231515CC840704722
:101410004C03002008380240B4C30208154810B538
:10142000006810F00C02144813D01449042A0FD09D
:10143000082A0ED10F4C241F2268236802F03F02B5
:101440005B0207D52068C0F38810A0FB010106E00D
:10145000084610BD2168C1F38811A1FB00010023DB
:10146000FEF7AEFE2168C1F30141491C4900B0FB03
:10147000F1F010BD083802400024F40040787D01EE
:101480002DE9F84F04006ED02078DFF84C93C007A8
:10149000A9F104054AD009F104000168C1F38101F2
:1014A000012908D00068C0F3810002280AD1D9F8C8
:1014B0000000400206D52868800337D56068002800
:1014C000E1D033E06068B0F5803F10D0B0F5A02FD8
:1014D000286810D020F480302860286820F480200C
:1014E00028606068A8B1FFF7ADFB06460DE02868EC
:1014F00040F48030F4E740F480202860F7E700BF34
:10150000FFF7A0FB801B642873D828688003F7D5F9
:101510000CE0FFF797FB064605E000BFFFF792FBE4
:10152000801B6428F0D828688003F7D42078DFF87F
:10153000AC8280074FF0000A3ED5A748001D016825
:1015400011F00C0F08D00068C0F3810002280BD105
:10155000D9F80000400207D42868800716D5E06853
:10156000012800D112E033E1E068B8B10120C8F8E9
:101570000000FFF767FB064605E000BFFFF762FBD0
:10158000801B0228C0D828688007F7D52868216901
:1015900020F0F80040EAC10028600DE0C8F800A083
:1015A000FFF750FB064604E0FFF74CFB801B0228C8
:1015B0001FD828688007F7D42078000722D5864FE7
:1015C00087486169703771B101210160FFF73AFB0B
:1015D000064604E0FFF736FB801B022809D838686E
:1015E0008007F7D50EE0C0F800A0FFF72BFB0646FA
:1015F00005E082E0FFF726FB801B02287DD83868D3
:101600008007F7D42078400768D5DFF8CCB10027F1
:101610000BF13C0BDBF80000C0000BD4DBF8001032
:1016200041F08051CBF80010DBF80000012700F0FA
:10163000805000906B4E3068C00510D4306840F484
:1016400080703060FFF7FEFA009005E0FFF7FAFACD
:101650000099401A022850D83068C005F6D55E4E71
:10166000A0686C3601280FD00528306810D020F013
:1016700001003060306820F004003060A068B8B12C
:10168000FFF7E0FA00900FE0306840F00100F4E767
:1016900040F004003060F7E7FFF7D4FA0099411AF0
:1016A00041F28830814266D830688007F4D50EE078
:1016B000FFF7C8FA009007E0FFF7C4FA0099411A53
:1016C00041F28830814256D830688007F4D42FB177
:1016D000DBF8001021F08051CBF80010A069C8B3EE
:1016E0003D49091D0968C1F3810102294AD0022838
:1016F000504607D0C8F8600000E03CE0FFF7A2FACF
:1017000004463BE04746C8F86000FFF79BFA0646F0
:1017100005E000BFFFF796FA801B02282BD8286847
:101720008001F7D4D4E907010843A16A2E4A490889
:1017300002EB0141626A41EA8211084394F82C10DD
:1017400040EA0161C9F8001001203866FFF77AFA13
:10175000044606E03EE000BFFFF774FA001B0228D3
:1017600009D828688001F7D534E000BFFFF76AFA8E
:10177000001B022802D90320BDE8F88F28688001E9
:10178000F4D427E00128F7D0D9F80000E26900F48A
:10179000800191421CD1226A00F03F01914217D191
:1017A00047F6C071626A0140B1EB821F10D1A26A94
:1017B0004FF0FF3300F4403103EB5202B1EB024F24
:1017C00006D194F82C1000F07060B0EB016F01D0DE
:1017D0000120D1E70020CFE7043802400000474253
:1017E000800E4742007000400000FFFF0068034980
:1017F000884201D1FEF7F5BD70470000003001407E
:1018000070B5040009D0606A002540B125616561AA
:10181000A56294F8510040B10CE0012070BD6068F1
:10182000B0F5827FF4D0E561F2E784F850502046AD
:1018300000F044F8022084F851002068016821F08B
:1018400040010160A088218900F4827001F4044104
:101850000843A18901F400610843217C01F00201E1
:101860000843217D01F001010843218B01F400713F
:101870000843217F01F03801084394F8201001F05B
:1018800080010843218D01F400510843216808605C
:10189000A069042101EA104094F8241001F010011D
:1018A0000843216848602068C16921F40061C16172
:1018B0006565012084F85100002070BDF0B587B047
:1018C000064614216846FEF7B3FC22493068884278
:1018D0003DD121480025016841F480510160006834
:1018E00000F4805005901C481438016841F0010153
:1018F0000160006801A900F001000590E02000905F
:101900000220032781E8A1000520049069461348BE
:10191000FFF79AF8134C1248206078066060402068
:10192000C4E902050001C4E90405A5610420E561DC
:10193000C4E90850F805C4E90A7080102063204605
:10194000FEF7CEFF08B1FEF74CFDB464A66307B006
:10195000F0BD000000300140443802400000024069
:1019600058640240040400202DE9F84F98461646BA
:101970008A460446FFF766F9814694F8510001282B
:101980001ED1BAF1000F73D0002E71D094F8500020
:10199000012815D0012784F85070032084F85100E5
:1019A00000256565C4F830A0A686E686A563A587F0
:1019B000E58765642564A068B0F5004F03D00CE0AE
:1019C0000220BDE8F88F2068016821F04001016025
:1019D0002068016841F4804101602068016849067F
:1019E00003D4016841F040010160E068B0F5006F88
:1019F000606803D048B3012E27D047E008B1012E1C
:101A00001FD1206B21680088C86006E020688168CB
:101A1000890709D5216B0988C160206B801C206370
:101A2000E08E401EE0860CE0FFF70CF9A0EB090108
:101A3000414503D3B8F1FF3F03D035E0B8F1000FC3
:101A400032D0E08E0028E1D123E0206B21680078BD
:101A5000087306E02068816889070AD5216B097838
:101A60000173206B401C2063E08E401EE0860DE079
:101A70002BE0FFF7E7F8A0EB0901414503D3B8F1EC
:101A8000FF3F03D010E0B8F1000F0DD0E08E00282A
:101A9000E0D14A464146204600F0A8FD08B120208A
:101AA0006065A06830B109E084F8517084F8505046
:101AB000032086E72068C1688068009084F8517030
:101AC00004F8505F60680028F3D0012079E7000037
:101AD00070B5044690F8510001281CD1C9B1C2B1BB
:101AE00094F85000012816D0012084F850000320FB
:101AF00084F85100002565652163A286E286A5630E
:101B000065642564A587E587A068B0F5004F04D01B
:101B10000DE0012070BD022070BD2068016821F039
:101B2000400101602068016841F480410160A16CBE
:101B300017480864A16C1748C863A16C1648C864AC
:101B4000A06C0565E38E2268216B0C32A06CFEF759
:101B500031FF30B1606D40F01000606584F8505086
:101B6000D7E720680168490603D4016841F04001C5
:101B7000016084F850502068416841F020014160C4
:101B80002068416841F002014160002070BD000002
:101B90007F250008892500085D25000870477047EB
:101BA00010B5401EB0F1807F01D3012010BD4FF071
:101BB000E02460610F21601701F056FC0020A06155
:101BC00007202061002010BD70B5040004D094F8F7
:101BD0004100002510B106E0012070BD84F840509E
:101BE000204600F023F8242084F841002068C168D2
:101BF00021F40051C160204601F04EFB20680169CC
:101C000021F4904101612068416921F02A0141617C
:101C10002068C16841F40051C1606564202084F8E7
:101C2000410084F842006563002070BD10B586B0A5
:101C3000044614216846FEF7FBFA144920688842DE
:101C400021D113480021026842F0100202600068AE
:101C500000F0100005900E481438026842F00102AE
:101C60000260006800F0010005904FF4C060009031
:101C70000220CDE90101032003900720049069466A
:101C80000448FEF7E1FE06B010BD00000010014060
:101C900044380240000002402DE9F843044690F821
:101CA0004100984616460D46202802D00220BDE885
:101CB000F88385B17EB100206064212084F8410062
:101CC000FEF7C0FFA6848146E684A0682027B0F511
:101CD000805F02D003E00120E9E7206910B12E46C1
:101CE00000250EE000260CE08021204601F05AFB82
:101CF000A8B9C6B116F8010B21684860E08C401EF7
:101D0000E084E08C4B464FF00002CDF800800028C4
:101D1000EAD14FF04001204601F044FB40B184F885
:101D200041700320C3E735F8020BC0F30800E3E776
:101D300084F841700020BAE7FEE701684A69D2439F
:101D400052050FD46FF480624A61002140F8301FC1
:101D5000202242738173026942F00402026101731E
:101D600001207047002070472DE9F84F04460068B5
:101D700089460B9D01689846174641F480610160D1
:101D80002068016841F48071016000954FF0011BEB
:101D90000022594620460A9B00F0E4F84FF4007AEE
:101DA00040B120680068C00501D5C4F840A00320F8
:101DB000BDE8F88F216809F0FE0008612B4628492C
:101DC00020460A9A00F016F9F0BB20684169806944
:101DD00000902A4620460A9900F0A2F940B1206CF2
:101DE00004283AD12068016841F40071016034E0B0
:101DF000FEB2B8F1010F09D02168380A08612A46FD
:101E000020460A9900F08CF90028E8D12068066184
:101E10002A4620460A9900F083F90028DFD120687D
:101E2000016841F480710160009500225946204606
:101E30000A9B00F097F80028B3D1216809F0FF0051
:101E400040F00100086100E007E02B46044920460D
:101E50000A9A00F0CFF80028AAD00120A8E70000D5
:101E6000020001002DE9F843044600680D46DDE953
:101E7000089701689846164641F4807101604B4608
:101E800000224FF001112046009700F06BF848B196
:101E900020680068C00502D54FF40070206403205C
:101EA000BDE8F883216805F0FE0008613B464A461C
:101EB0001549204600F09EF888B92068416980697C
:101EC00000903A464946204600F02AF948B1206C75
:101ED000042804D12068016841F4007101600120E8
:101EE000DEE7F5B2B8F1010F09D02168300A0861C8
:101EF0003A464946204600F013F90028E7D1206809
:101F000005610020CCE700000200010070B5164614
:101F10000D4604461EE02046FFF70FFF08B10120E2
:101F200070BD681C16D0FEF78DFE801BA84200D83D
:101F300085B920684069C04340070BD5002044F8AC
:101F4000300F20216173A073216941F020012161CC
:101F50002073E4E720684069C0434007DBD40020D9
:101F600070BD00002DE9F047984617460D4604461F
:101F7000C1F30746DDF820902AE000BFB8F1FF3F2B
:101F800026D0FEF75FFEA0EB0901414502D8B8F16B
:101F9000000F1DD12068012E16D0806925EA0000AF
:101FA0000004000C12D00020B84211D1002044F8E7
:101FB000300F20216173A073216941F0200121615C
:101FC00020730120BDE8F0874069E7E70120EBE7D7
:101FD0002068012E0AD0806925EA00000004000C68
:101FE00006D00020B842C9D00020EBE74069F3E7F3
:101FF0000120F7E72DE9F047984616460D460446BE
:102000004FF000094FF0200AC1F3074723E0206892
:102010004069C043400515D42068016841F400714F
:10202000016021686FF480604861C4F8309084F8E2
:102030003DA084F83E90216C41F00401216484F8B5
:102040003C9021E0701C06D0FEF7FCFDA0EB0800E0
:10205000B04203D816B1012F1FD021E02068012F14
:1020600015D0806925EA00000004000C18D000BFDC
:1020700044F8309F84F80DA084F80E90216941F057
:102080002001216184F80C900120BDE8F0874069AF
:1020900025EA00000004000CEAD12068406901E054
:1020A0002068806925EA00000004000CAFD1ECE74D
:1020B0002DE9F041002590460E460446202728E0F1
:1020C0004069C043C0060CD454F8301B6FF01000B8
:1020D000486144F810596777A577206A2062257710
:1020E00014E0FEF7AFFDA0EB0800B04200D886B9BF
:1020F00020684069C04340060BD544F8305F6773E1
:10210000A573206940F02000206125730120BDE8FF
:10211000F08120684169C9434906D1D40020F6E71F
:1021200070B516460D4604461EE02046FFF705FE34
:1021300008B1012070BD681C16D0FEF783FD801B1E
:10214000A84200D885B920684069C04300060BD575
:10215000002044F8300F20216173A073216941F001
:10216000200121612073E4E720684069C043000634
:10217000DBD4002070BD000038B51C4900200A687F
:1021800042F480020A6009681A4C01F4800100914F
:10219000174921604FF0C06161604021C4E902101D
:1021A0000901C4E90410C901A061C4E90701606222
:1021B0002046FEF795FB08B1FEF713F92068016889
:1021C00041F0100101602068016841F004010160E4
:1021D0000948002211468464A0633B20FFF732F8CF
:1021E000BDE838403B20FFF71FB800003038024000
:1021F0005864024004040020AC0300202DE9F041A3
:1022000086B014216846FEF713F8294800240168B7
:1022100041F004010160016801F0040105910168C9
:1022200041F080010160016801F0800105910168C1
:1022300041F001010160016801F0010105910168AF
:1022400041F002010160016801F00201059101689D
:1022500041F0400101600068164F00F04000059019
:10226000002240213846FEF7E7FCDFF84C8042F2BE
:102270002046002231464046FEF7DEFC0122510393
:102280004046FEF7D9FC402000900125CDE90154DD
:10229000694638460394FEF7D7FB0096CDE9015412
:1022A000694640460394FEF7CFFB06B0BDE8F081D7
:1022B0003038024000080240001802400D4810B5B6
:1022C0000B4901600C49416000214FF4804281605C
:1022D000C0E9031241618161C1610162FEF7B8FC8E
:1022E000002803D0BDE81040FEF77BB810BD000009
:1022F0000054004058030020400D030010B5174C57
:1023000015484FF48271C4E90001016841F40041AD
:102310000160016841F4804101600021E1604FF4F7
:1023200080222161C4E905121022C4E907216162FB
:10233000A1620A21E162022141608168C90700D0DF
:10234000C0680648FFF75CFA08B1FEF74AF8034890
:102350005830A06410BD000000300140AC030020E4
:102360000C4810B50A4901604FF4E1314160002189
:1023700081600C22C160C0E904128161C161FFF774
:1023800023FC002803D0BDE81040FEF72AB810BD9A
:102390000010014064040020FEE700002DE9F04732
:1023A00004464079022877D8401EC6B220793B4DBA
:1023B0004FF0000A4FF00108012813D002282BD05B
:1023C000032869D1FEF73EFC06EB460705EB8705BF
:1023D0006968421AA87A00283CD0617930A001F0DF
:1023E0001BF853E006EB4600218825F8201005EB8A
:1023F000800561886980FEF725FC686085F80880A3
:1024000085F809A085F80AA0638822886179BDE86B
:10241000F0472CA001F000B806EB460005EB800267
:10242000917A002938D1218835F82000081A00D582
:10243000404261885388C91A00D549420A2801D808
:102440000A2929D982F80A806179BDE8F04725A0D8
:1024500000F0E2BFDFF84490687A617909F1180969
:1024600038B127A000F0D8FF09EB47000222027123
:1024700006E02EA000F0D0FF09EB470080F80480B2
:10248000228829F81720618841804671C5F800A08C
:10249000C5F804A0C5F808A0BDE8F087B80400207E
:1024A000546F7563682025643A204D4F56452028A7
:1024B0004475726174696F6E3A202564206D7329CA
:1024C0000D0A0000546F7563682025643A2050722D
:1024D0006573736564206174202825642C2025644D
:1024E000290D0A00546F7563682025643A204D4F0A
:1024F000564520535441525445440D0A00000000F3
:10250000546F7563682025643A204C4F4E47205025
:102510005245535320284475726174696F6E3A2096
:102520002564206D73290D0A00000000546F756347
:10253000682025643A2053484F525420434C494365
:102540004B20284475726174696F6E3A20256420AF
:102550006D73290D0A000000FEE7704710B5806B0F
:1025600001684A6822F003024A60416D41F010019F
:102570004165012180F85110FFF738F910BD10B501
:10258000806BFFF70CFB10BD38B50546846BFEF77A
:1025900059FB024628680068C00523D420684168BA
:1025A00021F0200141602068416821F00201416072
:1025B0006421204600F01AF818B1606D40F0200048
:1025C0006065A068002118B92068C2688068009022
:1025D000E186012084F85100606D18B12046FFF7B4
:1025E00005F938BD2046FFF7D9FA38BDF8B51546CC
:1025F0000E460B46009204460122022100F02CF800
:10260000A0B9134813490068B0FBF1F04FF47A7198
:10261000484300906068B0F5827F0DD133460022B8
:1026200080212046009500F017F870B1606D40F0F1
:10263000200060650320F8BD009830B1401E009076
:1026400020688068C0430006F6D50020F8BD000071
:102650004C03002000366E012DE9F8431E469146DA
:1026600088460446089DFEF7EDFA401B351AFEF732
:10267000E9FA074626480068C0F3CB3068430AE011
:10268000701C09D0FEF7DEFAC01BA8420FD275B14C
:102690000098B8B3401E00902068816838EA0100B5
:1026A00033D000214945EBD10020BDE8F8832068F4
:1026B000416821F0E00141606068B0F5827F0BD194
:1026C000A068B0F5004F02D0B0F5806F04D120684B
:1026D000016821F040010160A06AB0F5005F09D1F6
:1026E0002068016821F4005101602068016841F40C
:1026F00000510160012084F85100002084F850004E
:102700000320D2E7FFE70025C6E70121CAE7000062
:102710004C0300202DE9FE4F0E460746002A7DD0CF
:10272000508841BA9088002940BA77D000287ED0DE
:102730004FF4A074A7427AD24FF48C739E4276D2A3
:10274000083202927A18A24201D9C7F5A0718CB260
:102750003118994201D9C6F58C7085B2002C66D02B
:10276000002D64D004FB05F04000019005F10F013D
:1027700060014FEA111A02F0F7FA5FEA000956D039
:102780007019401E83B23819401E82B23146384655
:1027900000F06EF900224FF400512648FEF74CFA83
:1027A0004FF0000B584632E00146AAF10100804587
:1027B00003D1484205EB001000E0102081B204FB79
:1027C00001F04700002009E0019A0BEB0001914263
:1027D00006D2029A525C09F80020401CB842F3D39A
:1027E00000260FE0B81BB0F5803F02D34FF6FF7014
:1027F00000E080B2009009EB0600009900F0D6FAE4
:1028000000980644BE42EDD3BB4408F10100804667
:102810005045C9D3484602F051FA00E007E003B042
:102820000122BDE8F04F51030248FEF705BABDE8AA
:10283000FE8F0000001802402DE9F84F1F460A9D48
:1028400016460C468246B2F5A07F2ED2B7F58C7F95
:102850002BD24FF4005B002259461548FEF7ECF9E5
:102860003B4632462146504600F002F94FEA152910
:1028700005F0FF0810E055460AE000BF8DF8009013
:102880008DF801800221684600F090FA6D1CADB20F
:10289000B542F3D9641CA4B2BC42ECD95946BDE898
:1028A000F84F01220248FEF7C7B9BDE8F88F0000D3
:1028B000001802402DE9F05F0646002140F2171390
:1028C00040F23F12084600F0D3F8DFF864B04FF44E
:1028D000005A002251465846FEF7AEF94FF42058F0
:1028E000404602F041FA0024370A0546F6B24FF49A
:1028F000A05900204FEA090105F8107005EB4002CD
:10290000401C80B256708842F6D34146284600F0FB
:102910004DFA641CA4B2112CEBD3284602F0CEF978
:1029200051465846BDE8F05F0122FEF785B9000028
:10293000001802401FB51920FEF774F8414C002220
:1029400020212046FEF778F91920FEF76BF80122C6
:1029500020212046FEF770F93220FEF763F83A2076
:1029600000F004FA052000F0F9FBB22000F0FEF9B7
:1029700035A1D1E90001CDE900010521684600F04B
:1029800015FA012000F0B2F8B72000F0EFF9352079
:1029900000F0E4FBBB2000F0E9F9192000F0DEFBB9
:1029A000C02000F0E3F92C2000F0D8FBC22000F09A
:1029B000DDF9012000F0D2FBC32000F0D7F912208E
:1029C00000F0CCFBC42000F0D1F9202000F0C6FBC1
:1029D000C62000F0CBF90F2000F0C0FBD02000F0A3
:1029E000C5F9A42000F0BAFBA12000F0B7FBE0205D
:1029F00000F0BCF916A00FC88DE80F000E21684644
:102A000000F0D4F9E12000F0B1F915A10FC98DE86B
:102A10000F000E21684600F0C9F9202000F0A6F949
:102A2000112000F0A3F9132000F0A0F9292000F0F4
:102A30009DF93220FDF7F6FF04B01F20BDE81040DD
:102A4000FFF738BF001802400C0C003333000000C1
:102A5000D0040D11132B3F544C180D0B1F230000F5
:102A6000D0040C11132C3F44512F1F1F20230000B2
:102A70002DE9F843DFF8709015460E4607464FF4EF
:102A800000581C46002241464846FEF7D5F82A2049
:102A900000F06CF9380A8DF800008DF80170280AF2
:102AA0008DF802008DF803500421684600F07EF98D
:102AB0002B2000F05BF9300A8DF800008DF80160E2
:102AC000200A8DF802008DF803400421684600F0CA
:102AD0006DF92C2000F04AF941464846BDE8F8431C
:102AE0000122FEF7A9B800000018024010B5044604
:102AF000362000F03BF954B1012C0AD0022C0AD048
:102B0000032C0AD16020BDE8104000F027BBC02094
:102B1000F9E7A020F7E70020F5E710BD0FB42DE995
:102B2000FF5F0C46DDE913A905461F4600224FF45E
:102B300000512548FEF780F8C7F30726601E304491
:102B400083B2FFB2681E384482B221462846FFF79E
:102B50008FFF00252CE01098203810FB06501299AA
:102B6000002409F0FF0B31F810804FEA1A20029080
:102B70000AF0FF0001904FEA1920009015E000BF15
:102B800008FA04F0000406D502988DF80C000198AC
:102B90008DF80D0004E000988DF80C008DF80DB054
:102BA000022103A800F002F9641CA742E8D86D1CBA
:102BB000AE42D0D804B00122BDE8F01F5103024854
:102BC0005DF814EBFEF738B8001802402DE9FE4F0F
:102BD00091460C9C8846054624B1207810B100200F
:102BE000214606E04FF0FF30BDE8FE8F401CC0B22A
:102BF000891C0A78002AF9D126490F88FEB216FBF3
:102C000000F0400800EB4000A0EB56001FFA80FBEC
:102C1000A9EB0500401C1FFA80FAA3EB0800401C3A
:102C200080B201900E9800904A4641462846FFF730
:102C300003FEAAEB0B0000EBD07005EB600085B241
:102C40000198C7F30721401A00EBD07208EB62002D
:102C500087B2781E01EB000814E000BFDDE90D012A
:102C60000094CDE90101681E304482B21FFA88F356
:102C70003946284600F0B8F9700800EB40002844B7
:102C800085B2A41C207810B171194945E6D90020FD
:102C9000AAE70000100000202DE9FF4F83B0924604
:102CA000109C8946804624B1207810B1002520462A
:102CB00007E04FF0FF3007B0BDE8F08F6D1CEDB2BC
:102CC000801C01780029F9D1294623A000F0A4FB3B
:102CD00025480688F7B217FB05FBAAEB0800401C45
:102CE00085B206984946A0EB0900401C80B20190CD
:102CF0001298009052464046069BFFF79DFDA5EBBB
:102D00000B0000EBD07108EB610085B20198C6F3AF
:102D10000721401A00EBD07209EB620086B2701EE8
:102D200001EB000811E000BFDDE911010094CDE9DD
:102D30000101681E384482B21FFA88F331462846E2
:102D400000F052F9781985B2A41C207810B17919D5
:102D50005145E9D90020AEE7636861725F6E756D19
:102D60003D25640A000000001000002031B50D4D23
:102D70004FF40054002221462846FDF75DFF002253
:102D8000E1102846FDF758FF4FF0FF330122694656
:102D90000548FEF7E9FD012221462846FDF74CFFD4
:102DA00038BD000000180240AC0300202DE9F05FA0
:102DB0001F4F0C46064600224FF400513846FDF7DF
:102DC0003BFF012291023846FDF736FF4FF4803970
:102DD0004FF6FF7BDFF85C80DFF85CA01EE04C451F
:102DE00001D3584600E0204685B2B8F80000A04262
:102DF0000BD82A4631461048FEF76AFEDAF848003A
:102E000090F835100129FBD106E04FF0FF332A4638
:102E100031460948FEF7A8FD2E44641B002CDED184
:102E20003846BDE8F05F01225103FDF705BF000001
:102E30000018024004000020AC0300202DE9F04FF0
:102E400087B01446DDE91367894605469B46002294
:102E50004FF400512848FDF7EFFE4FF4A070864272
:102E600000D906464FF48C70874200D90746B54218
:102E700039D2B94537D20BF0FF005FEA000832D0F3
:102E8000CBF307205FEA000A2DD0002003900490C6
:102E900005900690234619A2102103A800F0CCFA51
:102EA00003AC1DE008EB0500B0420AD30AEB0900B1
:102EB0001FFA80F900250AEB0900B84213D2202A34
:102EC0000DD0DDE91101CDE90101109800905B46BC
:102ED00049462846FFF722FE08EB050085B2641C30
:102EE0002278002ADED1012251030348FDF7A4FE17
:102EF00007B0BDE8F08F0000001802402564000014
:102F00002DE9F04F89B007464FF4A070DDF858B0B6
:102F1000DDF84C901C4615460E46824200D9054607
:102F20004FF48C70844200D90446AF4245D2A64289
:102F300043D209F0FF005FEA000A3ED0C9F3072040
:102F40005FEA000839D023462A463846CDF800B05B
:102F5000FFF772FC0020089005900690079018A2D9
:102F6000102105A8129B00F067FA05A8FDF76BF980
:102F7000E91B8BB2A11BC0B28AB21AFB00F1384622
:102F8000994205D8581A00EBD07007EB600080B268
:102F90003146904506D8A2EB080101EBD17106EB52
:102FA000610189B2159BCDE9013BCDE90354149A27
:102FB00000924B46129AFFF741FF09B0BDE8F08F2F
:102FC0002564000030B585B0DDE908458DE83E0098
:102FD00081898BB281888AB20189008889B280B2E6
:102FE000FFF78EFF05B030BD2DE9F84F1746DDF82D
:102FF00028A01E460C4680464FF0FF35B84229D81F
:10300000B44227D85FEA0A0024D0B7F5A07F01D3E5
:1030100040F23F17B6F58C7F01D340F217160C989B
:10302000009033463A464046FFF706FCDFF8209111
:10303000002500BF59F8250020B102225146FDF7B6
:1030400009F948B16D1C262DF4DB00BF4FF0FF30AD
:10305000BDE8F88F2846FBE7AB46B5F1FF3FF5D05A
:103060003C48311B491CD0E900900090A7EB0800B8
:10307000401C80B209F0FF058AB2401B00EBD07102
:1030800008EB6100C9F3072AA2EB0A0101EBD17139
:1030900080B204EB610189B24246404500D210463D
:1030A000A14200D30C462918B94201D9781B401C13
:1030B00087B20AEB0400B04202D9A6EB0A04641CF2
:1030C000A4B200224FF400512348FDF7B5FDC9F327
:1030D0000726601E304483B209F0FF01781E0844C1
:1030E00082B221463846FFF7C3FC009806FB0BF678
:1030F00000EB8607002421E0002607EB840819E096
:1031000017F82410B8F8020061F31F20C6F10F0170
:10311000C84010F0010F01D00B9800E00C98010A94
:103120008DF800108DF8010002216846FFF73EFE81
:10313000761CB6B2B542E3D8641CA4B2A245DBD873
:10314000012251030448FDF777FD002080E70000CD
:1031500018000020100000200018024031B50D4D6D
:103160004FF40054002221462846FDF765FD012258
:1031700091022846FDF760FD4FF0FF3301226946BA
:103180000548FEF7F1FB012221462846FDF754FDD4
:1031900038BD000000180240AC0300207047FDF766
:1031A000E9BF000030B593B030216846FDF740F824
:1031B00014210CA8FDF73CF81D480025016841F0DA
:1031C00080510160006800F080501190194801683A
:1031D00041F4804101600068022400F480401190B5
:1031E0000120039010200490009406940820CDE95B
:1031F0000750A020CDE9090404200B906846FEF793
:103200003FF908B172B6FEE70CA90F2081E8310042
:103210004FF4A0500F904FF48050109005210CA84F
:10322000FEF742F8002801D072B6FEE713B030BDB9
:1032300040380240007000400248016841F47001CB
:103240000160704788ED00E001680C3151E8002F03
:1032500022F4907241E80023002BF5D1016814316B
:1032600051E8002F22F0010241E80023002BF5D1A4
:10327000016B012909D101680C3151E8002F22F0BE
:10328000100241E80023002BF5D1202180F84210E4
:10329000002101637047000070B5044600680169B1
:1032A000E26821F44051114301612169A068E2699B
:1032B00008436169114308432168CA6849F20C63F5
:1032C0009A430243CA6020684169A26921F44071AF
:1032D0001143416131492068884202D03049884217
:1032E00002D1FEF78BF801E0FEF778F8E2690023DF
:1032F000192164253226B2F5004F626828D0A0FB60
:103300000101930F9200FCF75BFF0146B0FBF5F063
:103310006FF01802504301EB800006EB0010B0FB89
:10332000F5F000F0F002B1FBF5F002EB0012B1FB9A
:10333000F5F06FF01803584301EB800006EB001026
:10334000B0FBF5F000F00F0021681044886070BDFC
:10335000A0FB010192185B41FCF732FF0146B0FB74
:10336000F5F00201B1FBF5F06FF01803584301EBE3
:10337000800006EBC000B0FBF5F000F0F80002EBB7
:103380004002B1FBF5F0584301EB800006EBC000B2
:10339000B0FBF5F000F00700D6E700000010014098
:1033A000001401402DE9F843984617460D4604469F
:1033B000089E24E0701C22D0FDF744FCA0EB08001E
:1033C000B0421AD8CEB12068C168490717D5802D00
:1033D00015D0402D13D00168C94309070FD40168E7
:1033E0000025406800902046FFF72EFF082060640B
:1033F00084F840500120BDE8F8830320FBE72068F3
:10340000006835EA000004D00020B842D2D0002085
:10341000F1E70120F9E7FEE70FB4054B10B503A96A
:10342000044A029800F040F810BC5DF814FB00005C
:10343000A54C0008000000200FB41CB50246002077
:1034400007AC00290BD0491ECDE90021054B6A4687
:103450002146069800F028F8009A002111701CBC43
:103460005DF814FB0B3900080907090E002804DB7E
:1034700000F1E02080F80014704700F00F0000F128
:10348000E02080F8141D704702E008C8121F08C130
:10349000002AFAD170477047002001E001C1121FD5
:1034A000002AFBD1704700002DE9FF4F8DB00F4679
:1034B0000546002606E025280BD0DDE90F129047CF
:1034C0006D1C761C28780028F5D111B03046BDE877
:1034D000F08F0024A246A1460122EC4900E00443FB
:1034E00015F8013F203B02FA03F00842F7D1287893
:1034F0002A2810D06FF02F022878A0F13001092976
:1035000014D80AEB8A0102EB410144F0020400EBFB
:10351000010A6D1CF0E701CF5FEA000A03D544F40D
:103520000054CAF1000A44F002046D1C28782E28C9
:1035300017D115F8010F44F004042A280ED06FF0BB
:103540002F022878A0F1300109290AD809EB890156
:1035500002EB410100EB01096D1CF2E757F8049BF7
:103560006D1C28786C280FD006DC4C2817D06828F2
:103570000DD06A2814D104E0742810D07A280FD115
:103580000DE044F400140AE044F4801401E044F433
:1035900040146978814202D104F580146D1C6D1CC1
:1035A0002A786E2A1FD00CDC632A31D004DC002A72
:1035B0008BD0582A11D1A3E0642A68D0692A0CD193
:1035C00065E0732A2ED004DC6F2A73D0702A04D1F0
:1035D0009BE0752A6FD0782A6ED01046DDE90F1275
:1035E0009047761C50E1C4F30250022806D003280D
:1035F00009D0042801CF09D0066045E101CFF117B9
:10360000C0E9006140E101CF06803DE106703BE189
:1036100017F8040B8DF8000000208DF80100EB4630
:10362000012003E057F804BB4FF0FF3061074FF073
:10363000000102D40DE008F10101884649450FDA86
:103640008045F8DB1BF808100029F4D108E008F1E8
:10365000010188468142FADB1BF808100029F6D1E7
:10366000DDE90F23AAEB08008146214600F036F978
:10367000304400EB080604E0DDE90F121BF8010BF3
:103680009047B8F10108F7D221464846F7E00A21F1
:10369000C4F302534FF0000B0891022B04D001CF6A
:1036A000C117032B09D00AE0FF1D27F00707F7E831
:1036B000020108E032E01FE020E000B2C117042B55
:1036C00001D140B2C117031E71F1000307DA4FF0B8
:1036D000000CD0EB0C006CEB01012D2302E0230564
:1036E00004D52B238DF82430012303E0E30701D018
:1036F0002023F7E7984658E00A2110E010210EE059
:1037000010204FF0000B08900CE010214FF0000B40
:1037100044F004044FF00809089103E008214FF039
:10372000000B0891C4F30253022B04D001CF0021F7
:10373000032B06D006E0FF1D27F00707F7E802017C
:1037400003E080B2042B00D1C0B24FF00008230781
:103750002BD5702A07D0DDF820C08CF0100C5CEA65
:103760000B0C05D00EE040238DF82430012308E037
:1037700050EA010306D030238DF824308DF825203F
:1037800002239846DDF820C08CF0080C5CEA0B0C94
:103790000BD150EA010301D1630706D530238DF820
:1037A00024304FF00108A9F10109582A04D038A2A9
:1037B0000B9208AA0A920BE03AA2F9E75B46089A34
:1037C000FCF7FEFC0B9B9B5C0A9A521E0A9213703C
:1037D00050EA0102F2D10A98ADEB000000F1200B93
:1037E000600702D524F4803401E04FF00109D94587
:1037F00002DDA9EB0B0000E0002000EB0B014144CF
:103800000890AAEB010AE00306D4DDE90F23214664
:10381000504600F063F806444FF0000908E009A99B
:1038200011F80900DDE90F12904709F10109761C32
:10383000C145F4DBE0030CD5DDE90F2321465046FA
:1038400000F04CF8064404E0DDE90F123020904708
:10385000761C0899481E08900029F5DC08E00A98B3
:103860000A990078491C0A91DDE90F129047761CED
:10387000BBF10001ABF1010BF1DC21465046DDE963
:103880000F2300F019F806446D1C1BE609280100FF
:1038900030313233343536373839616263646566C6
:1038A0000000000030313233343536373839414288
:1038B00043444546000000002DE9F0410446002540
:1038C0001E461746880404D405E039462020B04738
:1038D0006D1C641EF9D52846BDE8F0812DE9F04144
:1038E000044600251E469046C80301D5302700E057
:1038F0002027880404D505E041463846B0476D1CB2
:10390000641EF9D52846BDE8F0814A68002A06D031
:103910000A68531C0B6010704868401E486070476E
:103920002DE9F14F5B4884B0017911B9817A002902
:103930007DD00025AA46814605EB450609EB4608E1
:10394000484698F80410012902D002295BD08DE086
:10395000DFF844B130F81630594600220C68A34213
:1039600019DB4C68A34216DCB8F802408F68BC42F1
:1039700011DBCF68BC420EDC474902202C39C2EB78
:10398000C2024870049800EB4200086105B0BDE82F
:10399000F04F00F0B7BD1031521C062ADEDB3E4C62
:1039A000C034002739F816002168884226DB616898
:1039B000884223DCB8F80200A16888421EDBE16877
:1039C00088421BDCD7B935A24FF4FC600092CDE9E8
:1039D00001A0BBF8CC0083B2BBF8C40082B2BBF834
:1039E000C80081B2BBF8C00080B2FFF755F92A4881
:1039F00003212C384170049801F016FA10347F1C12
:103A0000032FCFDB32E0244C6034002739F8160056
:103A10002168884226DB6168884223DCB8F802000E
:103A2000A16888421EDBE16888421BDC00E024E0DC
:103A30000498C7EBC70100EB4101487800B30020B0
:103A40004870F8B117A24FF4FC600092CDE901A0D4
:103A5000A08983B2A08882B2208981B2208880B2F6
:103A6000FFF7B4F810347F1C062FCFDB6D1CEDB2CE
:103A700088F804A0022DFFF45FAF05B0BDE8F08F19
:103A80000120DDE709A24FF478410092CDE901A1C0
:103A9000DEE70000D004002000010020BFAACABC5D
:103AA00000000000BFAAC6F400000000BDFBD3C3A5
:103AB000000000002DE9F04F0446FE4885B0007973
:103AC00018B9FC48807A00287ED0FB4800270546BC
:103AD00003903030BB460490DFF8D88307EB470AE9
:103AE00008EB4A0999F80400012802D002286CD09A
:103AF000FBE3F2484269AAB3D9F800000090B9F894
:103B00000410ADF80410ED4E019901F0FFF848BB28
:103B1000D9F800000090B9F80410ADF8041006F5CB
:103B20000372019901F0F2F8E0B9D9F8003000937E
:103B3000B9F80400ADF8040006F5077218460199BB
:103B400001F0E4F870B94FF6FF70CDE900B0DC4841
:103B5000D0E90023B1887069FFF734FAC6F814B0D1
:103B6000A6F804B00026D348296830F81A00884225
:103B70007DDB696888427ADCB9F80200A96888426E
:103B8000F6DBE9688842F6DC102E70D2DFE806F03A
:103B90006F08B0FEFDFCFBFAF9F8F7F6F56F6FF46D
:103BA00084F802B0C7A14FF4FC600091CDE901B0E8
:103BB00003985E46808B83B20398808A82B2039812
:103BC000008B81B2039801E0E1E3F3E3008A80B265
:103BD000FFF762F8BDA148F230400091CDE90160E5
:103BE0000398808D83B20398808C82B20398008DF5
:103BF00081B20398008C80B2FFF74EF84BF2BB58AD
:103C0000B4A18DE842010398B0F8DC0083B20398B8
:103C1000B0F8D40082B20398B0F8D80081B203980B
:103C2000B0F8D00080B2FFF737F84FF6FF70CDE95B
:103C30000060A24861792030415CA148D0E90023AE
:103C400003983030FFF7BEF90398CDF80080B0F844
:103C50004C0083B20398B0F8440082B20398B0F8E5
:103C6000480081B20398B0F8400080B200E095E2CD
:103C7000FEF7E2FD0398CDF80080B0F8EC0083B2C7
:103C80000398B0F8E40082B20398B0F8E80081B27B
:103C90000398B0F8E00080B2FEF7CEFD0398CDF8AF
:103CA0000080B0F85C0083B20398B0F8540082B290
:103CB0000398B0F8580081B20398B0F8500080B271
:103CC000FEF7BAFD0398CDF80080B0F8FC0083B28F
:103CD0000398B0F8F40082B20398B0F8F80081B20B
:103CE0000398B0F8F00080B2FEF7A6FD02264EE180
:103CF0000120A07073A248F230400092CDE901B0DB
:103D00000398808B83B20398808A82B20398008BD9
:103D100081B20398008A80B2FEF7BEFF6BA24FF417
:103D2000FC600092CDE901B00398808D83B20398C6
:103D3000808C82B20398008D81B20398008C80B28F
:103D4000FEF7AAFF4FF6FF78CDE900B85B48E179AE
:103D500025305B4E415CD6E9002303985030FFF7D5
:103D600031F9CDE900B85548217A2530415CD6E9D2
:103D700000230398F0300AE00CE3FDE200E216E1D4
:103D80000DE106E1CEE077E06DE062E04CE0FFF7A8
:103D900019F952A24BF2BB500092CDE901B0039841
:103DA000B0F8DC0083B20398B0F8D40082B2039874
:103DB000B0F8D80081B20398B0F8D00080B2FEF716
:103DC0006BFF48A24BF2BB500092CDE901B00398C3
:103DD000B0F8EC0083B20398B0F8E40082B2039824
:103DE000B0F8E80081B20398B0F8E00080B2FEF7C6
:103DF00053FFCDE900B83148E1780A3030F81110AE
:103E0000D6E9002303983030FFF7DCF8CDE900B89D
:103E10002A482179801D415CD6E90023039840306F
:103E2000FFF7D0F80326B2E0A078012801D048B10E
:103E3000B3E2224804994161E27800F10A0131F8C5
:103E40001210B2E01D4804994161627900F120012D
:103E5000AEE2A0780128EBD1174918484031416102
:103E60002279811DA4E2A0780128E1D112491348EA
:103E700050314161E2799AE284F806B01BA14FF417
:103E8000FC600091CDE901B003985E46B0F86C008B
:103E900083B20398B0F8640082B20398B0F8680067
:103EA00081B20398B0F8600080B2FEF7F5FE48F2E8
:103EB00030401FE0D004002040020020D400002049
:103EC00008000020B5A5C6B500000000D7E9BACFAC
:103ED00000000000C6B5C2CA00000000B8DFC6B5C9
:103EE00000000000B5CDC6B500000000B5A5D7F3B1
:103EF00000000000FDA10091CDE901600398B0F839
:103F00007C0083B20398B0F8740082B20398B0F8D2
:103F1000780081B20398B0F8700080B2FEF7BCFE62
:103F2000072634E00120A07148F230405E46AFF22F
:103F300044010091CDE901B00398B0F86C0083B260
:103F40000398B0F8640082B20398B0F8680081B2B8
:103F50000398B0F8600080B2FEF79EFEE3A14FF434
:103F6000FC600091CDE901600398B0F87C0083B259
:103F70000398B0F8740082B20398B0F8780081B268
:103F80000398B0F8700080B2FEF786FE0826103560
:103F9000E9E5D849A1F5F6704161617A05E0D549B6
:103FA0001031A1F5FE70416161898180F5E1DFF892
:103FB0004883D8F814000028F8D00399303188429B
:103FC0003AD1A17811B1012917D0E6E1617931B177
:103FD000491EC9B26171042901D9042161714FF4EC
:103FE0007842CDE900B2C44EC44A617920360CCA89
:103FF000715CFEF7E7FF6079BEE0E07830B1401E0B
:10400000C0B2E070012801D90120E0704FF478417E
:10401000CDE900B1B84EE1780A36B84836F811104B
:10402000D0E90023D8F81400FEF7CCFFE17836F889
:10403000110057E00B26AAE703994031884219D1B5
:10404000A1780129B2D1217931B1491EC9B22171BA
:10405000022901D9022121714FF47842CDE900B241
:10406000A54EA64A2179B61D0CCA715CFEF7AAFFBF
:10407000207981E003995031884219D1A178012932
:1040800094D1E17931B1491EC9B2E171042901D954
:104090000421E1714FF47842CDE900B2964E974A7F
:1040A000E17925360CCA715CFEF78CFFE07963E09C
:1040B0000399803188421AD1617A012901D9491EB8
:1040C000617211F0FF0110D00F2901D90F21617227
:1040D0004FF47842CDE900B2884A617A0CCAFEF703
:1040E00071FF607AA8F80400A4E70121EFE70399C3
:1040F0009031884223D16089052801D9401F608111
:1041000080B2052801D2052002E02D2801D92D20FA
:104110006081D8F8103000205A4600BFC0EBC001C3
:1041200003EB4101B4F80AC0A1F80AC094F80AC030
:1041300081F80CC0401C4A730628EFDBEBE00399C2
:10414000F03188429CD1A178012999D1217A31B1ED
:10415000491EC9B22172042901D9042121724FF4E8
:104160007842CDE900B2644E644A217A25360CCA01
:10417000715CFEF727FF207A315CA8F8041059E73C
:10418000DFF87481D8F81400002807D00399303183
:10419000884238D1A17811B1012916D0FDE06179AA
:1041A000491CC9B26171042901D9042161714FF41C
:1041B0007842CDE900B2504E504A617920360CCA9F
:1041C000715CFEF7FFFE6079D2E0E078401CC0B27F
:1041D000E070012801D90120E0704FF47841CDE969
:1041E00000B1454EE1780A36444836F81110D0E95E
:1041F0000023D8F81400FEF7E5FEE17836F8110048
:1042000053E00C26C3E603994031884218D1A178C7
:10421000012975D12179491CC9B22171022901D91D
:10422000022121714FF47842CDE900B2324E334A77
:104230002179B61D0CCA715CFEF7C4FE207997E0A7
:1042400003995031884218D1A178012958D1E179D8
:10425000491CC9B2E171042901D90421E1714FF46B
:104260007842CDE900B2244E244AE17925360CCAC1
:10427000715CFEF7A7FEE0797AE00399803188420D
:1042800018D1617A491C11F0FF01617210D00F2919
:1042900001D90F2161724FF47842CDE900B2174A7B
:1042A000617A0CCAFEF78EFE607AA8F80400A8E7CF
:1042B0000121EFE70399903188423ED16089401D8A
:1042C00080B26081052801D2052002E02D2801D9A5
:1042D0002D206081D8F8103000205A46C0EBC00174
:1042E000B4F80AC003EB41010BE0AAE0B5A5D3D2B4
:1042F00000000000C0020020D400002008000020C0
:104300004BE0A1F80AC094F80AC081F80CC0401C28
:104310004A730628E2DB4FF47840CDE90020544888
:104320006189D0E90023D8F81400FEF74BFE6189BB
:104330001035A8F80410761C15E40399F031884272
:104340002BD1A178012928D1217A491CC9B2217227
:10435000042901D9042121724FF47842CDE900B239
:10436000434A217A434E0CCA715CFEF72BFE207A39
:10437000315CA8F8041044E73E4C3F48253CC4F8A3
:1043800014B0A4F804B000F047FA0120607005B042
:10439000BDE8F08FA078012804D01035761C102ECF
:1043A000CADB4EE03549A1F517704161227A3149E7
:1043B000895CFAE5FFE7039938F81A00096E88422C
:1043C0003FDB0399496F88423BDC0399B9F802004F
:1043D000896E884235DB0399C96E884231DC022040
:1043E000A0714FF4FC66AFF2FC41CDE9001B0398CD
:1043F0000296B0F86C0083B20398B0F8640082B201
:104400000398B0F8680081B20398B0F8600080B2F9
:10441000FEF742FCAFF22C11CDE9001B0398029687
:10442000B0F87C0083B20398B0F8740082B20398AD
:10443000B0F8780081B20398B0F8700080B2FEF74F
:104440002BFC0C482538466956B14FF47842084990
:10445000CDE900B2D1E9002381883046FEF7B2FDF4
:104460007F1CFFB289F804B0022FFFF435AB8EE752
:1044700008000020F9000020DC04002030030020A8
:104480000A484178052910D2DFE801F00F03060938
:104490000C000748FFF744BA0069FFF70BBB04485C
:1044A00000F00EBB024800F087BB7047D40000202C
:1044B000DC040020F0B400220123022614460F255C
:1044C000C2EBC20100F8112000EB4101521C4C70FC
:1044D0008C70CB700C714B718E71CB710B724B72F7
:1044E0004D810D734C73062AEADBF0BC00F094B9E1
:1044F000FCF71CB910B5FEF71DFABDE8104000F03E
:10450000CBBA00002DE9FE4F07460021A34A08461A
:10451000FEF700F93878A24C00254FF6FF76062802
:1045200013D2DFE800F00305232527299DA000E032
:104530009EA08DE86100A08983B2A08882B2208904
:1045400081B2208880B2FEF741FBDFF854B2B9781F
:10455000DFF860924BF2BB500BF1300B4FF4FC686C
:1045600048F2304A51B101293DD098E092A0E0E7ED
:1045700093A0DEE794A0DCE795A0DAE797A100918D
:10458000CDE90150B4F8DC0083B2B4F8D40082B2B3
:10459000B4F8D80081B2B4F8D00080B2FEF77CFB4A
:1045A00090A18DE82201A08B83B2A08A82B2208BD9
:1045B00081B2208A80B2FEF709FB8CA18DE822042B
:1045C000A08D83B2A08C82B2208D81B2208C80B26B
:1045D000FEF7FCFACDE9005678798649095CD9E9FD
:1045E0000023584657E084A14BF2BB500091CDE91F
:1045F0000150B4F8DC0083B2B4F8D40082B2B4F84D
:10460000D80081B2B4F8D00080B2FEF745FB7CA19F
:104610004BF2BB500091CDE90150B4F8EC0083B2ED
:10462000B4F8E40082B2B4F8E80081B2B4F8E00073
:1046300080B2FEF731FB6BA18DE82204A08B83B220
:10464000A08A82B2208B81B2208A80B2FEF724FB3E
:1046500066A18DE82201A08D83B2A08C82B2208D4C
:1046600081B2208C80B2FEF717FBCDE9005661497C
:10467000F878163931F81010D9E900235846FEF7BA
:10468000A1FCCDE900565B4938791A39095CD9E9B2
:10469000002304F14000FEF795FCB878C8B1CDE9DD
:1046A0000056DFF850B1F9790BF1050B04F1500019
:1046B0001BF80110D9E90023FEF784FCCDE9005670
:1046C000397A04F1F0001BF80110D9E90023FEF754
:1046D00079FCCDE90056B3464E46797AD6E90023F7
:1046E00004F18000FEF76EFCCDE9005B7989D6E924
:1046F000002304F19000FEF765FCB879C8B10128E9
:104700002CD0022848D146463FA08DE86100B4F87D
:104710006C0083B2B4F8640082B2B4F8680081B26D
:1047200034F8600F80B2FEF7B7FA39A08DE8610067
:1047300028E035A18DE82201B4F86C0083B2B4F80A
:10474000640082B2B4F8680081B234F8600F80B2BD
:10475000FEF7A2FA2EA18DE8220413E02AA18DE82B
:104760002204B4F86C0083B2B4F8640082B2B4F8E6
:10477000680081B234F8600F80B2FEF78DFA24A190
:104780008DE82201A08B83B2A08A82B2208B81B2F5
:10479000208A80B2FEF780FABDE8FE8F946B000895
:1047A00040020020CCABD1F4D1A80000D3A1CCC3EF
:1047B000D1A8000008000020C9F1CDA5D1A80000B3
:1047C000B0D9BBE1D1A80000B7E7B3D8D1A80000A9
:1047D000CBC4C9F1B4CFD1A800000000C6B5C2CA8D
:1047E00000000000B5A5C6B500000000D7E9BACFAB
:1047F00000000000F4000020B8DFC6B50000000093
:10480000B5CDC6B500000000B5A5D7F30000000087
:10481000B5A5D3D2000000002DE9FE4306464BF2B9
:10482000BB50FEF747F84FF000087EA07C4CCDE966
:1048300000084FF6FF79CDF80890A0894D4683B265
:10484000A088474682B2208981B2208880B2FEF7D4
:10485000BDF976A0CDE900070295A08B83B2A08AAE
:1048600082B2208B81B2208A80B2FEF7AFF971A0AC
:10487000CDE900070295A08D83B2A08C82B2208D75
:1048800081B2208C80B2FEF7A1F96CA0CDE90007BF
:104890000295A08F83B2A08E82B2208F81B2208E2B
:1048A00080B2FEF793F967A0CDE900070295B4F84E
:1048B0004C0083B2B4F8440082B2B4F8480081B22C
:1048C000B4F8400080B2FEF781F960A0CDE900079E
:1048D0000295B4F85C0083B2B4F8540082B2B4F824
:1048E000580081B2B4F8500080B2FEF76FF904F1BD
:1048F00060050027C7EBC70006EB400040780028A2
:104900007ED04FF4FC6154A20092CDE90181A889C8
:1049100083B2A88882B2288981B2288880B2FEF743
:1049200055F910357F1C062FE4DB1F2745464CA0A8
:104930008DE8A100B4F8CC0083B2B4F8C40082B210
:10494000B4F8C80081B234F8C00F80B2FEF7A4F901
:1049500045A08DE8A100A08B83B2A08A82B2208BF3
:1049600081B2208A80B2FEF797F941A08DE8A100BC
:10497000A08D83B2A08C82B2208D81B2208C80B2B7
:10498000FEF78AF93CA08DE8A100A08F83B2A08E2B
:1049900082B2208F81B2208EC03C80B2FEF77CF9BB
:1049A000CDE90059DFF8DC80317B4F46D8E90023A0
:1049B00004F58070FEF706FB33A08DE8A100B4F883
:1049C0001C0183B2B4F8140182B2B4F8180181B2A8
:1049D000B4F8100180B2FEF75FF9CDE90057717BA2
:1049E000D8E9002304F59070FEF7ECFA27A08DE8D3
:1049F000A100B4F83C0183B2B4F8340182B200E003
:104A000009E0B4F8380181B2B4F8300180B2FEF7A1
:104A100043F9BDE8FE834FF478411DA274E700001E
:104A200000010020CCABD1F4D1A80000D3A1CCC3AD
:104A3000D1A80000C9F1CDA5D1A80000B0D9BBE133
:104A4000D1A80000B7E7B3D8D1A80000CBC4C9F102
:104A5000B4CFD1A800000000BFAAC6F40000000037
:104A6000BFAACABC00000000BDE1CAF800000000F7
:104A7000D4DDCDA300000000CAA3D3E0CAB1B3A423
:104A80000000000008000020B7D60000C3EB0000C3
:104A9000BDFBD3C30000000010B50748FBF70CFDB9
:104AA00008B1FBF79EFC044904480C398860BDE856
:104AB00010400A20FBF7B6BFBC0000209D23000871
:104AC0002DE9FE4F0446DFF8E0A000F0C1F92046D2
:104AD00000F080F93548017911B9817A002961D057
:104AE0000026B3464FEA000906EB460709EB4708E4
:104AF00098F8041001294FD12B4CC0345FF0000509
:104B000039F817002168884242DB616888423FDC3F
:104B1000B8F80200A16888423ADBE168884237DCD5
:104B2000012D02D0022D1BD032E021A24FF478409B
:104B30000092CDE901B0BAF8CC0083B2BAF8C40053
:104B400082B2BAF8C80081B2BAF8C00080B2FEF7EB
:104B5000A3F8154801212C3801700421417017E099
:104B600013A24FF478400092CDE901B0BAF8CC001E
:104B700083B2BAF8C40082B2BAF8C80081B2BAF8F7
:104B8000C00080B2FEF788F8074904202C3948702D
:104B900010346D1C032DB3DB761CF6B288F804B01C
:104BA000022EA1D3BDE8FE8F00010020D00400201A
:104BB000BFAACABC000000002DE9FF5FDFF8D0A04B
:104BC0004FF000099AF80000012853D031480179CC
:104BD00011B9817A00294BD00026834606EB46079F
:104BE0000BEB470898F8041001293BD128492C31D8
:104BF00001F1C004002503913BF8170021688842A9
:104C00002CDB6168884229DCB8F80200A168884280
:104C100024DBE168884221DC15B1012D2AD01DE09A
:104C20001DA24FF4FC610092CDE901910398B0F808
:104C3000CC0083B20398B0F8C40082B20398B0F8F5
:104C4000C80081B20398B0F8C00080B2FEF724F823
:104C500003218AF80110124800F0E6F810346D1CA8
:104C6000032DC9DB761CF6B288F80490022EB5D36A
:104C7000BDE8FF9F0A488AF800905446827A027382
:104C800080F80D90FFF7C8FD01206070F0E700008C
:104C9000D4000020D0040020BFAACABC000000003D
:104CA000DC04002013B54FF0FF33012269460248AF
:104CB000FCF7F2FF00981CBD6404002010B500282A
:104CC00021D0114B0022001F196803E0814203D854
:104CD0000A4649680029F9D152B11368841A9C42E6
:104CE00004D1006818441060104602E0506000E0F3
:104CF000186039B102680B1A934203D10B681A4449
:104D000002604968416010BD50030020136881B201
:104D100099420BDB5368994208DC9168000C884289
:104D200004DBD168884201DC012070470020704715
:104D3000FCF728FAFEF736FAFDF760FAFDF7DEFA1F
:104D4000FDF71AFAFDF7BAFAFDF70AFBFFF7D2FBF7
:104D50000448FFF7AFFB00BFFFF792FBFFF7C8FB6C
:104D6000FAE70000DC040020F0B50B30154D20F010
:104D700007010024144A0FE003688B420BD38B42D7
:104D800005D95E1A43184768C3E9006700E0436825
:104D9000136002C004E0021D10680028ECD1204618
:104DA000002802D1286808B10020F0BD064A074853
:104DB0001060074A121A22F00702C0E900240120FD
:104DC0002860D7E75403002050030020340500205A
:104DD000305500202DE9FC47114C0646A4F12C0962
:104DE00099F80200002818D04FF6FF770025CDE98A
:104DF0000057DFF83080317B04F58070D8E900235C
:104E0000FEF7E0F8CDE90057717BD8E9002304F5FF
:104E10009070FEF7D7F889F80250BDE8FC870000D3
:104E2000000100200800002010B50446FBF70AFF2F
:104E3000014606488161227B617BC2EB021201EBD5
:104E400082014FF47A725143C16110BDD400002039
:104E50002DE9F0411B4C0546607803280DD1FBF786
:104E6000F1FEA1690122401AE169884207D30020BE
:104E700028736873042060702270BDE8F081081AFE
:104E80004EF66023B0FBF3F795F80CC03C264FF4C8
:104E90007A71674509D1B0FBF1F7B7FBF6FC06FB69
:104EA0001C7795F80DC06745E7D0A270B0FBF3F210
:104EB000B0FBF1F0B0FBF6F106FB11002A7368734A
:104EC000DBE70000D400002000000000000000002C
:104ED00000000000000000000000000000000000D2
:104EE0000000000000000000000000000000000CB6
:104EF000000C000C000C000C000C000C000C000C52
:104F0000000C000C0000000C000C00000000000071
:104F10000000001B001B001B001B001B000000000A
:104F20000000000000000000000000000000000081
:104F30000000000000008019801980198019C07FCE
:104F4000C07F80190033C07FC07F0033003300333F
:104F500000330000000000000000001E003F8075CC
:104F600080650074003C001E000780058065806538
:104F70008075003F001E0004000400000000007067
:104F800000D840D8C0D880D900730006000C801B20
:104F9000C036C066C046C0068003000000000000A6
:104FA0000000001E003F003300330033001E000CE1
:104FB000C03CC066806380618063C03E801C00008E
:104FC000000000000000000C000C000C000C000CA5
:104FD00000000000000000000000000000000000D1
:104FE0000000000000000000800000010003000637
:104FF00000060004000C000C000C000C000C000C5F
:1050000000040006000600030001800000200010DC
:105010000018000C000C0004000600060006000644
:10502000000600060004000C000C00180010002010
:105030000000000C002D003F001E003300000000A7
:105040000000000000000000000000000000000060
:1050500000000000000000000000000C000C000C2C
:10506000000CC0FFC0FF000C000C000C000C000086
:105070000000000000000000000000000000000030
:105080000000000000000000000000000000000020
:105090000000000C000C00040004000800000000E8
:1050A0000000000000000000000000000000001EE2
:1050B000001E0000000000000000000000000000D2
:1050C00000000000000000000000000000000000E0
:1050D00000000000000000000000000C000C0000B8
:1050E00000000000000000030003000300060006AB
:1050F00000060006000C000C000C000C0018001844
:1051000000180000000000000000001E003F0033F7
:10511000806180618061806D806D8061806180616F
:105120000033003F001E00000000000000000006E9
:10513000000E001E003600260006000600060006CF
:105140000006000600060006000600000000000041
:105150000000001E003F80738061806180010003B9
:105160000006000C001800300060807F807F000087
:10517000000000000000001C003E0063006300030C
:10518000000E000E00038001800180618073003FEB
:10519000001E00000000000000000006000E000ECF
:1051A000001E001E0016003600360066807F807FDD
:1051B0000006000600060000000000000000007F5E
:1051C000007F006000600060006E007F80638001EF
:1051D000800180618073003F001E0000000000001D
:1051E0000000001E003F803380610060006E007F81
:1051F00080738061806180618033003F001E000009
:10520000000000000000807F807F80010003000319
:1052100000060006000C000C000C00080018001826
:1052200000180000000000000000001E003F806326
:10523000806180610021001E003F8061806180618B
:105240008061003F001E0000000000000000001E02
:10525000003F00738061806180618073803F801DAA
:10526000800180610073003F001E0000000000000C
:1052700000000000000000000000000C000C000016
:1052800000000000000000000000000C000C000006
:10529000000000000000000000000000000000000E
:1052A000000C000C00000000000000000000000CDA
:1052B000000C0004000400080000000000000000D2
:1052C00080008003000E003800600038000E80036C
:1052D000800000000000000000000000000000004E
:1052E000000000000000807F807F00000000807FC1
:1052F000807F0000000000000000000000000000AF
:10530000000000000000000000400070001C0007CA
:1053100080010007001C0070004000000000000039
:10532000000000000000001F803FC071C060C0008E
:10533000C00180030007000E000C000C0000000CF0
:10534000000C0000000000000000001E003F803143
:1053500080718063806F806D806D806F806700607A
:105360000032003E001C0000000000000000000EA3
:10537000000E001B001B001B001B80318031803F92
:10538000803F8031C060C060C0600000000000004D
:105390000000007C007E0063006300630063007E09
:1053A000007E0063806180618063007F007E00007A
:1053B000000000000000001E003F8031806100609E
:1053C0000060006000600060006080618031003F2C
:1053D000001E0000000000000000007C007F006351
:1053E0008063806180618061806180618061006331
:1053F0000063007E007C0000000000000000807F51
:10540000807F0060006000600060007F007F0060BF
:10541000006000600060807F807F0000000000006E
:105420000000807F807F0060006000600060007F7F
:10543000007F0060006000600060006000600000AD
:10544000000000000000001E003F8031806100600D
:105450000060006080638063806180618031803F94
:10546000001E00000000000000008061806180617B
:10547000806180618061807F807F806180618061E8
:105480008061806180610000000000000000003F3A
:10549000003F000C000C000C000C000C000C000C79
:1054A000000C000C000C003F003F0000000000005A
:1054B0000000800180018001800180018001800165
:1054C00080018001806180618073003F001E0000C8
:1054D000000000000000C06080610063006600669C
:1054E000006C0078007C006600660063806180616B
:1054F000C06000000000000000000060006000606C
:10550000006000600060006000600060006000609B
:105510000060807F807F0000000000000000C071FC
:10552000C071C07BC07AC06AC06AC06EC064C0600F
:10553000C060C060C060C060C060000000000000CB
:10554000000080718071807980798079806D806DB4
:10555000806D8065806780678067806380630000FE
:10556000000000000000001E003F003380618061E9
:105570008061806180618061806180610033003F73
:10558000001E0000000000000000007E007F80631D
:105590008061806180618063007F007E00600060C8
:1055A0000060006000600000000000000000001EBD
:1055B000003F003380618061806180618061806133
:1055C000806580670033803F401E000000000000BF
:1055D0000000007E007F8063806180618063007FC7
:1055E000007E00660063006380618061C06000002F
:1055F000000000000000000E001F803180310030EC
:105600000038001E00078003806180618031003F08
:10561000001E0000000000000000C0FFC0FF000CE2
:10562000000C000C000C000C000C000C000C000C1A
:10563000000C000C000C0000000000000000806165
:105640008061806180618061806180618061806152
:10565000806180618073003F001E00000000000038
:105660000000C060C060C060803180318031001BAC
:10567000001B001B001B000E000E000E00040000AB
:10568000000000000000C0C0C0C0C0C0C0C0C0C09A
:10569000C0CC804C804C805E805280528073806190
:1056A00080610000000000000000C0C080608061D8
:1056B0000033003B001E000C000C001E001F003BCE
:1056C00080718061C0C00000000000000000C0C008
:1056D0008061806100330033001E001E000C000C4E
:1056E000000C000C000C000C000C0000000000007E
:1056F0000000803F803F8001000300030006000C93
:10570000000C0018001800300060807F807F0000CF
:1057100000000000000F000F000C000C000C000C3B
:10572000000C000C000C000C000C000C000C000C19
:10573000000C000C000F000F0000001800180018EB
:10574000000C000C000C000C000600060006000611
:10575000000300030003000000000000001E001E04
:105760000006000600060006000600060006000609
:10577000000600060006000600060006001E001EC9
:105780000000000C000C001E00120033003380618A
:105790008061000000000000000000000000000028
:1057A00000000000000000000000000000000000F9
:1057B00000000000000000000000000000000000E9
:1057C00000000000E0FF0000000000380018000C9E
:1057D00000000000000000000000000000000000C9
:1057E00000000000000000000000000000000000B9
:1057F000000000000000001F803F80618001801FCA
:10580000803F80618063807FC0380000000000001E
:1058100000000060006000600060006E007F807328
:1058200080618061806180618073007F006E000014
:105830000000000000000000000000000000001E4A
:10584000003F807380610060006080618073003F72
:10585000001E0000000000000000800180018001A7
:105860008001801D803F80738061806180618061E4
:105870008073803F801D00000000000000000000D9
:10588000000000000000001E003F00738061807F68
:10589000807F00608071003F001E0000000000005B
:1058A0000000C007C00F000C000C807F807F000C40
:1058B000000C000C000C000C000C000C000C000094
:1058C000000000000000000000000000801D803F7C
:1058D000807380618061806180618073803F801D02
:1058E00080018063007F003E000000600060006077
:1058F0000060006F807F8071806180618061806165
:1059000080618061806100000000000000000006EE
:10591000000600000000003E003E000600060006F3
:105920000006000600060006000600000000000059
:105930000006000600000000003E003E00060006D3
:1059400000060006000600060006000600060046E7
:10595000007E003C0000006000600060006080612C
:1059600000630066006C007C007600630063806169
:10597000C0600000000000000000003E003E000685
:1059800000060006000600060006000600060006E7
:1059900000060006000600000000000000000000F5
:1059A00000000000000080DDC0FFC0CEC0CCC0CC35
:1059B000C0CCC0CCC0CCC0CCC0CC0000000000002B
:1059C00000000000000000000000006F807F807178
:1059D00080618061806180618061806180610000A0
:1059E0000000000000000000000000000000001E99
:1059F000003F807380618061806180618073003FBF
:105A0000001E000000000000000000000000000078
:105A1000006E007F8073806180618061806180732F
:105A2000007F006E00600060006000600000000009
:105A300000000000801D803F807380618061806174
:105A400080618073803F801D800180018001800122
:105A5000000000000000000000000067803F0039E7
:105A600000300030003000300030003000300000E6
:105A70000000000000000000000000000000001E08
:105A8000803F80610060007F803F80018061007FF7
:105A9000001E0000000000000000000000080018C8
:105AA0000018007F007F0018001800180018001868
:105AB0000018801F800F00000000000000000000A0
:105AC0000000000000008061806180618061806171
:105AD000806180618063807F803D00000000000065
